:100000000C948A020C94AB020C9492130C94AB02E5
:100010000C94AB020C94AB020C94AB020C94AB02AC
:100020000C94AB020C94AB020C94AB020C94AB029C
:100030000C94AB020C94AB020C94D5170C94AB024D
:100040000C9406180C94AB020C94AB020C94AB020B
:100050000C94AB020C94AB020C94822C0C94AB026B
:100060000C94AB020C94AB020C94AB020C94AB025C
:100070000C94AB020C94AB020C94AB020C94AB024C
:100080000C94AB020C94AB020C94C9180C94AB0208
:100090000C94AB020C94AB020C94AB020C94AB022C
:1000A0000C94AB020C94AB020C94AB020C94AB021C
:1000B0000C94AB020C94AB020C94AB020C94AB020C
:1000C0000C94AB020C94AB020C94AB020C94AB02FC
:1000D0000C94AB020C94AB020C94AB020C94AB02EC
:1000E0000C94AB020C94AB020C94AB020C94AB02DC
:1000F0000C94AB020C94AB020C94AB020C94AB02CC
:100100000C94AB020C94AB020C94AB020C94AB02BB
:100110000C94AB020C94AB020C94AB020C94AB02AB
:100120000C94AB020C94AB020C94AB020C94AB029B
:100130000C94AB020C94AB020C94AB020C94AB028B
:100140000C94AB020C94AB020C94AB020C94AB027B
:100150000C94AB020C94AB020C94AB020C94AB026B
:100160000C940F130C94AB020C943B130C94AB0245
:100170000C94AB020C94AB020C94AB020C94AB024B
:100180000C94AB020C94AB020C94AB020C94AB023B
:100190000C94AB020C94AB020C94AB020C94AB022B
:1001A0000C94AB020C94AB020C94AB020C94AB021B
:1001B0000C94AB020C94AB020C94AB020C94AB020B
:1001C0000C94AB020C94AB020C94AB020C94AB02FB
:1001D0000C94AB020C94AB020C94AB020C94AB02EB
:1001E0000C94AB020C94AB020C94AB020C94AB02DB
:1001F0000C94AB020C94AB020C94AB02851B9A1BC3
:10020000031CA91B031C7E1B8A1B031C031C031C51
:10021000031C031C411B031C031C031C031C031CA9
:10022000031CBB1B031C031CCE1B9A1B031CA91B1A
:10023000031C7E1B8A1B031C031C031C031C031CC6
:10024000411B031C031C031C031C031C031CBB1BC2
:10025000031C031CCE1B452B8C2B8C2B652B8C2B52
:100260008C2B782B8C2B8C2B7C2B632B8C2B8C2B23
:10027000672B8C2B8C2B7A2B8C2B8C2B8C2B692B20
:10028000CB2C272DCF2CE82CEE2C042D0C2DC92C9B
:10029000102D142D1F2D232D0C94BB1B0C94F72B0C
:1002A0000C94EA2B0C94FD280C940E250C94D90B7D
:1002B0000C94C5220C949F230C94FC020C94652B87
:1002C0000C94452B0C941F2D0C948A1B0C947C2BA6
:1002D0000C9437210C94632B0C94E82C0C94A91BE0
:1002E0000C9406280C94C92C0C94102D0C94D32239
:1002F0000C94732D0C94782B0C94EE2C0C94112CE4
:100300000C94CE1B0C94411B0C9471220C943F2D29
:100310000C94142D0C94031C0C949A1B0C947A2BA3
:100320000C94EE0B0C94692B0C940C2D0C94672BF5
:100330000C948A2A0C94F4040C94CF2C0C947E1BFD
:100340000C94042C0C94CE020C94EF110C948C2B76
:100350000C940A2B0C94232D0C94042D0C94272D13
:100360000C94A7290C9412120C94CB2C0C94E02220
:100370000C94851B6E616E00696E660004030303B6
:1003800003020100FFFEFDFCFAF8F4EF9F230000DA
:1003900000000E2500000000FD28000000000628D7
:1003A000000000000000000000000000C5227122D3
:1003B000000000000000000000000000000000003D
:1003C00000000000000000000000E022D322000036
:1003D0000000000008010101010101010104010800
:1003E00002010101010201010201020101020102F7
:1003F00002010101010104010101020101732DA7A4
:10040000290A2B3F2DEA2BF72B042C112C0101027A
:1004100001020101010101010100407A10F35A00BB
:10042000A0724E18090010A5D4E80000E87648171D
:100430000000E40B54020000CA9A3B000000E1F502
:1004400005000080969800000040420F000000A0C8
:100450008601000000102700000000E803000000F3
:10046000006400000000000A00000000000100001D
:100470000000002C76D888DC674F0823DFC1DFAE90
:1004800059E1B1B796E5E3E453C63AE65199769659
:10049000E8E6C28426EB898C9B62ED407C6FFCEF22
:1004A000BC9C9F40F2BAA56FA5F490055A2AF75C50
:1004B000936B6CF9676DC11BFCE0E40D47FEF52002
:1004C000E6B500D0ED902E030094357705008084CA
:1004D0001E080000204E0A000000C80C33333333DE
:1004E0000F986E12831141EF8D2114893BE655164A
:1004F000CFFEE6DB18D1844B381BF77C1D901DA482
:10050000BBE424203284725E228100C9F124ECA174
:10051000E53D270011241FBECFEFCDBFDFE5DEBFD5
:1005200000E00CBF1CE2A0E0B0E2E6E2FFE900E080
:100530000BBF02C007900D92AC3BB107D9F72FE378
:10054000ACEBBCE201C01D92A338B207E1F70E94F8
:1005500072420C94914F0C94000082E08093C32C63
:1005600061E080E00E94741860E081E00C947418EF
:1005700083E08093C32C60E080E00E94741860E008
:1005800081E00C94741881E08093C32C60E080E0DB
:100590000E94741861E081E00C94741861E080E0BE
:1005A0000E94741861E081E00C947418CF93C5E048
:1005B00060E080E00E94741860E081E00E9474189E
:1005C00060E082E00E94741880E593EC0E947D1543
:1005D00061E080E00E94741861E081E00E9474187C
:1005E00061E082E00E94741880E593EC0E947D1522
:1005F000C150F1F6CF910895EF92FF920F931F93A0
:1006000080E00E94AD18882339F081E01F910F919E
:10061000FF90EF900C9422228EE290E00E94864D93
:100620008091C32C813019F40E94AD0204C0823045
:1006300099F40E94B802E12CF12C0CEF12E020E0BA
:1006400040E653EE66E170E081E00E942B161F91B8
:100650000F91FF90EF9008950E94C302ECCFCF92CC
:10066000DF92EF920F93CF93DF93EC01888181119A
:100670001CC08091C22C813079F41092C22C6E0182
:1006800088E0C80ED11C2A813B814C815D81EF80BE
:100690000E81698180E01FC08330C9F54A815B818A
:1006A0006C817D812E8189812AC0813081F50E94F3
:1006B00029178091C22C8230D1F41092C22C6E0185
:1006C0008EE1C80ED11C288D398D4A8D5B8DED8C45
:1006D0000C8D6F8981E00E94FE1061E082E0DF9165
:1006E000CF910F91EF90DF90CF900C9474188530DC
:1006F00071F4488D598D6A8D7B8D2C8D8F89DF919A
:10070000CF910F91EF90DF90CF900C945710DF9125
:10071000CF910F91EF90DF90CF900895CF93DF931B
:100720001F92CDB7DEB781110CC081E0898340E014
:10073000BE016F5F7F4F82E50E9443280E948D2B90
:1007400003C081E00E9422220F90DF91CF91089593
:10075000882319F081E00C9422220895EF92FF92F1
:100760000F931F938091C42C882389F01092C42C7E
:100770000E94C50980E00E9462080E94A90B0E94A5
:10078000BE081F910F91FF90EF900C94D6028091BC
:10079000C32C811133C00E940808811104C00E943B
:1007A000C50980E033C080919E31811131C08091B4
:1007B0008831909189318130910519F40E94C302EA
:1007C0000AC08230910519F40E94AD0204C0892B41
:1007D00011F40E94B8028091C32C8823C9F00E94B2
:1007E0006208E12CF12C0EEC12E020E040E856E922
:1007F00068E970E081E00E942B160AC00E94080898
:10080000811102C00E94C5098091C32C0E94620818
:1008100089E495E29F938F930E94724D8091C32C3F
:100820000F900F90813019F486E595E20EC082306A
:1008300019F480E695E209C0833019F48AE695E25E
:1008400004C00E94D60286E795E20E948C4D0E9469
:10085000A90B0E94BE081092C12C1F910F91FF900E
:10086000EF90089508954F925F926F927F928F92CA
:100870009F92AF92BF92CF92DF92EF92FF920F932F
:100880001F93CF93DF93CDB7DEB76997CDBFDEBFA0
:100890005C010091233410912434000F111F81E07A
:1008A00090E06C010090253402C0CC0CDD1C0A9451
:1008B000E2F78EE795E20E948C4DF50180811F9250
:1008C0008F938AE895E29F938F930E94724DF50172
:1008D00080811F928F938AEA95E29F938F930E9463
:1008E000724DF4E1CF9E60011124CDBFDEBF512CCB
:1008F000F12C30E0E12CFE0131963F0140E2442E24
:1009000050EE852E55E2952EF5012181E21608F074
:100910004FC0F8E0FF1202C05394F12CF501E50D31
:10092000F11D828190E00F2C02C0959587950A9465
:10093000E2F7F39441E0430F632F70E080FD02C0C3
:1009400080E301C081E3F301E60FF71F80834530A8
:1009500021F04B3011F0413131F4F301E40FF11D7E
:10096000408242E0430F473141F08E2D90E030E06D
:100970002150310982179307C1F4F301E40FF11DEF
:1009800010827F926F921F921F92C80117FD0196ED
:10099000959587959F938F939F928F920E94724D0A
:1009A0000C0D1D1DCDBFDEBF40E0E394342FACCF56
:1009B0008DEE95E20E948C4D8AE090E00E94864D7B
:1009C0006996CDBFDEBFDF91CF911F910F91FF9050
:1009D000EF90DF90CF90BF90AF909F908F907F90DF
:1009E0006F905F904F900895CF92DF92EF920F93A8
:1009F0008091C22C8230A9F41092C22CC12CD12C2F
:100A0000E12C00E02FEF3FEFA90168E181E00E94B7
:100A1000FE1061E082E00F91EF90DF90CF900C9498
:100A20007418853059F420E04FEF5FEFBA0188E188
:100A30000F91EF90DF90CF900C9457100F91EF90A3
:100A4000DF90CF9008958627082E8295807F80259D
:100A5000092E982F82958F700826869598278927CA
:100A6000880F880F880F80250895FC011382148257
:100A700015821682178210861186128616861786B0
:100A8000108A118A128A138A148A158A80919E31DB
:100A90008130A1F018F0823009F156C082E08083E5
:100AA000662329F080918A3190918B3104C0809126
:100AB000D4329091D532838394833DC082E0808389
:100AC000662329F080918A3190918B3104C0809106
:100AD000D4329091D5328383948363C083E0808342
:100AE000662389F070918C3160918D3150918E31F7
:100AF00040918F313091903120919131909192318C
:100B00008091933110C07091C8326091C932509178
:100B1000CA324091CB323091CC322091CD3290917B
:100B2000CE328091CF32738364835583468337837B
:100B300020879187828782E083878091943190918A
:100B400095318687978747C083E08083662389F045
:100B500070918C3160918D3150918E3140918F31F7
:100B600030919031209191319091923180919331D7
:100B700010C07091C8326091C9325091CA32409110
:100B8000CB323091CC322091CD329091CE328091C7
:100B9000CF3273836483558346833783208791875D
:100BA000828783E08387709196316091973150916D
:100BB00098314091993130919A3120919B319091A7
:100BC0009C3180919D3176876787508B418B328B2A
:100BD000238B948B858B8091D6329091D7328183F1
:100BE0009283848795870895AF92BF92CF92DF92C8
:100BF000EF92FF920F931F93CF93DF93CDB7DEB7A2
:100C00006297CDBFDEBF8E010F5F1F4F7E0183E174
:100C1000E80EF11CD02EC12E580180E090E00E9419
:100C20001212F80181938F018D30A1F4F501108229
:100C30008D2D9C2D0E94B64B6296CDBFDEBFDF91FD
:100C4000CF911F910F91FF90EF90DF90CF90BF90C9
:100C5000AF9008958A3051F3EE15FF0539F360E047
:100C600070E00E94EF11D8CF5F926F927F928F92C7
:100C70009F92AF92BF92CF92DF92EF92FF920F932B
:100C80001F93CF93DF93DC0120E030E040E050E0A1
:100C900060E070E080E090E0ED91EE2381F101E012
:100CA0000E94DB48522E632E742E852E962ED72F4F
:100CB000C82FF92F02E00E94DB4859016A017B012D
:100CC0008C01252D362D472D582D692D7D2F8C2FEC
:100CD0009F2F0E94124959016A017B018C010E2E3F
:100CE000000CFF0BF0979F2F990F990B9F01492F35
:100CF000592F692F792F892F0E941249CDCFDF916B
:100D0000CF911F910F91FF90EF90DF90CF90BF9008
:100D1000AF909F908F907F906F905F900895AF926B
:100D2000BF92CF92DF92EF92FF920F931F93CF93D8
:100D3000DF93CDB7DEB76297CDBFDEBF8E010F5F09
:100D40001F4F7E0183E1E80EF11CD02EC12E580109
:100D500080E090E00E941212F80181938F018D30A3
:100D6000A1F4F50110828D2D9C2D0E94340662960F
:100D7000CDBFDEBFDF91CF911F910F91FF90EF901C
:100D8000DF90CF90BF90AF9008958A3051F3EE1569
:100D9000FF0539F360E070E00E94EF11D8CF0F93A8
:100DA00090919E319130F1F020F0923009F459C0C9
:100DB000B8C0882331F080918B318F9380918A3134
:100DC00005C08091D5328F938091D4328F938DEF6F
:100DD00095E29F938F930E94724D0F900F900F900A
:100DE0000F908EC0882331F080918B318F9380914A
:100DF0008A3105C08091D5328F938091D4328F9300
:100E00008DEF95E29F938F930E94724D0F900F90FC
:100E10000F900F90209196313091973140919831F9
:100E20005091993160919A3170919B315F934F93BA
:100E30003F932F9380919C3190919D3100E20E94CD
:100E4000F6485F934F933F932F9383E096E29F93EF
:100E50008F930E94724D8DB79EB70A968DBF9EBF2D
:100E6000D5C0882339F120918C3130918D3140915A
:100E70008E3150918F3160919031709191315F93AB
:100E80004F933F932F93809192319091933100E251
:100E90000E94F6485F934F933F932F9383E096E22F
:100EA0009F938F930E94724D8DB79EB70A968DBF08
:100EB0009EBF26C02091C8323091C9324091CA32BB
:100EC0005091CB326091CC327091CD325F934F9381
:100ED0003F932F938091CE329091CF3200E20E94C7
:100EE000F6485F934F933F932F9383E096E29F934F
:100EF0008F930E94724D8DB79EB70A968DBF9EBF8D
:100F0000809195318F93809194318F938DEF95E2FD
:100F10009F938F930E94724D0F900F900F900F90A0
:100F200075C0882339F120918C3130918D314091F9
:100F30008E3150918F3160919031709191315F93EA
:100F40004F933F932F93809192319091933100E290
:100F50000E94F6485F934F933F932F9383E096E26E
:100F60009F938F930E94724D8DB79EB70A968DBF47
:100F70009EBF26C02091C8323091C9324091CA32FA
:100F80005091CB326091CC327091CD325F934F93C0
:100F90003F932F938091CE329091CF3200E20E9406
:100FA000F6485F934F933F932F9383E096E29F938E
:100FB0008F930E94724D8DB79EB70A968DBF9EBFCC
:100FC00020919631309197314091983150919931DB
:100FD00060919A3170919B315F934F933F932F9320
:100FE00080919C3190919D3100E20E94F6485F9380
:100FF0004F933F932F9383E096E29F938F930E94AA
:10100000724D8DB79EB70A968DBF9EBF0F91089502
:10101000DF92EF92FF920F931F93CF93DF93CDB7A1
:10102000DEB7AC97CDBFDEBF8E010F5F1F4F9801BB
:101030004CE250E060E170E080E00E941F148538CF
:1010400011F480E034C0780180E090E02CE2D22EF0
:10105000D00EF70161917F010E942305DE10F9CFC8
:10106000892B79F78CE2F801A6E8B1E301900D92A3
:101070008A95E1F78EE0FE017A96A1E2B4E3019051
:101080000D928A95E1F740E0BE01685D7F4F80E0F8
:101090000E94432840E0B80180E50E94432840E0D8
:1010A000BE016D5F7F4F83E50E94432881E0AC96CF
:1010B000CDBFDEBFDF91CF911F910F91FF90EF90D9
:1010C000DF9008952EEF3AEC2093863130938731EC
:1010D0009DE790938C315CE550938D3147E14093CF
:1010E0008E319FEF90938F319093903135E2309312
:1010F000913124E020939231109293316DE9609305
:1011000096315093973140939831909399319093C1
:101110009A3130939B3120939C3110929D311092E3
:101120009E31813059F481E090E080938831909332
:10113000893110928A3110928B3119C0823069F452
:1011400082E090E0809388319093893110928A31C7
:1011500010928B3181E090E00CC010928831109297
:10116000893181E090E080938A3190938B3182E0E5
:1011700090E080939431909395310895DF92EF92AF
:10118000FF920F931F93CF93DF93CDB7DEB7AC974A
:10119000CDBFDEBF8CE2E6E8F1E38E010F5F1F4FAB
:1011A000D80101900D928A95E1F78EE0E1E2F4E337
:1011B000DE015A9601900D928A95E1F78091D63220
:1011C0009091D73289839A838091D4329091D5328D
:1011D0008B839C838091DB3288A71BA61CA6780199
:1011E0008AE2D82ED00EF70161917F018BA59CA5D4
:1011F0000E9423058BA79CA7DE10F5CFA8016CE207
:1012000070E080E190E00E946114AC96CDBFDEBF3B
:10121000DF91CF911F910F91FF90EF90DF90089594
:1012200081E196E20E948C4D8BE296E20E948C4D09
:101230008BE596E20E948C4D8AE896E20E948C4DE6
:1012400089EB96E20E948C4D87EE96E29F938F93F6
:101250000E94724D0E94F40599270F900F908430E0
:10126000910524F480939E3181E0089580E00895F3
:10127000CF93DF931F921F92CDB7DEB78BE097E23B
:101280009F938F930E94724D0E94F40589839A83E5
:101290000F900F90029748F440E0BE016F5F7F4FC0
:1012A00087E00E94B52C81E001C080E00F900F9094
:1012B000DF91CF910895CF93DF931F921F92CDB707
:1012C000DEB78FE297E29F938F930E94724D0E9448
:1012D000F40589839A830F900F90029748F440E0B9
:1012E000BE016F5F7F4F8BE00E94B52C81E001C093
:1012F00080E00F900F90DF91CF910895CF93DF930F
:101300001F921F92CDB7DEB784E797E29F938F932A
:101310000E94724D0E94F40589839A830B970F9067
:101320000F90409748F440E0BE016F5F7F4F80E030
:101330000E94432881E001C080E00F900F90DF9170
:10134000CF910895CF93DF931F921F92CDB7DEB751
:101350008EE797E29F938F930E94724D0E94F4054F
:1013600089839A830F900F90029748F440E0BE0162
:101370006F5F7F4F86E00E94B52C81E001C080E066
:101380000F900F90DF91CF910895CF93DF93C6E830
:10139000D1E38AE18FA38EE0E1E2F4E3AFE9B1E3C8
:1013A00001900D928A95E1F785E088A719A6DF9153
:1013B000CF910895CF93DF931F921F92CDB7DEB7E1
:1013C00083EB97E29F938F930E94724D0E94F405E6
:1013D00089839A8340E0BE016F5F7F4F82E00E9465
:1013E000B52C81E00F900F900F900F90DF91CF916F
:1013F00008951F9280E18F938DEB97E29F938F93D7
:101400000E94724D0E94F4059C01215031090F90F9
:101410000F900F900F902031310510F081E090E097
:101420008093AE3181E0089583EF97E20E948C4D66
:101430008BE198E20E948C4D8DE398E20E948C4DE6
:101440008EE598E20E948C4D80E898E20E948C4DD7
:1014500087EB98E20E948C4D1F9284E08F931F923D
:101460001F9289ED98E29F938F930E94724D0E9484
:10147000F4050F900F900F900F900F900F90853004
:10148000910510F080E090E08093AF3181E0089505
:10149000CF93DF931F921F92CDB7DEB78EEF98E206
:1014A0009F938F930E94724D0E94F40589839A83C3
:1014B0000F900F90049748F440E0BE016F5F7F4F9C
:1014C00083E00E94B52C81E001C080E00F900F9076
:1014D000DF91CF910895CF93DF931F921F92CDB7E5
:1014E000DEB787E099E29F938F930E94724D0E942E
:1014F000F40589839A8340E0BE016F5F7F4F84E0EB
:101500000E94B52C81E00F900F900F900F90DF910B
:10151000CF91089580E199E29F938F930E94724D3D
:101520000E948F06E6E8F1E32683378340875187E0
:1015300062877387848795870F900F9081E0089565
:101540008BE499E29F938F930E94724D0E94F40561
:1015500080938A3190938B310F900F9081E00895A2
:10156000CF93DF931F921F92CDB7DEB787E899E242
:101570009F938F930E94724D0E94F40589839A83F2
:1015800040E0BE016F5F7F4F80E50E94432881E00D
:101590000F900F900F900F90DF91CF910895CF9300
:1015A000DF931F921F92CDB7DEB78FE999E29F9329
:1015B0008F930E94724D0E94F40589839A830F9045
:1015C0000F90029748F440E0BE016F5F7F4F88E0C4
:1015D0000E94B52C81E001C080E00F900F90DF9158
:1015E000CF910895CF93DF931F921F92CDB7DEB7AF
:1015F00087EC99E29F938F930E94724D0E94F405AD
:1016000089839A830F900F90029748F440E0BE01BF
:101610006F5F7F4F8AE00E94B52C81E001C080E0BF
:101620000F900F90DF91CF9108958FEF99E29F93E4
:101630008F930E94724D0E948F06E6E8F1E3208BA3
:10164000318B428B538B648B758B868B978B0F9072
:101650000F9081E0089587E29AE29F938F930E9412
:10166000724D0E94F40580939431909395310F90C0
:101670000F9081E00895CF93DF931F921F92CDB713
:10168000DEB780E59AE29F938F930E94724D0E948D
:10169000F40589839A8340E0BE016F5F7F4F83E545
:1016A0000E94432881E00F900F900F900F90DF91E0
:1016B000CF910895CF93DF931F92CDB7DEB783E725
:1016C0009AE29F938F930E94724D0E94F4050F90AF
:1016D0000F90803E2FEF920744F0803291053CF44A
:1016E00097FF06C08F71806203C080E201C08FE166
:1016F000898340E0BE016F5F7F4F89E00E94B52C77
:1017000081E00F90DF91CF910895CF93DF931F92E7
:101710001F92CDB7DEB783E99AE29F938F930E9421
:10172000724D0E94F405992789839A830F900F9038
:1017300002974CF440E0BE016F5F7F4F85E00E944E
:10174000B52C81E001C080E00F900F90DF91CF9128
:1017500008950F931F93CF93DF9300D01F92CDB7BF
:10176000DEB740E06DEA71E380E00E94432806E8BE
:1017700011E3F801908181819B838C8340E0BE015D
:101780006D5F7F4F80E50E944328F801928183813D
:1017900099838A8340E0BE016F5F7F4F83E50E949B
:1017A00043282496CDBFDEBFDF91CF911F910F91CB
:1017B0000895FB01DC014D915D916D917C918081DB
:1017C0009181A281B38184179507A607B70718F006
:1017D0008FEF9FEF089581E090E008958091C12CF4
:1017E000882359F08091C22C833011F484E003C027
:1017F000853019F486E08093C22C0895EF92FF9211
:101800000F931F93CF93DF93CDB7DEB76B97CDBF09
:10181000DEBFF82EE62E682FCE0101960E94350518
:10182000188E198E1A8E1B8ECE0148960E94711545
:101830000091BC2C10E0000F111F0354134D688D54
:10184000798D8A8D9B8D28EE33E040E050E00E9438
:10185000A648F80120833183CE0101960E94CC2B4B
:101860008823A9F0E092C22C60E082E00E94741804
:10187000FF2079F0E12CF12C04EF14E020E040E4AB
:1018800052E46FE070E081E00E942B1602C01092DB
:10189000C22C6B96CDBFDEBFDF91CF911F910F9110
:1018A000FF90EF9008952F923F924F925F926F9228
:1018B0007F928F929F92AF92BF92CF92DF92EF92E0
:1018C000FF920F931F93CF93DF93CDB7DEB7C05531
:1018D000D109CDBFDEBF4A015B01722E9091372D39
:1018E000911139C0803191F581E08093372DE6EF79
:1018F000FCE2A6EEBCE281929192A192B1927D921D
:101900008DE2E633F807B9F78091F62C9091F72C29
:10191000A091F82CB091F92C8093E22C9093E32CB9
:10192000A093E42CB093E52C8091E62C8093E12CDD
:10193000E091BC2CF0E0EE0FFF1FE354F34D8081EB
:1019400091818093BF2C9093C02C9AC382EA9AE233
:101950000E948C4D95C3E091BC2CEE2319F0AFEFA3
:10196000AE0F01C0A1E0F0E0EE0FFF1FE354F34D16
:10197000B0E0AA0FBB1FA354B34D608171818D915C
:101980009C91681B790B6093C52C7093C62C409179
:10199000362DE42EF12C0091E22C1091E32C2091B5
:1019A000E42C3091E52CF701EE0FFF1FEE0FFF1F27
:1019B000DF01AA50B34D6D010D931D932D933C9300
:1019C0001397BFEF8B169B06AB06BB0609F444C00A
:1019D00089E0871508F042C058EC569FC001579F18
:1019E000900D112468EE73E00E947E48CB01A0E0C8
:1019F000B0E01C012D01200E311E421E531E281482
:101A000039044A045B0440F4D6012D923D924D9274
:101A10005C92139784E023C080179107A207B30755
:101A200088F4081B190B2A0B3B0B80169106A206A3
:101A3000B30640F4D6010D931D932D933C93139759
:101A400083E00DC0DF01AA50B34D8D929D92AD92FF
:101A5000BC92139780E003C081E001C082E08093D4
:101A6000C72CD701AA51B34D7C92AFEFA40FAF7032
:101A700084E0A89FD0011124AA50B34DEA50F34D41
:101A80000D911D912D913C9180819181A281B38115
:101A9000800F911FA21FB31FB695A79597958795A5
:101AA0008093D92C9093DA2CA093DB2CB093DC2C70
:101AB000ADEFA40FAF7094E0A99FD0011124AA50FC
:101AC000B34DEEEFE40FEF7084E0E89FF0011124D6
:101AD000EA50F34D0D911D912D913C9180819181A2
:101AE000A281B381800F911FA21FB31FB695A79546
:101AF000979587958093DD2C9093DE2CA093DF2C17
:101B0000B093E02C1091AE318091AF318230D1F0A2
:101B100020F48130E1F4212F92C0833039F08430F9
:101B2000B1F450E080E090E0DC01B5C1512FE12C30
:101B3000F12C04E660E070E0CB0188248A94982CB4
:101B4000540140C154E68FEF9FEFDC0112C1212FF9
:101B5000E12CF12C60E070E0CB012223E9F0A42F0E
:101B6000B0E0FD01EE0FFF1FEE0FFF1FEA50F34D37
:101B70004080518062807380640D751D861D971DA5
:101B8000FD01EA51F34D3081E30EF11C411101C01A
:101B900040E141502150E1CF212F30E040E050E0C2
:101BA0000E94A6482093E22C3093E32C4093E42C2F
:101BB0005093E52CB70180E090E00E94E5466B0170
:101BC0007C01612F70E080E090E00E94E7469B017D
:101BD000AC01C701B6010E943D460E944A4838C187
:101BE000822F90E00197642F70E0FC01EE0FFF1F41
:101BF000EE0FFF1FA1E0B0E0AC0FBD1FEA0FFB1F0F
:101C0000DB01AA0FBB1FAA0FBB1FAA50B34DCD907B
:101C1000DD90ED90FC90C082D182E282F382E1E41B
:101C2000F0E0EC0FFD1FE80FF91FDB01AA51B34DE7
:101C30003C913083411101C040E1415021502111BC
:101C4000CFCFE12EE694C12ED12C29ED3BE044E02C
:101C500050E0B601CE0101960E949249F12C012F6D
:101C6000017010FF10C0F701EE0FFF1FEE0FFF1FF6
:101C700081E090E08C0F9D1FE80FF91F808191811A
:101C8000A281B38120C0C7018150904C880F991F59
:101C9000880F991FA1E0B0E0AC0FBD1FA80FB91FBE
:101CA000FE01E80FF91F4D915D916D917C91858149
:101CB0009681A781B085840F951FA61FB71FB69583
:101CC000A795979587958093E22C9093E32CA0930A
:101CD000E42CB093E52C29ED3BE041E050E0B60167
:101CE000CE018F5B9F4F0E949249002341F0E1E4B7
:101CF000F0E0EC0FFD1FEE0DFF1D808119C0E0E448
:101D0000F0E0EC0FFD1FEE0DFF1D2081E1E4F0E09F
:101D1000EC0FFD1FEE0DFF1D808190E0820F911DE5
:101D2000092E000CAA0BBB0BB695A7959795879526
:101D30008093E12CBCC0642F70E09B01220F331F05
:101D4000220F331F2A50334DF901C080D180E28029
:101D5000F380C816D906EA06FB0630F4FB01EA5107
:101D6000F34D5081D701C601411101C040E14150FE
:101D700011501111E0CF91C0242F30E0F901EE0F86
:101D8000FF1FEE0FFF1FEA50F34D4080518062802D
:101D90007380481459046A047B0410F4530142010F
:101DA000F901EA51F34D2081201708F4022F640D48
:101DB000751D861D971DE20EF11C411101C040E109
:101DC000415051505111D8CF212F30E040E050E028
:101DD0000E94A648CA01B9010E94E5462B013C01B8
:101DE000C501B4010E94E54620E030E0A9010E944F
:101DF000DD479B01AC01C301B2010E94B5450E94C1
:101E0000B6466093E22C7093E32C8093E42C90937D
:101E1000E52C612F70E0C7010E947E487727072ECE
:101E2000000C880B990B0E94E7466B017C01602F28
:101E300070E080E090E00E94E74620E030E0A901F9
:101E40000E94DD479B01AC01C701B6010E94B54568
:101E50000E94B6466093E12C2AC0642F70E09B017B
:101E6000220F331F220F331F2A50334DF901C08038
:101E7000D180E280F3808C159D05AE05BF0530F45E
:101E8000FB01EA51F34D5081D701C601411101C058
:101E900040E1415011501111E0CF8093E22C90931A
:101EA000E32CA093E42CB093E52C5093E12CE0902C
:101EB000C52CF090C62CE114F10409F472C0009115
:101EC000362D0370F4E00F9F800111240753134D4A
:101ED0008091D92C9091DA2CA091DB2CB091DC2C44
:101EE0008090DD2C9090DE2CA090DF2CB090E02C28
:101EF000BC01CD01681979098A099B090E94E7464E
:101F00004B015C01B70180E090E00E94E5469B0137
:101F1000AC01C501B4010E943D4620E030E040E143
:101F200052E40E94DD47D8016D937D938D939C937D
:101F3000139720E030E0A9016091C92C7091CA2C60
:101F40008091CB2C9091CC2C0E94B5452091CD2C2A
:101F50003091CE2C4091CF2C5091D02C0E94B54581
:101F60002091D12C3091D22C4091D32C5091D42C53
:101F70000E94B5452091D52C3091D62C4091D72C7C
:101F80005091D82C0E94B54520E030E040E85EE357
:101F90000E94DD470E944A480E94AF466093C82CC9
:101FA00002C01092C82C8091C82C8F3F24F0823040
:101FB00024F490E203C091E401C09CE4FF92EF920C
:101FC0002091E12C1F922F931F929F93282F082E70
:101FD000000C330B3F938F938091E52C8F9380916E
:101FE000E42C8F938091E32C8F938091E22C8F933C
:101FF00089EA9AE29F938F930E94724DCDBFDEBF14
:102000008091C72C882341F081EE9AE29F938F93B1
:102010000E94724D0F900F908091C72C823071F00A
:1020200018F4813041F004C0833059F0843061F0FD
:1020300080E290E00BC084E590E008C084E490E08A
:1020400005C083E590E002C08CE490E00E94864DDC
:102050008AE090E00E94864D8091362D8F5F80311E
:1020600019F08093362D02C01092362D8091BC2C31
:102070008F5F823019F08093BC2C02C01092BC2C70
:10208000C05BDF4FCDBFDEBFDF91CF911F910F91BE
:10209000FF90EF90DF90CF90BF90AF909F908F9088
:1020A0007F906F905F904F903F902F900895EF92A8
:1020B000FF920F931F930E94530CE12CF12C0EEE14
:1020C0001BE020E040EA56E861E070E082E00E9418
:1020D0002B1661E082E01F910F91FF90EF900C941E
:1020E0007418EF92FF920F931F93CF93DF93CDB7A6
:1020F000DEB76797CDBFDEBF182F682FCE010196E0
:102100000E943505112321F0809121208F8B01C081
:102110001F8A1092362D1092BC2C1092372D809170
:10212000C12C882331F0112311F086E022C084E015
:1021300020C0CE0101960E94CC2B8823E1F060E004
:1021400082E00E947418112399F082E08093C22CDF
:1021500081E00E942917E12CF12C04EF14E020E02B
:1021600040E452E46FE070E081E00E942B1603C06F
:1021700081E08093C22C6796CDBFDEBFDF91CF9107
:102180001F910F91FF90EF900895863121F178F41F
:102190008231F1F028F4813169F589EE9AE22CC0A0
:1021A0008431E1F0853131F583E29BE225C089314C
:1021B000C1F038F48731C1F08831E1F486E69BE262
:1021C0001BC0813EA1F0893EA9F48AE09CE214C0C4
:1021D0008FE09BE211C086E49BE20EC08BE89BE29D
:1021E0000BC086EA9BE208C08FEB9BE205C08AED3C
:1021F0009BE202C08AE19CE20C948C4D4F925F926C
:102200006F927F928F929F92AF92BF92CF92DF9206
:10221000EF92FF920F931F93CF93DF93982ED62FB9
:10222000122FF32EB42EA52E603109F08CC081E35D
:102230009CE29F938F930E94724D1F920F93AF92D7
:10224000BF92FF921F938AE39CE29F938F930E9419
:10225000724D892D0E94CF068AE090E00E94864D43
:102260008DB79EB70A968DBF9EBFE11022C083E452
:102270009CE20E948C4D8AE49CE20E948C4DE1100D
:102280004AC0AF92BF92FF921F9385E79CE29F9353
:102290008F930E94724D1F920F9381E99CE29F934E
:1022A0008F930E94724D8DB79EB70A968DBF9EBFC9
:1022B00085C0E60124964E2C512CC12CD12C86E5EC
:1022C000682E8CE2782E93E6892E9CE2992EDF927E
:1022D000CF927F926F920E94724D88811F928F934E
:1022E000FE01349783818F9382818F9381818F93B5
:1022F00080818F939F928F920E94724D9FEFC91A97
:10230000D90A25968DB79EB70C968DBF9EBFC41473
:10231000D504E9F6ACCFAF92BF92FF921F938CE643
:102320009CE29F938F930E94724D1F920F9388E8B7
:102330009CE29F938F930E94724D8DB79EB70A9631
:102340008DBF9EBF3BC08FE99CE29F938F930E94FD
:10235000724D87EA9CE29F938F930E94724D892D64
:102360000E94CF061F92DF9384EB9CE29F938F9392
:102370000E94724D83E49CE20E948C4D1F92DF9379
:102380008EEA9CE29F938F930E94724D8DB79EB709
:102390000C968DBF9EBF8D2FDF91CF911F910F9116
:1023A000FF90EF90DF90CF90BF90AF909F908F9075
:1023B0007F906F905F904F900C94C510DF91CF91FC
:1023C0001F910F91FF90EF90DF90CF90BF90AF9053
:1023D0009F908F907F906F905F904F900895CF93D4
:1023E000DF931F92CDB7DEB78A3061F48DE0898329
:1023F00041E0BE016F5F7F4F80E00E94741388232D
:10240000B9F38AE0898341E0BE016F5F7F4F80E0CE
:102410000E9474138823B9F380E090E00F90DF915D
:10242000CF910895CF93DF931F92CDB7DEB741E0F0
:10243000BE016F5F7F4F80E00E947D138823B9F358
:1024400089818D3011F48AE08983898190E00F9031
:10245000DF91CF910895CF93DF931F92CDB7DEB771
:1024600041E0BE016F5F7F4F80E00E947D138130AD
:1024700019F4898190E002C08FEF9FEF0F90DF91F8
:10248000CF9108950F931F93CF93DF938C01EB01AE
:102490001C161D0664F44C2FB80180E00E947413D2
:1024A000282F30E0C21BD30B020F131FF1CFDF9197
:1024B000CF911F910F9108950F931F938B019C0152
:1024C000DC01CB019E5EA548BF4FBC01CD0142E0BF
:1024D000660F771F881F991F4A95D1F7A9019801A8
:1024E000E3E0220F331F441F551FEA95D1F70E94E6
:1024F000A64821503109E0E6F6E088E0818384E0D7
:10250000828382898861828BE0EAF9E037832683BF
:102510008CE1848383E085838CE383831F910F9117
:102520000895CF93DF93482F2091A309237F209311
:10253000A309E0919C3230919D323E1710F027ECB8
:1025400001C02FEF2E0F231B822F621708F4862F56
:10255000A42FB92F282F222391F090919D323D91E5
:10256000C92FD0E0C653DE4C3883973C19F4109243
:102570009D3203C09F5F90939D322150ECCF90918C
:10258000A032911109C0F0E0E653FE4C9081909387
:10259000A00991E09093A0329091A3099C60909340
:1025A000A309DF91CF910895DC018091A1328823A6
:1025B000A9F19091A3099F7C9093A3098A3058F0C8
:1025C00080919F3280939E328AE08093A1326A305C
:1025D00028F06AE003C0861708F4682F262F22230C
:1025E000B9F0E0919E32F0E0EE56FD4C80818D9383
:1025F00090919E329F5F90939E323091A1323150E4
:102600003093A13221509A3051F710929E32E7CF89
:102610008091A30980638093A309862F08951F9258
:102620000F920FB60F9211240BB60F928F939F93B8
:10263000EF93FF9380919F329091A1329F5F90938F
:10264000A1329091A009E82FF0E0EE56FD4C908366
:10265000893019F410929F3203C08F5F80939F32AC
:10266000FF91EF919F918F910F900BBE0F900FBE36
:102670000F901F9018951F920F920FB60F92112472
:102680000BB60F928F93EF93FF9380919C32873C10
:1026900019F410929C3203C08F5F80939C32E091BA
:1026A0009C3280919D32E81739F0F0E0E653FE4C01
:1026B00080818093A00902C01092A032FF91EF9117
:1026C0008F910F900BBE0F900FBE0F901F9018951B
:1026D000811108C060E076E980E090E00E945C1221
:1026E00080E0089585E808959B01811104C0642F5E
:1026F000C9010C94911280E008959B01811104C0DE
:10270000642FC9010C94D41280E008958093382D71
:102710009093392DE0E4F6E081E0828B94E092879B
:10272000848708951F920F920FB60F9211240BB653
:102730000F922F933F934F935F936F937F938F935A
:102740009F93AF93BF93EF93FF93E091382DF09158
:10275000392D1995FF91EF91BF91AF919F918F9175
:102760007F916F915F914F913F912F910F900BBE91
:102770000F900FBE0F901F9018952091CF0127FD4D
:10278000FCCF1092C2019093C1018093C00186E0FA
:102790008093CA01EBECF1E021E030E088ED90E0BD
:1027A00084BF20838091C401089520E043E068E065
:1027B00083E00E949A1925E040E067E083E00E94F0
:1027C0009A1980EC80935200809150008860809329
:1027D00050008091510083FFFCCF82EC8093550024
:1027E000809150008061809350008091510084FF5F
:1027F000FCCF88ED84BF84E08093400008950E9460
:1028000047180E94F2180E94D5130E944B150E948F
:1028100038180E94411821E030E088ED90E084BF34
:102820002093800080E008950C94F015AAECB1E0AC
:1028300091E09C93E82FF0E084911C920895EF9230
:10284000FF920F931F93CF93DF93811119C0CB0198
:10285000840F951F8130904160F58901040F151F89
:10286000E9017B01E21AF30AC017D10739F0CE0162
:102870008E0D9F1D0E94BD138993F6CF80E01AC074
:102880008230A9F4CB01840F951F8130924088F4E7
:102890008901040F151FE901F62EF21AC017D1079E
:1028A00069F38C2F8F0D0E9416148993F7CF88EE51
:1028B00001C085E8DF91CF911F910F91FF90EF90BC
:1028C00008955F926F927F928F929F92AF92BF9284
:1028D000CF92DF92EF92FF920F931F93CF93DF93EC
:1028E000EC018C01060F171F013020E1120708F0E0
:1028F0003FC07A0183E3782E95E3692E28EDC22E3E
:10290000D12CAA24A394B12C4BEC842E992493941B
:1029100056E3552EC017D10749F1CE010E94BD13D1
:10292000F70191917F018917F9F08C2F2091CF0148
:1029300027FDFCCF2091CF0121FF06C05092CA0194
:102940009601F40124BFA0827092CA018093C00155
:102950001092C1011092C2019093C4016092CA0109
:102960009601F40124BFA0822196D4CF80E001C05B
:1029700085E8DF91CF911F910F91FF90EF90DF904D
:10298000CF90BF90AF909F908F907F906F905F900F
:102990000895109204068FEF80930106CFEF8FEF1A
:1029A0009FEF0E947D15C0930706F9CF0F931F93E9
:1029B0008091A2329091A3326091200870912108F9
:1029C0002091A2323091A3328217930789F7A0E0B9
:1029D000B0E0DC0199278827AB0160E070E08C0152
:1029E0009D01042B152B262B372BC901B8011F91F4
:1029F0000F9108950F931F93CF93CFB7F894E09161
:102A00003C2DEF3F09F442C029E0E29FF001112480
:102A1000EC55FD4C80819181A281B3812091A2323D
:102A20003091A3322A173B0769F4809328089093CA
:102A3000290880910C08806180930C088091070818
:102A4000836003C0809107088C7F809307080E94F1
:102A5000D614E0913C2D29E0E29FF0011124EC55C1
:102A6000FD4C0081118122813381DC01CB01801B6F
:102A7000910BA20BB30B0196A11DB11D8F3F9F4F70
:102A8000AF4FBF4718F481E080933D2DCFBFCF916A
:102A90001F910F91089510923E2D10923D2D10928E
:102AA000A2321092A3328FEF80933C2D80933B2D66
:102AB00080933A2DE4EAF2E3808714821582818BB9
:102AC00015861686828F168A178A0C945C188111D7
:102AD00002C088E001C08AE080930008809340082B
:102AE0000895CF93DF93EC010E94D6146883798315
:102AF0008A839B83DF91CF9108954FB7F8948630F6
:102B0000910518F12091200830912108820F931F20
:102B100020912008309121082817390740F420918E
:102B200020083091210828173907C8F30EC02091DA
:102B300020083091210882179307C8F320912008BC
:102B40003091210828173907C8F34FBF089529E0AD
:102B5000829FC0011124FC01EC55FD4C81E02481D1
:102B60003581232B09F480E0089580913D2D882341
:102B7000B1F110923D2D90913E2D992381F18091DC
:102B80003B2DA0913A2DE0913C2D8F3F39F4AF3F82
:102B900029F4E0933A2DE0933B2D0AC089E0A89FE9
:102BA000D0011124AC55BD4C1896EC93E0933A2D0E
:102BB00089E08E9FF0011124EC55FD4C2085209377
:102BC0003C2DE0913A2D8E9FF0011124EC55FD4CE7
:102BD0008FEF8087915090933E2D0C94FA140895B6
:102BE000CF93DF93CFB7F8940E94B515CFBFC9E05C
:102BF000DFEF80913B2D8F3F59F18FB7F894A09173
:102C00003B2DCA9FD0011124AC55BD4C18969C9108
:102C100018971496ED91FC91159716962D913C916D
:102C200017971896DC93189714961D921C92159777
:102C300016961D921C92179790933B2D9F3F11F46F
:102C400090933A2D8FBF3097A1F2C9011995D1CF3A
:102C5000DF91CF9108952F923F924F925F926F92A2
:102C60007F928F929F92AF92BF92CF92DF92EF921C
:102C7000FF920F931F93CF93DF9300D000D0CDB777
:102C8000DEB7282E4A015B0182E0482E421408F488
:102C9000C3C00115110509F4C3C0C22CD12C39E001
:102CA000239EF0011124EC55FD4C84819581892BE4
:102CB00009F0B4C029830E94D6142981222319F077
:102CC0002130B1F0ADC02401350140E8441A51086B
:102CD0006108710850E845165FEF550665065FE725
:102CE000750608F09FC0860E971EA81EB91E15C057
:102CF00024013501F0E84F1A510861087108A30159
:102D00009201261B370B480B590BDA01C901803899
:102D10009F4FAF4FBF4708F085C03FB6F8940E9461
:102D2000B51530913C2D90913E2D3F3F21F0E32F82
:102D3000832F1E8220C020923C2D89E08C9DF001C3
:102D40008D9DF00D1124EC55FD4C30870DC02C9D50
:102D5000D0012D9DB00D1124AC55BD4C18968C930F
:102D6000381329C020923C2D81E03DC08F3F39F4BB
:102D70005E815F5F5E836E816913F8CF23C029E0B7
:102D8000289FD0011124AC55BD4C4D915D916D91A2
:102D90007C91139724013501441A550A660A770A73
:102DA0004FEF4416540664064FE7740680F6E82F8A
:102DB00018968C91DDCF2E9FF0011124EC55FD4C1F
:102DC000208610C089E08E9FF0011124EC55FD4C47
:102DD00020868C9DF0018D9DF00D1124EC55FD4C4D
:102DE0008FEF808780E029E02C9DF0012D9DF00D74
:102DF0001124EC55FD4C80829182A282B38204831F
:102E00001583E682F7829F5F90933E2D81110E9489
:102E1000FA143FBE80E007C08AE805C088E803C016
:102E200088EE01C08BE82696CDBFDEBFDF91CF9143
:102E30001F910F91FF90EF90DF90CF90BF90AF90D8
:102E40009F908F907F906F905F904F903F902F90CA
:102E50000895EF92FF921F93CF93DF93833008F092
:102E60004CC0C82F1FB7F8940E94B515D0913E2DC5
:102E7000DD2309F444C020913C2D9D2FE22F822FA9
:102E800049E0C8132FC0EC2EF12C89E0C2130DC00D
:102E90008E9DF0018F9DF00D1124EC55FD4C808529
:102EA00080933C2D0E94FA140FC08E9DD0018F9DFF
:102EB000B00D1124AC55BD4C18969C918E9FF0011D
:102EC0001124EC55FD4C908789E08E9DF0018F9D7B
:102ED000F00D1124EC55FD4C8FEF8087D150D0932D
:102EE0003E2D53C0489FF0011124EC55FD4C308518
:102EF0009150E82F21F0832FC4CF8AE850C09091E1
:102F00003B2D292F892F39E08F3FB9F1C8132DC0F0
:102F10004C2F50E080913A2DC91312C0C81304C041
:102F20008FEF80933A2D09C089E0849FF001859F3F
:102F3000F00D1124EC55FD4C808580933B2D25C070
:102F4000E9E0E49FD001E59FB00D1124AC55BD4CE4
:102F500018969C91E29FF0011124EC55FD4C90874E
:102F6000C81313C020933A2D10C0389FF0011124CC
:102F7000EC55FD4C282F8085C7CF80E01FBF811105
:102F800002C089E80CC080E00AC089E0C89FF00157
:102F90001124EC55FD4C1482158281E0EFCFDF91B6
:102FA000CF911F91FF90EF9008951F920F920FB64F
:102FB0000F9211240BB60F922F933F934F935F9371
:102FC0006F937F938F939F93AF93BF93EF93FF93F1
:102FD0008091A2329091A33201968093A232909375
:102FE000A3320E94FA14FF91EF91BF91AF919F918C
:102FF0008F917F916F915F914F913F912F910F90A2
:103000000BBE0F900FBE0F901F9018951F920F923E
:103010000FB60F9211248F9380913E2D882319F0C3
:1030200081E080933D2D8F910F900FBE0F901F90E8
:1030300018950F931F934091A2325091A3320091A3
:1030400068081091690860E070E0BA0155274427CC
:1030500020E030E0402B512B622B732BFC0140838E
:103060005183628373831F910F91089581E00895C6
:1030700085E8809380018093820181E680938101BD
:103080000895E0EAF0E08281846082830895E0E4BC
:10309000F6E0808180618083808180688083808188
:1030A000816080838081806280838081886080836A
:1030B00080818F7B8083089588E0809300088093CF
:1030C000400880EF80930C0880E380934C0883E0F5
:1030D0008093060889E2809343080895E0E0F6E0D3
:1030E00080EE818386830895813021F0823021F43F
:1030F00085E003C087E001C086E0662369F06130A7
:10310000B1F421E030E0A90102C0440F551F8A95B7
:10311000E2F740930506089521E030E0A90102C0DE
:10312000440F551F8A95E2F740930606089521E063
:1031300030E0A90102C0440F551F8A95E2F7409381
:1031400007060895E0EAF6E084E0828388E1828B56
:1031500080E49FE10197F1F708958091A80682FB32
:10316000882780F908952FB7F89494E09093B000E1
:10317000E0EAF6E08BE1838B81858C7F826081873A
:103180009287E0EAF0E082818260828378942FBFA8
:1031900008951F920F920FB60F9211240BB60F9243
:1031A0008F93EF93FF93E0EAF6E082858B7F82872F
:1031B000E8E4F0E080818E7F8083FF91EF918F9132
:1031C0000F900BBE0F900FBE0F901F9018950E948E
:1031D000B318E8E4F0E08081807F85608083789494
:1031E00088950895E0ECF8E080E58083808181682F
:1031F000808380E18093450608952091490690914F
:1032000049069C7F90934906806C90E19093460616
:103210008093C3088091C20887FFFCCF6093C308E6
:103220008091C20887FFFCCF80E180934506209300
:103230004906089520914906909149069C7F9093F4
:103240004906806890E1909346068093C308809178
:10325000C20887FFFCCF1092C3088091C20887FF85
:10326000FCCF8091C30890E19093450620934906D6
:10327000089520E12093460620E22093C308209180
:10328000C20827FFFCCF1092C3086130B1F0FC01E7
:10329000362F380F2091C20827FFFCCF2091C3089A
:1032A0001092C3082193232F2E1B213099F76250CF
:1032B00070E06F5F7F4F860F971F2091C20827FF36
:1032C000FCCF2091C308FC01208380E18093450658
:1032D000089520E12093460620E62093C308FC01D0
:1032E000860F91912091C20827FFFCCF9093C308CD
:1032F0008E13F7CF8091C20887FFFCCF80E18093C7
:1033000045060895CF93DF931F921F92CDB7DEB786
:103310004A8369830E941A196981862390E04A8151
:1033200002C0959587954A95E2F70F900F90DF912F
:10333000CF9108951F93CF93DF9300D0CDB7DEB721
:10334000182F2B834A8369830E941A192B814A8183
:1033500001C0220F4A95EAF76981262360958623EA
:10336000682F622B812F2396CDBFDEBFDF91CF91D7
:103370001F910C94FD1820914906909149069C7F5D
:103380009093490690E19093460690E49093C30889
:103390009091C20897FFFCCF8093C3088091C20828
:1033A00087FFFCCFFB01640F81918093C30880915C
:1033B000C20887FFFCCF6E13F7CF80E180934506EC
:1033C000209349060895000000000000000000005E
:1033D00000000000000000000000000000000000ED
:1033E00000000000000020914906909149069C7F52
:1033F0009093490690E1909346061092C3089091ED
:10340000C20897FFFCCF8093C3088091C20887FF52
:10341000FCCFFB01640F1092C3088091C20887FFA4
:10342000FCCF8091C30881936E13F5CF80E1809328
:1034300045062093490608950F931F93CF93DF937A
:1034400067E08FE39DE20E94BC1A01E61DE2C5E43D
:10345000DDE208831983BE018FE39DE20E94C41A56
:103460000A561F4F24968DE2C136D80791F7DF9197
:10347000CF911F910F91089560E070E08FE39DE27E
:103480000C94E51A009729F0BC018FE39DE20C949F
:10349000C41A08959F92AF92BF92CF92DF92EF929B
:1034A000FF920F931F93CF93DF939FB6F894DC01A5
:1034B00015962C91211103C0C0E0D0E04FC06A01E5
:1034C0005B018C01FC01C081D181452BA1F07E0103
:1034D000209791F3D60112966D917C911397ED91FF
:1034E000FC91888199811995811108C07E010A801B
:1034F000DB81C02DEDCF209759F4DECFAB2871F5DD
:10350000D801ED91FC91CE17DF0769F4E70103C004
:10351000672B21F5FE0182819381D8018D939C93C5
:103520007E01EF0105C08A819B81F701828393832D
:10353000D80112968D919C911397C817D90721F441
:103540001296ED92FC921397F80185818150858344
:1035500080819181892B11F4128213829FBECE014A
:10356000DF91CF911F910F91FF90EF90DF90CF905F
:10357000BF90AF909F900895FC011082118212823B
:103580001382158264830895FC019FB7F8948581A6
:1035900024818217B9F0811103C06083718306C052
:1035A000A281B38112966D937C9313976283738388
:1035B000DB0112961D921C92139785818F5F858384
:1035C00080E001C08CE89FBF0895AB0160E070E02F
:1035D0000C944A1AAB0161E070E00C944A1ACF9344
:1035E000DF93EC018D81882361F060E070E0CE0113
:1035F0000E94E51A009711F41D8203C00E94421A2E
:10360000F1CFDF91CF910895CF93C82F2091E5326C
:103610002F3051F581E08093E93280934C06809100
:1036200049068360809349068FB7F894789498E0B0
:10363000909346069091E9329923E1F38FBF8FE092
:103640000E941A1987E391E20E94861368E08EE0D7
:103650000E94FD1888E08093E532C83009F4DDC08F
:10366000C33009F0DCC0D9C090E0FC013397E731EA
:10367000F10508F0C8C08827E250FF4F8F4F0C9427
:10368000C84863E082E00E94FD188FE00E941A198A
:1036900020E140E06FEF8EE00E949A1920E140E0C7
:1036A0006FEF8EE00E949A198FE08093E532000060
:1036B000000000000000000000000000000000000A
:1036C00000000000000000000000000000000000FA
:1036D00000000000000000000000000000000000EA
:1036E000000000000000000000000000000083E275
:1036F00090E00E947D158091E5329EC08091E53278
:10370000883009F480C068E05BC0283009F47BC0D1
:1037100063E056C08091E5328830C1F020F48630F5
:1037200009F071C005C0863119F0893109F06BC00C
:1037300069E046C08091E532883041F0893009F473
:1037400062C064E082E00E94FD185DC00E94531CCC
:103750005AC08091E532893061F030F4883009F048
:1037600052C00E94531C05C0863119F0893109F0FE
:103770004AC066E025C08091E532883059F020F4D7
:10378000863009F040C008C0893031F0893109F035
:103790003AC002C00E94531C66E112C08091E5321B
:1037A000883059F020F4863009F02DC008C08930E7
:1037B00031F0863109F027C002C00E94531C69E134
:1037C00082E00E94FD1800000000000000000000E0
:1037D00000000000000000000000000000000000E9
:1037E00000000000000000000000000000000000D9
:1037F00000000000000000000000000000000000C9
:1038000000000000000040E06FE181E00E948219AA
:103810008093E5328F31B9F30FC088E00DC08C2F53
:1038200090E0FC013497E631F10568F78827EB5EFC
:10383000FE4F8F4F0C94C848CF9108958091BF32AE
:103840008823E1F08091EA32811118C080917B31A8
:1038500090917C31892B39F486E90E943C1A80933F
:103860007B3190937C3180917B3190917C31892B9D
:1038700029F01092BF3286E10E94041B8091C5326C
:10388000882351F060E070E080EC92E30E94E51A3A
:10389000009711F00E94351D8091EA32823011F4B8
:1038A0000C946D1D0895CF92DF92EF92FF920F93CB
:1038B0001F93CF93DF93CDB7DEB72897CDBFDEBF81
:1038C00040E06FE181E00E948219883009F074C005
:1038D0008FE00E941A198EE00E941A19182F61E0D9
:1038E0008EE00E94FD1800914906809149068C7F68
:1038F0008093490669E082E00E94FD18CE0105969A
:103900000E947115C12CD12C76018091480682FD50
:1039100047C08FEFC81AD80AE80AF80A81EAC81621
:1039200086E8D80681E0E806F104A4F088E00E9469
:10393000041B8830D9F761E08EE00E94FD1869E031
:1039400082E00E94FD18CE0105960E947115C12CDF
:10395000D12C7601CE0101960E94711549815A81C0
:103960006B817C818D819E81AF81B885481B590B0D
:103970006A0B7B0B4B3F51056105710530F28AE103
:103980000E941A19682F80FF02C06E7F01C061601B
:103990008AE10E94FD18CE0105960E947115B5CFEF
:1039A0008FE00E941A1981E080934C06009349062B
:1039B000612F8EE00E94FD182896CDBFDEBFDF91FB
:1039C000CF911F910F91FF90EF90DF90CF900895CE
:1039D000EF92FF920F931F93CF93DF931F92CDB778
:1039E000DEB7E0917B31F0917C31309731F461E0CA
:1039F000CE0101960E94391930C0E080F18041E08B
:103A0000BE016F5F7F4F80E00E94E319698167FD0F
:103A100024C06D5F06E910E0061B11090E0D1F1D85
:103A2000C8010E943919F7010783108760917B3123
:103A300070917C3180EC92E30E94C41A86E90E9466
:103A40003C1A80937B3190937C31892B31F489E04F
:103A50000E94041B81E08093BF320F90DF91CF91D1
:103A60001F910F91FF90EF900895CF93DF939C01EA
:103A7000FC01C081D181AF81B8859C919093E632E1
:103A8000E92FF0E03196EA0FFB1F408191819032DF
:103A900020F4911103C091E001C09FE14295469549
:103AA000469543708FEF489FA0011124949FB00169
:103AB000959F700D1124CB016DE570E00E947E484A
:103AC0006F3F710511F008F06FEF608329833A832F
:103AD000CE01DF91CF910C94662D1092EA32E091E5
:103AE0007D31E83028F4F0E0EE5AFF4D808101C0CE
:103AF00085E86091C6327091C7320C94862FCF93BF
:103B0000DF93EC01662319F02091E43201C020E03C
:103B100044E060EF8CE20E949A19C230D10510F4A3
:103B200027E002C02091DC3241E06EE08CE20E948E
:103B30009A1989E10E94041B8931D9F790914906AD
:103B40009C7F90934906219759F48091E632833106
:103B500018F087E592E002C087E990E00E947D15A9
:103B600088E0809345060000000000008093460630
:103B70008091E7329091E832FC01608161500E94AF
:103B8000691981E08093EA328091490683608093CD
:103B90004906DF91CF9108959B015091EA3251116E
:103BA00013C08093C6329093C732FC018781908501
:103BB0008093E7329093E832892B41F0642FC9015A
:103BC0000E947F1D80E0089586E8089588EE08959C
:103BD000882311F087E005C045E060EE82E00E9496
:103BE000821980937D3182E08093EA3280917B312B
:103BF00090917C31892B39F489E00E94041B81E08B
:103C00008093BF32089586E10C94041B982F85FDA4
:103C100002C09F7303C091959F719195ECE7F3E00B
:103C200080E02491921724F029173CF481500895E4
:103C30008F5F31968031A9F780E008950F931F932D
:103C4000CF93DF936091D63282E20E94FD1860919B
:103C5000D73283E20E94FD1808EC12E3C8E0DCE2F0
:103C6000F80161918F018D2F8C1B0E94FD18C150AE
:103C7000B9F76091D43280E20E94FD186091D5328C
:103C800081E20E94FD182091DA3245E060E688E08A
:103C90000E949A192091DD3240E06FE08FE20E948D
:103CA0009A192091DE3243E068E08EE20E949A1970
:103CB0002091E33244E060EF8FE20E949A19209154
:103CC000DB3240E06FE188E00E949A198091DF3298
:103CD0000E94061E282F40E06FE085E0DF91CF9123
:103CE0001F910F910C949A19982F85FD02C09F7314
:103CF00003C091959F719195ECE7F3E0249129170A
:103D00002CF0EBE8F3E0249192176CF48491803E60
:103D10003CF080323CF487FF06C08F71806203C0A4
:103D200080E201C08FE180680895CF93DF93C8ECF3
:103D3000D2E384E08C8B83E08D8B2FEF3FEF2E87D7
:103D40003F872C873D879BE09B8B40E058EF6FEFD0
:103D500077E0488759876A877B87188E2AE031E0A9
:103D6000288B398B9AE0998F92E09A8F95E09B8F00
:103D70008C8F84E80E94741E8F8B81E08A8B1E8A50
:103D8000DF91CF9108950F931F93CF93DF93EB01B2
:103D90008E3431F0893541F488818093E432CBC090
:103DA00088818093DC32C7C02091E5322F3009F43E
:103DB000C4C08B3009F4B7C078F4823009F494C0E1
:103DC00020F4882309F457C0BAC0833009F49AC09C
:103DD000843009F47AC0B3C08335E9F198F48F34A4
:103DE000A1F1803509F0ABC088819981682F80935B
:103DF000D6329093D73282E20E94FD186091D7327A
:103E000083E236C0873509F468C0803F09F097C067
:103E100088818093C83289818093C9328A81809356
:103E2000CA328B818093CB328C818093CC328D814E
:103E30008093CD328E818093CE328F818093CF322A
:103E400008EC12E3C8E0DCE264C028812093DD3294
:103E500040E06FE047C088819981682F8093D43219
:103E60009093D53280E20E94FD186091D53281E2B4
:103E70000E94FD1860C08091EA32811162C080E02A
:103E800098EFAFEFB7E0088004C0B695A795979577
:103E900087950A94D2F780FF56C0283039F088E021
:103EA0000E94041B8830D9F716E101C018E0288170
:103EB0002093DB3240E06FE188E00E949A191830CD
:103EC000D1F186E10E94041B36C08091EA32811153
:103ED00038C08881811137C037C028812093E332F0
:103EE00044E060EF8FE225C088818093DF320E943A
:103EF000741E8093DF320E94061E282F40E06FE080
:103F000085E017C028812093DA3245E060E688E03A
:103F100010C0F80161918F018D2F8C1B0E94FD183C
:103F2000C150B9F708C028812093DE3243E068E031
:103F30008EE20E949A1980E007C081E805C084EFF4
:103F400003C086E801C088EEDF91CF911F910F91E9
:103F50000895CF93DF931F92CDB7DEB720E043E003
:103F600068E083E00E949A1925E040E067E083E082
:103F70000E949A190E94A74B682F8DE299830E9494
:103F8000FD189981292F40E067E08EE20E949A197E
:103F900021E046E060EC8EE20E949A1921E045E0C3
:103FA00060E28EE20E949A1921E047E060E88CE02E
:103FB0000E949A1968E08EE00E94FD186FEF86E17A
:103FC0000F90DF91CF910C94FD18FF920F931F93E8
:103FD000CF93DF9386E10E941A19082F61EC86E1E6
:103FE0000E94FD18F0904906909149069C7F90939D
:103FF000490686E00E94041B8630D9F720E047E09E
:1040000060E885E10E949A1918E0C0E0D0E045E040
:1040100060E686E00E948219CC0FDD1FCC0FDD1F09
:10402000C82B00000000000000000000000000009D
:104030000000000000000000000000000000000080
:104040000000000000000000000000000000000070
:104050000000000000000000000000000000000060
:104060000000115009F0D3CF83E00E94041B8FE0C1
:104070000E941A1981E080934C06F0924906CE0105
:104080000E94AB4B602F86E1DF91CF911F910F9182
:10409000FF900C94FD18CF93DF93D82F88E0809386
:1040A000460682ED90E00E947D15C1E0C093460671
:1040B00081E090E00E947D15C0934506CBE084E648
:1040C00090E00E947D1540E06FE181E00E9482193E
:1040D000C15099F0883099F78093E5320E94E51F2E
:1040E0000E94A91FD1110E94951E0E941E1E1092AF
:1040F000EA321092BF3280E001C085E8DF91CF91B3
:1041000008950F931F93CF93DF930E94FF138111A4
:1041100081C0C1E0C093450688E0809346068AE4EA
:1041200091E00E947D15C093460681E090E00E94D8
:104130007D15C0934506DAE084E690E00E947D1587
:104140008CE10E941A19C82F8B3019F0D150A1F7B9
:1041500061C068E082E00E94FD1884E690E00E9461
:104160007D1540E06FE181E00E948219C15009F4A1
:1041700051C0883091F78093E53228EC32E348E073
:1041800050E062E070E082E00E941F1481E00E9433
:104190004B20C82F81113EC088EC92E3D8E0D80FA5
:1041A0002091C8323091C9324091CA325091CB32FD
:1041B0006091CC327091CD328091CE329091CF32DD
:1041C000AFEF0E941B49ADEF0E94304959F050F00B
:1041D00008EC12E30E94A74BF80181938F01DE13D4
:1041E000F9CFDECF87E391E20E94861380914906E2
:1041F0008360809349060E941C1A86E90E943C1A3B
:1042000080937B3190937C316FEF80EC92E30E943E
:10421000BC1A01C0C5E88C2FDF91CF911F910F917F
:104220000895CF930E944B20C82F81111CC080910C
:10423000C532882359F060E070E080EC92E30E9480
:10424000E51A0097A1F30E94421AF1CF87E391E2A9
:104250000E94861381E080934C068091490683601A
:104260008093490601C0C5E88C2FCF9108958FE057
:104270000E941A1983FF10C09091EA32913041F4E4
:1042800086FF02C081E001C080E00E94E81D02C0FC
:104290000E94E81C0C94A73E08958FE00E941A1912
:1042A00084FF03C081E08093E93208958091E53274
:1042B0008F30A1F08091EA32811112C01092BF328A
:1042C00088E00E94041B8830D9F780E00E946715BF
:1042D0008FE00E94041B8F3019F404C081E8089518
:1042E00086E8089580E008958091E5328F3051F49A
:1042F00088E00E94041B883039F481E00E94671531
:1043000080E0089582E8089585E808959091EA3262
:10431000911117C0883031F40E94041B1092BF32F3
:1043200088E0089580917B3190917C31892B21F038
:1043300086E10E94041B03C081E08093BF3286E0C7
:10434000089586E808956FEF8BEE92E30E94BC1A01
:104350000C94A927CF930E94BB24C82F60E070E083
:104360008BEE92E30E94E51A009719F00E94A524B3
:10437000C1E00E94232B0E941E1C0E9414148C2F4B
:10438000CF9108958F929F92AF92BF92CF92DF927A
:10439000EF92FF920F931F93CF93DF93473708F06D
:1043A00041C05901142F4B01F82E86E90E943C1A96
:1043B0006C010097B9F1FC01C081D18183E0888351
:1043C000F982F40180818A83218132812B833C83AD
:1043D0008250823080F41D821E821F8218861986C8
:1043E0001A861B861C86339688E0DE01159601909E
:1043F0000D928A95E1F70D87EE861F87412F50E0D9
:10440000CE01841B950BB5018C569F4F0E94C44C66
:10441000B6018BEF92E30E94C41A882329F0C601EB
:104420000E94421A80E001C081E0DF91CF911F918C
:104430000F91FF90EF90DF90CF90BF90AF909F9043
:104440008F9008951F93CF93DF93182F86E90E94D2
:104450003C1AEC01892B79F0E881F98189E08083AD
:104460001183BE018BEF92E30E94C41A882329F0C6
:10447000CE010E94421A80E001C081E0DF91CF911D
:104480001F910895EF92FF921F93CF93DF93182F00
:104490007B0186E90E943C1AEC01892BC9F0812F2F
:1044A0000E943E29482FE881F98186E080831183AC
:1044B00050E0B701CF0102960E94C44CBE018BEFC1
:1044C00092E30E94C41A882329F0CE010E94421A66
:1044D00080E001C081E0DF91CF911F91FF90EF90CC
:1044E0000895CF92DF92EF920F93CF93DF93CDB7E2
:1044F000DEB76697CDBFDEBF6C01DC01ED91FC91AC
:1045000081818C87828193818D879E87748165816B
:104510005681478130852185928583857F87688B89
:10452000598B4A8B3B8B2C8B9D8B8E8B84858983FF
:10453000858596858A839B8387858C8380898D83F7
:1045400081898E8382898F838389888784898987FB
:1045500085898A8786898B87228D338DE08C0789B0
:10456000418DBE016F5F7F4FCE010C960E94B3312B
:10457000C6010E94421A6696CDBFDEBFDF91CF9181
:104580000F91EF90DF90CF900895CF93DF93EC01E0
:10459000E881F981628181810E94B231CE01DF918F
:1045A000CF910C94421ACF93DF93EC01E881F9810B
:1045B00081810E948E03CE01DF91CF910C94421A2B
:1045C000CF93DF93EC01E881F981628181810E94C0
:1045D000A803CE01DF91CF910C94421A0F931F9341
:1045E000CF93DF93FC0140911D3350911E33BA01EC
:1045F00064E0769F612D77271124262F952F9695BD
:104600009695937009F441C0A081B181A0932333A2
:10461000B09324339230C9F410922533109226338C
:1046200010922733109228331092293310922A3394
:1046300010922B3310922C33A281B381A093253397
:10464000B0932633349684E021C0933019F032962B
:1046500082E01CC002811381D481C581B681A7810B
:10466000308581850093253310932633D0932733EB
:10467000C0932833B0932933A0932A3330932B333C
:1046800080932C333A968AE001C080E0222309F41B
:1046900047C046FD08C04191519140932E3350933D
:1046A0002F338E5F08C040912333509124334093C1
:1046B0002E3350932F332230C1F4109230331092A6
:1046C00031331092323310923333109234331092CC
:1046D0003533109236331092373320813181209355
:1046E0003033309331338E5F1BC02330C9F4D08117
:1046F000C181B281A3815481458136812781D093C4
:104700003033C0933133B0933233A093333350936B
:104710003433409335333093363320933733885FC7
:10472000209120332550281B20933A3360932D335A
:1047300090932233DF91CF911F910F910895EF92C3
:10474000FF920F931F93CF93DF93EC01A881B98160
:104750001796ED91FC911897808180932033E80F94
:10476000F11D81818093393317960D90BC91A02D56
:1047700011960D911C91129700931D3310931E33C7
:104780007D0184E0E80EF11C13968C918093213317
:10479000C7010E94EE2203FDC3C0F701E80FF11D1F
:1047A000802F877080931F33833021F48081809322
:1047B000383360C0813009F44CC020F0833009F0F8
:1047C000AFC058C08081918180933B3390933C333C
:1047D000928190933D33977011F09C5F01C093E0FC
:1047E00041E0490FDF01A90FB11D2C9120933E3309
:1047F000822F8770207730E094E0359527959A9541
:10480000E1F7811103C02115310591F0BF01640F5B
:10481000711D60933F3370934033882311F0880FEC
:10482000480F2115310521F088E0289F400D112403
:1048300080913A33481750F4841B80934133E40F3E
:10484000F11DE0934233F093433338C0109241336B
:1048500035C080913A33882351F0863718F086E7C7
:1048600080933A33E0933B33F0933C3327C010926C
:104870003A3324C080913833873001F1883021F0F9
:10488000843009F04DC01AC08181928180933B33FE
:1048900090933C338381948180933D3390933E3356
:1048A000858180933F3386819781809340339093B5
:1048B000413314FF03C08085809342338091453398
:1048C0008823A9F080911F33833089F48091383395
:1048D000843011F0873059F4BE0187E193E3DF9112
:1048E000CF911F910F91FF90EF900C94C41A80917B
:1048F000FA32811115C080910133811111C080916C
:10490000443381110DC080911F33813049F4CE01B1
:10491000DF91CF911F910F91FF90EF900C94612642
:10492000CE01DF91CF911F910F91FF90EF900C94EA
:10493000421AFC011082618172816115710521F0BA
:1049400087E193E30C94C41A0895DC01ED91FC9186
:10495000E081E43270F4F0E0EE0FFF1FE457FC4F0B
:10496000259134912115310511F0F90119940C9418
:10497000421A0C941E2CCF9380914533882311F05A
:10498000C0E00FC0809100338823D1F360E070E075
:104990008BEF92E30E94E51A009791F30E94A52401
:1049A000C1E080911C33882359F060E070E087E11A
:1049B00093E30E94E51A009719F00E94A524C1E034
:1049C0008C2FCF91089580914533811119C080912A
:1049D000F032811115C080910033811111C0809196
:1049E0001C3381110DC080914C33811109C080911D
:1049F000C532811105C081E09091E5329F3009F008
:104A000080E00895DC01ED91FC9120E12083418359
:104A10006283BC018BEE92E30C94C41A2F923F92F6
:104A20004F925F926F927F928F929F92AF92BF92BE
:104A3000CF92DF92EF92FF920F931F93CF93DF936A
:104A400000D01F92CDB7DEB789839A83DC010D9029
:104A5000BC91A02DAB83BC8311962C91119712961B
:104A60003C91129713960D911C9114971596EC900A
:104A7000159716964C9116971796BC9017971896FF
:104A8000AC90189719969C9019971A968C901A9733
:104A90001B967C901B971C966C901C971D96FC9007
:104AA0001D971E968C911E971F965C9182FD0BC0E0
:104AB0009091FA32911104C090910133992319F029
:104AC0004F2D61EEE5C09DE0EB81FC819083F38288
:104AD000E4E9F0E0E51BF1096B817C81E60FF71F4B
:104AE000223049F497E0950F6091D4327091D5321D
:104AF0007293629320C0233019F095E0950F1BC08C
:104B000038979DE0950F2090C8323090C932409080
:104B1000CA325090CB32C090CC32D090CD3270910E
:104B2000CE326091CF322082318242825382C4825F
:104B3000D582768367836091D6327091D7326017C1
:104B4000710729F4222341F031110BC002C0222346
:104B500019F09E5F72936293C12CD12C3323C9F05C
:104B600003C060E4C62ED12C323031F49E5F6E2D2E
:104B7000742F729362930AC03897985FE0824183E2
:104B8000B282A38294828582768267829E5F12932C
:104B900002934091133361E0640F60931333BF01BC
:104BA00061507109DB014C9380FD03C06894C0F82B
:104BB00002C0B1E2CB2A573610F06894D4F8BF0196
:104BC00063507109032F10E0102F0027110F110FF0
:104BD000422F50E050E4459F502D44271124980166
:104BE000242B352BC22AD32ADB01CD92DC9297FDF0
:104BF0004DC009811A8134979083AB81BC8117968F
:104C0000ED93FC9318970E94CF27EB81FC810183E1
:104C1000128341E062E070E0CF010E94CC1D81115F
:104C200019C081E0809345332496CDBFDEBFDF916C
:104C3000CF911F910F91FF90EF90DF90CF90BF9099
:104C4000AF909F908F907F906F905F904F903F902C
:104C50002F9008954F2D61EEC8010E9402252496E1
:104C6000CDBFDEBFDF91CF911F910F91FF90EF90ED
:104C7000DF90CF90BF90AF909F908F907F906F907C
:104C80005F904F903F902F900C949E274F2D65EE94
:104C900089819A812496CDBFDEBFDF91CF911F918C
:104CA0000F91FF90EF90DF90CF90BF90AF909F90CB
:104CB0008F907F906F905F904F903F902F900C94CB
:104CC0000225AF92BF92CF92DF92EF92FF920F93A5
:104CD0001F93CF93DC01ED91FC91119780913A33B2
:104CE000882309F463C0C0912133C08F80912D3394
:104CF000818320912E3330912F33228333839EEF93
:104D0000980F923050F51482158216821782108601
:104D1000118612861386823039F480913033909157
:104D200031338483958323C0709130336091313364
:104D300050913233409133333091343320913533B5
:104D400090913633809137337483658356834783DC
:104D500030872187928783870AC012821382148248
:104D6000158216821782108611861286138680910C
:104D7000F132C8131FC02481358146815781608577
:104D80007185A090F232B090F332C090F432D0909E
:104D9000F532E090F632F090F7320091F83210914F
:104DA000F932828593850E94274921F4CD010E9422
:104DB000421A64C0C093F13284818093F2328581BB
:104DC0008093F33286818093F43287818093F53229
:104DD00080858093F63281858093F7328285809337
:104DE000F83283858093F932809122338487178645
:104DF000108A118A128A138A148A158A168A2091B7
:104E0000233330912433258736878330C9F470915A
:104E100025336091263350912733409128333091C8
:104E2000293320912A3390912B3380912C3377872B
:104E3000608B518B428B338B248B958B868B0BC075
:104E4000823039F480912533909126338787908B77
:104E500002C01586168680913933878B80913A334C
:104E6000818F80913B3390913C33828F938F81E18E
:104E70008083BD018BEE92E30E94C41ACF911F91F3
:104E80000F91FF90EF90DF90CF90BF90AF900C9478
:104E90009E2710924533109244331092463310925D
:104EA0000133109202331092FA321092F1328FEFE6
:104EB0008093F2328093F3328093F4328093F53210
:104EC0008093F6328093F7328093F8328093F932F0
:104ED000109216330895CF93DF93C5E0D3E380E0BB
:104EE00098E78A879B87188A81E08C8786E08D8780
:104EF000188219821A821B821C821D821E821F82C6
:104F00008FEF9FEF888799870E94A74B8E871F8618
:104F1000DF91CF9108958091463381110EC00E9498
:104F2000671580E00E945621811104C081E08093C2
:104F30004633089581E00C946715089580911433E9
:104F4000811106C080911633811102C00C948B2709
:104F50000895CF930E948120C82F882311F0C5E8BF
:104F60001BC00E94E82A8031D1F70E94361888239E
:104F7000B1F30E94492788E00E9486210E946B2796
:104F80000E949E276FEF8BEF92E30E94BC1A6FEF97
:104F900087E193E30E94BC1A8C2FCF9108958091F2
:104FA0004633813049F40E947421853829F081E02C
:104FB0000E946715109246330895CF93DF9300D077
:104FC0001F92CDB7DEB70E94CF278FEF9FEF8B8365
:104FD0009C8389839A83BE016D5F7F4F83E50E9426
:104FE0001A29BE016F5F7F4F80E50E941A290E9437
:104FF000492788E00E9486210E946B270E949E27F5
:105000002496CDBFDEBFDF91CF9108950F931F93FC
:10501000CF93DF93EC01088119810E94CF27F8011B
:10502000018180E00E94671511E0011101C010E0CC
:10503000812F0E941121082F81E00E9467150E9494
:10504000492788E00E94862111110E946B270E9447
:105050009E278BEF92E30E94EF1A87E193E30E9471
:10506000EF1A8BEE92E30E94EF1AE881F981018337
:1050700080E28083BE018BEE92E3DF91CF911F919E
:105080000F910C94C41AFF920F931F93CF93DF9349
:10509000C82F8B01F42E8C3409F468C048F5833492
:1050A00009F47DC060F4853030F4823008F077C0B8
:1050B00081118BC074C0823409F489C086C08734E2
:1050C00009F46DC040F4843409F07FC0FB01808195
:1050D0008093123362C08A3479F18B3409F075C041
:1050E000FB018081918180930D3390930E3355C0E5
:1050F000853560F4833508F052C08E3408F465C0FD
:10510000813508F44CC08235B1F15FC0893509F4AE
:1051100046C020F4873509F058C041C08A3521F0D7
:10512000803F09F052C03BC0FB0180819181809398
:105130000F339093103331C0FB018081809305338E
:1051400081818093063382818093073383818093AA
:105150000833848180930933858180930A33868163
:1051600080930B33878180930C3317C0FB018081C0
:105170008093133312C081E0FB019081911101C033
:1051800080E080931433882331F00E94CF2786E09B
:105190000E94862102C00E949E27D0E019C0B8015B
:1051A0008C2F0E94C31ED82F813891F40E94742145
:1051B000B8018C2F0E94C31ED82F811109C081E035
:1051C00080937E31F1100AC011C0D4EF01C0D8EE37
:1051D000FF2061F080917E31882341F0809114336B
:1051E000811104C00E94562110927E318D2FDF91D3
:1051F000CF911F910F91FF9008950F931F93CF931D
:10520000DF938C01FC01C081D181BE016E5F7F4FB5
:1052100041E089810E94432899819A839FE1988384
:105220008983B8018BEE92E3DF91CF911F910F91AB
:105230000C94C41A0F931F93CF93DF931F92CDB793
:10524000DEB790914633913091F48B0189830E94AF
:10525000CF27B80189810E94C31E89830E949E279F
:1052600089810F90DF91CF911F910F9108950F9039
:10527000DF91CF911F910F910C94C31E883028F4B9
:10528000E82FF0E0EB50FC4F0FC090EC980F9032FD
:1052900028F4E82FF0E0EB56FC4F06C0803F30F0DA
:1052A000E82FF0E0EC51FD4F8491089580E00895DF
:1052B00010924533FB0190819D3031F4682F43817A
:1052C000818192810E9402250C949E27CF93DF93C7
:1052D000C0918131D0918231E881F98194EF90833E
:1052E00011828283438354836583768327838091ED
:1052F0002B34882321F18091FD33823000F18087A7
:1053000080914E3390914F33A0915033B0915133EF
:1053100081879287A387B487809156338587809150
:10532000523390915333A0915433B09155338687C3
:105330009787A08BB18B80915733828B01C01086E9
:10534000BE018BEE92E3DF91CF910C94C41AEF92E1
:10535000FF920F931F93CF93DF93DC01ED91FC91AC
:1053600011979181448565857685E784F088018968
:105370001289D389C48955898689A0938131B093D4
:10538000823120912134211105C04FEF5FEFBA0126
:1053900086E11AC020918431222331F020E04FEFC2
:1053A0005FEFBA0181E110C09230B1F42091D432A4
:1053B0003091D5322E5F3F4F2230310568F420E026
:1053C0004FEF5FEFBA0184E1DF91CF911F910F9111
:1053D000FF90EF900C94662921E0209345339230A2
:1053E00059F4909312342091D4323091D5322093D5
:1053F00015343093163423C093E090931234909177
:10540000C832909315349091C9329093163490918C
:10541000CA32909317349091CB3290931834909174
:10542000CC32909319349091CD3290931A3490915C
:10543000CE3290931B349091CF3290931C342091B4
:10544000D6323091D7322093133430931434423013
:1054500019F44093073403C093E090930734E0922B
:105460000A34F0920B3400930C3410930D34D09323
:105470000E34C0930F3450931034809311346093E2
:1054800008347093093410925D3310925E3381E0DA
:1054900080938331DF91CF911F910F91FF90EF9017
:1054A00008950C94113A80E00C942917809184316E
:1054B0008150823028F465EF73E382E00E94C31EBE
:1054C000109284311092833110927F310E945A39A8
:1054D0000E94CE3E10928031109245330E94532A92
:1054E0000E948D3A0C949E270E94003AE8E5F3E36F
:1054F0002481408151816281738180E10E9466290B
:105500000C94562A20E04FEF5FEFBA010E94662903
:105510000C94562A809106348930F1F028F48330B7
:1055200061F0863069F008958E3099F08031B9F0DD
:105530008D30E9F48DE090E014C083E090E002C08B
:1055400086E090E080935D3390935E3388E10C9425
:10555000822A8EE090E005C089E090E0F3CF80E100
:1055600090E080935D3390935E330C94562A0895B7
:10557000EF92FF920F931F93CF93C82F809306341F
:10558000E12CF12C0AE81AE220E040E050E867E064
:1055900070E080E00E942B16882349F08C2F90E069
:1055A000CF911F910F91FF90EF900C948A2ACF9189
:1055B0001F910F91FF90EF900895EEEFF3E31082AB
:1055C0001182138212821682178214821582089524
:1055D000109284316FEF87E493E30E94BC1A0E941B
:1055E000DD2AE1E2F4E381E08083108611861286F1
:1055F000818323E639E02283338392E094832BE88E
:1056000039E02583368317829FEA938784878587CD
:1056100080E10895CF93DF93EC0181E00E94112196
:10562000811105C086E00E9486210E94E82AE88157
:10563000F98195EF90838183BE018BEE92E3DF9138
:10564000CF910C94C41A80914C33882351F060E0C0
:1056500070E087E493E30E94E51A009711F00E943E
:105660001E2C80917F31811157C0E09183318E2FA4
:1056700090E0FC013197E531F10508F04DC0882735
:10568000E55DFE4F8F4F0C94C84881E080938431D4
:1056900010925D3310925E3310925C338FEF9FEF68
:1056A000DC018093583390935933A0935A33B093CD
:1056B0005B330E94DD2A0E947D3A21E042E061E0F6
:1056C0008EE00C9444310C9496310C94733E0C94FF
:1056D000963A80E00E94753980918431813011F4CE
:1056E00087E003C08230C1F480E180938331089564
:1056F0000C949C310C94A73180915D3390915E3372
:10570000892B31F480912834823010F00E94A7391F
:105710000E9474320C94742A089586E90E943C1AFF
:10572000009761F0DC01ED91FC9122EF2083BC0138
:105730008BEF92E30E94C41A81E0089580E00895FF
:105740000F931F93CF93DF93EC0186E90E943C1ADD
:105750008C01892BD9F088810E945C2DF801A081F1
:10576000B18193EF9C93FE01919111969C931197B7
:10577000482F50E0BF01CD0102960E94C44CB801F1
:105780008BEF92E30E94C41A81E001C080E0DF91B8
:10579000CF911F910F910895CF93DF93EC0186E98C
:1057A0000E943C1ABC01009789F0FC01A081B181E4
:1057B00081EF8D9397E1FE0101900D929A95E1F7AB
:1057C0008BEF92E30E94C41A81E001C080E0DF9178
:1057D000CF910895CF93DF93EC0188819981019651
:1057E0000E942F03CE01DF91CF910C94421ACF93E8
:1057F000DF93EC018881998101960E94AE03CE016E
:10580000DF91CF910C94421ACF93DF93EC01888102
:10581000998101960E943204CE01DF91CF910C94C0
:10582000421ACF93DF93EC018881998101960E94FF
:105830003304CE01DF91CF910C94421ADC01ED913B
:10584000FC91E08120E12E0F283070F4F0E0EE0FA3
:10585000FF1FE35EFD4F259134912115310511F0B5
:10586000F90119940C94421A089588E08093450632
:10587000089588E0809346060895CF93DF93C0E4AF
:10588000D6E089858C7F89878FE00E941A1921E0F4
:1058900047E060E887E10E949A1921E046E060E471
:1058A00084E00E949A1982E08C87E1E4F8E090811C
:1058B0009F7E90839AE090930008909340088B8796
:1058C0001092600810926108898B80E180934C08E7
:1058D00083E080934708808180618083DF91CF914E
:1058E000089510924708E1E4F8E080818F7E80837C
:1058F0008FE00E941A19E0E4F6E0818583608187D9
:10590000789408951F920F920FB60F9211242F933F
:105910008F939F93109241081092470880916008DE
:1059200092E0980F90932034209160082913FCCFC7
:1059300090918431913011F48B5F01C0825F80932C
:10594000203480912034909160089813FCCF805CC3
:105950008093203481E0809380319F918F912F91AB
:105960000F900FBE0F901F9018950F931F93CF931A
:10597000DF931F92CDB7DEB7DB01082F10E00C30AC
:10598000110538F4F8018827E05CFE4F8F4F0C9426
:10599000C84813E15FC08C918093213417C08D916A
:1059A0009C9120912634309127342450310982175C
:1059B000930708F04EC09C01245139402C3C31051E
:1059C00008F047C0809323349093243410E142C000
:1059D0008C918430F0F580932534F8CF8D919C9193
:1059E00020912334309124342C5F3F4F28173907FE
:1059F00080F59C01245139402C3C310550F58093B1
:105A0000263490932734E2CF8C91909147209817B9
:105A100000F180932834DACF8C9180932934D6CF4B
:105A20008C9180932B34D2CF8C9180932C344983EA
:105A30000E94741E80932C3410E149810BC08C911C
:105A400080932D34C3CF8C9180932E34BFCF1BEF26
:105A500001C014E1442361F080918531882341F035
:105A600080911433811104C00E9456211092853117
:105A7000812F0F90DF91CF911F910F9108950F9378
:105A80001F93CF93DF938C01FC01C081D181BE01B4
:105A90006E5F7F4F41E089810E94B52C99819A8386
:105AA00096EF98838983B8018BEE92E3DF91CF91D3
:105AB0001F910F910C94C41A8C3030F4E82FF0E051
:105AC000E35FFB4F8491089580E0089520EFFC018F
:105AD0002083618172816115710521F087E493E370
