:100000000C9409010C942A010C94C6030C942A0147
:100010000C942A010C942A010C942A010C942A01B4
:100020000C942A010C942A010C942A010C942A01A4
:100030000C942A010C942A010C944D080C942A016A
:100040000C947E080C942A010C942A010C942A0129
:100050000C942A010C942A010C94D1180C942A01B6
:100060000C942A010C942A010C942A010C942A0164
:100070000C942A010C942A010C942A010C942A0154
:100080000C942A010C942A010C94180A0C942A014D
:100090000C942A010C942A010C942A010C942A0134
:1000A0000C942A010C942A010C942A010C942A0124
:1000B0000C942A010C942A010C942A010C942A0114
:1000C0000C942A010C942A010C942A010C942A0104
:1000D0000C942A010C942A010C942A010C942A01F4
:1000E0000C942A010C942A010C942A010C942A01E4
:1000F0000C942A010C942A010C942A010C942A01D4
:100100000C942A010C942A010C942A010C942A01C3
:100110000C942A010C942A010C942A010C942A01B3
:100120000C942A010C942A010C942A010C942A01A3
:100130000C942A010C942A010C942A010C942A0193
:100140000C942A010C942A010C942A010C942A0183
:100150000C942A010C942A010C942A010C942A0173
:100160000C9443030C942A010C946F030C942A0101
:100170000C942A010C942A010C942A010C942A0153
:100180000C942A010C942A010C942A010C942A0143
:100190000C942A010C942A010C942A010C942A0133
:1001A0000C942A010C942A010C942A010C942A0123
:1001B0000C942A010C942A010C942A010C942A0113
:1001C0000C942A010C942A010C942A010C942A0103
:1001D0000C942A010C942A010C942A010C942A01F3
:1001E0000C942A010C942A01040303030302010066
:1001F000FFFEFDFCFAF8F4EF081ACC150000BE195A
:100200003E18000054180101020102010101010120
:10021000010111241FBECFEFDFE5DEBFCDBF00E03F
:100220000CBF10E2A0E0B0E2ECE6F5E600E00BBFA8
:1002300002C007900D92A23FB107D9F719E2A2EFD1
:10024000B0E201C01D92A337B107E1F70E9443015C
:100250000C94B4320C94000080E090E00E945F02A5
:10026000823781F48091F220882361F483EF90E259
:100270000E94F217882331F081E08093F22060E041
:100280000E94BD0908950F931F93DF93CF9300D071
:10029000CDB7DEB70E941218882311F00E94D00457
:1002A0000E94B70980E060E00E94BD0981E061E042
:1002B0000E94BD0982E061E00E94BD09789480E05F
:1002C0000E949C03882311F00E94D00487E192E0F1
:1002D00061E472E00E94FC2D80E090E20E94592EC1
:1002E0008EE290E20E94592E8EE390E20E94592EF7
:1002F00086E490E20E94592E80E690E20E94592EF8
:1003000082E090E08A839B838E010E5F1F4F83E51E
:10031000B8010E944D118EEF9AEC8A839B8380E591
:10032000B8010E944D118AE1898380E0BE016F5FB0
:100330007F4F0E944D1182E08093F320E7EFF0E2BF
:100340001282138214821582168217828093F420FF
:1003500080917D2490917E248093F7209093F820C3
:1003600080917F24909180248093F5209093F620B3
:100370000E942C180E942C01FBCFDF92EF92FF927B
:100380000F931F93FC018091F220882309F448C049
:100390001092F2202181E280F38004811581D680C1
:1003A000203129F58CE790E20E94592E00D000D030
:1003B00088E890E2ADB7BEB711968D939C931297E3
:1003C000EDB7FEB7E382F482058316830E94472EC1
:1003D0000F900F90EDB7FEB731968BE990E2ADB775
:1003E000BEB711968D939C931297D2820EC000D007
:1003F0000F92EDB7FEB7319689EA90E2ADB7BEB77E
:1004000011968D939C931297228313820E94472EFC
:100410000F900F900F900F9081E061E00E94BD0956
:100420001F910F91FF90EF90DF90089508950F9323
:100430001F93DF93CF930F92CDB7DEB789838A30B6
:1004400071F48DE089838E010F5F1F4F80E0B8014A
:1004500041E00E94A8038823C9F38AE089838E01C2
:100460000F5F1F4F80E0B80141E00E94A80388237E
:10047000C9F380E090E00F90CF91DF911F910F9131
:1004800008950F931F93DF93CF930F92CDB7DEB7ED
:100490008E010F5F1F4F80E0B80141E00E94B10361
:1004A0008823C9F389818D3011F48AE08983898199
:1004B00090E00F90CF91DF911F910F910895DF93FE
:1004C000CF930F92CDB7DEB780E0BE016F5F7F4F55
:1004D00041E00E94B103813019F4298130E002C06B
:1004E0002FEF3FEFC9010F90CF91DF9108950F9348
:1004F0001F93CF93DF938C01EB010AC080E0B8011A
:100500004C2F0E94A80390E0C81BD90B080F191F9D
:100510001C161D069CF3DF91CF911F910F9108953A
:100520009B01AC0160507E4E85489F4FF2E0660F04
:10053000771F881F991FFA95D1F7E3E0220F331F29
:10054000441F551FEA95D1F70E94732D215030406A
:10055000E0E6F6E088E0818384E082838289886136
:10056000828BE0EAF9E0378326838CE1848383E0A1
:1005700085838CE383830895CF93DF93282F809125
:10058000A309837FE0EAF9E08383E0914F2430916F
:1005900050243E1718F08E2F895302C08E2F8150A1
:1005A000831B681708F4862F392FE901982F11C093
:1005B000209150243991A22FB0E0A358BC4D3C9318
:1005C000273C19F41092502403C02F5F209350242D
:1005D0009150992369F790915324992349F4F0E0BD
:1005E000E358FC4D90819093A00991E0909353249F
:1005F0009091A3099C60E0EAF9E09383DF91CF91A9
:100600000895FC01809154248823D9F19091A30985
:100610009F7CA0EAB9E013969C9313978A3050F020
:1006200080915224809351248AE0809354246A302C
:1006300028F405C0861718F4682F01C06AE0962FC9
:1006400016C0A0915124B0E0AB5BBB4D8C9181935F
:10065000809151248F5F8093512420915424215004
:100660002093542491508A3011F4109251249923EC
:1006700041F78091A3098063E0EAF9E08383862F44
:10068000089580E008951F920F920FB60F920BB657
:100690000F9211248F939F93EF93FF938091522495
:1006A000909154249F5F909354249091A009E82F37
:1006B000F0E0EB5BFB4D9083893019F410925224EB
:1006C00003C08F5F80935224FF91EF919F918F9190
:1006D0000F900BBE0F900FBE0F901F9018951F929A
:1006E0000F920FB60F920BB60F9211248F93EF93C8
:1006F000FF9380914F24873C19F410924F2403C03C
:100700008F5F80934F24E0914F2480915024E8170D
:1007100039F0F0E0E358FC4D80818093A00902C0DD
:1007200010925324FF91EF918F910F900BBE0F9079
:100730000FBE0F901F901895882341F460E076E972
:1007400080E090E00E94900280E0089585E808959E
:10075000882329F4CB01642F0E94BC02089580E015
:100760000895882329F4CB01642F0E940103089582
:1007700080E008958093FF2090930021E0E4F6E06C
:1007800081E0828B94E09287848708951F920F9274
:100790000FB60F920BB60F9211242F933F934F93E6
:1007A0005F936F937F938F939F93AF93BF93EF93D9
:1007B000FF93E091FF20F09100211995FF91EF91B7
:1007C000BF91AF919F918F917F916F915F914F9169
:1007D0003F912F910F900BBE0F900FBE0F901F9067
:1007E0001895EBECF1E021E030E088ED90E084BF7B
:1007F000208308958091CF0187FDFCCF08950F934A
:100800001F93DF93CF930F920F92CDB7DEB78983FB
:100810009A830E94FA0300EC11E0F80112829A8197
:1008200091838981808386E082870E94F103F801A9
:1008300084810F900F90CF91DF911F910F910895B8
:100840000E94BC080E94D4080E94410A0E945A05D6
:100850000E94AC080E94B60821E030E088ED90E0EC
:1008600084BF2093800080E008950E9410080895BE
:10087000CF92DF92EF92FF920F931F93CF93DF936C
:100880008B01EA01813031F4862F642FA9010E9487
:10089000080921C08823E1F4CA01860F971F40E1AF
:1008A00081309407B8F4C22ED32EEE24FF240BC05F
:1008B000C701800F911F0E94FF03F60181936F0112
:1008C0000894E11CF11CEC16FD0690F380E003C0D7
:1008D00088EE01C085E8DF91CF911F910F91FF90C5
:1008E000EF90DF90CF9008955F926F927F928F92FA
:1008F0009F92AF92BF92CF92DF92EF92FF920F93AF
:100900001F93CF93DF93EC015B01CB018C0F9D1FF5
:1009100020E18130920798F5C42ED52EEE24FF24D5
:1009200000EC11E023E3722E95E3892E86E3982EE6
:1009300021C0CE010E94FF03F60161906F01861570
:10094000A9F05C2E0E94FA038091CF0181FF04C0C0
:10095000F80192860E94F103F80172865092C0015C
:1009600011821282648282860E94F1032196089489
:10097000E11CF11CEA14FB04E0F280E001C085E810
:10098000DF91CF911F910F91FF90EF90DF90CF906B
:10099000BF90AF909F908F907F906F905F900895E1
:1009A0001F93CF93DF93E0E2F6E014828FEF818311
:1009B000C0E2D6E01FEF8FEF9FEF0E948E051F83EE
:1009C000FACF60915524709156249B0140E050E08D
:1009D000A901332722278091200890912108A0E0C7
:1009E000B0E0282B392B4A2B5B2B8091552490911A
:1009F00056246817790729F7B901CA0108951F938A
:100A0000CF93DF931FB7F894809103218F3F09F4B0
:100A10004CC0C82FD0E0FE0133E0EE0FFF1F3A9527
:100A2000E1F7EC0FFD1FE95AFB4D80819181A28116
:100A3000B38120915524309156242A173B0769F43D
:100A4000809328089093290880910C0880618093F6
:100A50000C0880910708836003C0809107088C7F91
:100A6000809307080E94E104FE0123E0EE0FFF1FC0
:100A70002A95E1F7EC0FFD1FE95AFB4D20813181EA
:100A800042815381621B730B840B950B6F5F7F4F09
:100A90008F4F9F4F6F3F2FEF72072FEF82072FE788
:100AA000920718F481E0809302211FBFDF91CF915C
:100AB0001F91089510920121109202211092552445
:100AC000109256248FEF809303218093042180930A
:100AD000052180935F2410925B2410925C24809304
:100AE000682410926424109265240E94F6080895E8
:100AF000882311F488E001C08AE080930008809385
:100B000040080895CF93DF93EC010E94E1046883CD
:100B100079838A839B83DF91CF9108954FB7F894AF
:100B20008630910518F12091200830912108280F76
:100B3000391F80912008909121088217930740F473
:100B4000809120089091210882179307C8F30EC066
:100B5000809120089091210828173907C8F38091C7
:100B600020089091210882179307C8F34FBF08957A
:100B700090E0FC0143E0EE0FFF1F4A95E1F7E80F1C
:100B8000F91FE95AFB4D81E024813581211531059A
:100B900009F480E0089580910221882309F44CC073
:100BA0001092022120910121222309F445C0809155
:100BB00004218F3F59F4809105218F3F39F48091B2
:100BC0000321809305218093042112C030910321D9
:100BD0008091052190E0FC0173E0EE0FFF1F7A95F4
:100BE000E1F7E80FF91FE95AFB4D308730930521F3
:100BF0008091032190E0FC0163E0EE0FFF1F6A95F6
:100C0000E1F7E80FF91FE95AFB4D80858093032136
:100C10008091052190E0FC0153E0EE0FFF1F5A95F3
:100C2000E1F7E80FF91FE95AFB4D8FEF808721505C
:100C3000209301210E94FF0408950F931F93082F12
:100C4000823008F0CDC01FB7F8940E94CB054091C8
:100C50000121442309F45BC050910321252F352F36
:100C600002C0232F382F031709F041C0802F90E0D6
:100C7000051781F4FC0153E0EE0FFF1F5A95E1F7D1
:100C8000E80FF91FE95AFB4D8085809303210E94EC
:100C9000FF0419C030E0F90143E0EE0FFF1F4A9551
:100CA000E1F7E20FF31FE95AFB4DDC0123E0AA0F45
:100CB000BB1F2A95E1F7A80FB91FA95ABB4D18967B
:100CC0008C9118978087802F90E0FC01A3E0EE0FB5
:100CD000FF1FAA95E1F7E80FF91FE95AFB4D8FEFC7
:100CE00080878091012181508093012165C0832FED
:100CF00090E0FC0173E0EE0FFF1F7A95E1F7E80F3B
:100D0000F91FE95AFB4D8085415009F0AACF409167
:100D10000421342F242F4BC00217D9F5209105212F
:100D20000417B1F4021721F48FEF809305210DC051
:100D3000802F90E0FC0163E0EE0FFF1F6A95E1F762
:100D4000E80FF91FE95AFB4D80858093042134C0D8
:100D5000832F90E0FC0153E0EE0FFF1F5A95E1F75F
:100D6000E80FF91FE95AFB4D802F90E0DC0143E0CA
:100D7000AA0FBB1F4A95E1F7A80FB91FA95ABB4D8F
:100D800018968C91189780870217B1F4309305213B
:100D900013C0822F90E0FC01B3E0EE0FFF1FBA9565
:100DA000E1F7E80FF91FE95AFB4D322F20852F3F5D
:100DB00009F0B2CF80E00FC0802F90E0FC01A3E0EB
:100DC000EE0FFF1FAA95E1F7E80FF91FE95AFB4D57
:100DD0001482158281E01FBF882321F080E003C0C8
:100DE0008AE801C089E81F910F9108952F923F92E0
:100DF0004F925F926F927F928F929F92AF92BF922B
:100E0000CF92DF92EF92FF920F931F93CF93DF93D6
:100E1000D82E4A015B01C22E3701823008F0CBC0C8
:100E20000115110509F4CBC0C82FD0E0FE0133E055
:100E3000EE0FFF1F3A95E1F7EC0FFD1FE95AFB4D4E
:100E400084819581009709F0B8C00E94E1049B015C
:100E5000AC01CC2029F06C2D613009F0B0C014C079
:100E6000D501C40180589040A040B04080386FEF59
:100E700096076FEFA6076FE7B60708F0A2C0820ECD
:100E8000931EA41EB51E13C0D501C4018058904006
:100E9000A040B040821B930BA40BB50B80382FEF02
:100EA00092072FEFA2072FE7B20708F08AC0CFB64C
:100EB000F8940E94CB05509103215F3F31F0F090F0
:100EC0000121652F452F70E054C0D0920321FE010F
:100ED00023E0EE0FFF1F2A95E1F7EC0FFD1FE95A03
:100EE000FB4D508735C04F3F09F442C0242F30E0FE
:100EF000F90193E0EE0FFF1F9A95E1F7E20FF31F60
:100F0000E95AFB4D80819181A281B38114012501B1
:100F1000281A390A4A0A5B0AD201C1018F3F2FEF12
:100F200092072FEFA2072FE7B20718F4642F40852E
:100F30001FC0FE0183E0EE0FFF1F8A95E1F7EC0F63
:100F4000FD1FE95AFB4D4087541721F4D09203212D
:100F500081E013C0862F90E0FC01B3E0EE0FFF1F8D
:100F6000BA95E1F7E80FF91FE95AFB4DD08656C054
:100F70007F5F7F1508F4B7CF38C0FE01A3E0EE0F06
:100F8000FF1FAA95E1F7EC0FFD1FE95AFB4D808288
:100F90009182A282B38204831583668277829091C4
:100FA00001219F5F90930121882311F00E94FF048B
:100FB000CFBE80E007C08AE805C088E803C088EE9D
:100FC00001C08BE8DF91CF911F910F91FF90EF90BF
:100FD000DF90CF90BF90AF909F908F907F906F9059
:100FE0005F904F903F902F900895862F90E0FC01E6
:100FF00073E0EE0FFF1F7A95E1F7E80FF91FE95A4A
:10100000FB4DD086FE0163E0EE0FFF1F6A95E1F70E
:10101000EC0FFD1FE95AFB4D8FEF808780E0ADCFCD
:101020001F931FB7F8940E94CB051FBF1FEF2FC05F
:101030003FB7F8948091042190E0DC0143E0AA0FCF
:10104000BB1F4A95E1F7A80FB91FA95ABB4D1896C7
:101050002C9118971496ED91FC91159716968D91F9
:101060009C91179718961C93189714961D921C9292
:10107000159716961D921C921797209304212F3FC7
:1010800011F4109305213FBF309709F01995809115
:1010900004218F3F69F61F9108951F920F920FB69A
:1010A0000F920BB60F9211242F933F934F935F93A0
:1010B0006F937F938F939F93AF93BF93EF93FF9320
:1010C00080915524909156240196809355249093B5
:1010D00056240E94FF04FF91EF91BF91AF919F9121
:1010E0008F917F916F915F914F913F912F910F90D1
:1010F0000BBE0F900FBE0F901F9018951F920F926E
:101100000FB60F9211248F9380910121882319F03B
:1011100081E0809302218F910F900FBE0F901F905E
:101120001895FC012091552430915624609168084F
:101130007091690840E050E0A9013327222780E040
:1011400090E0262B372B482B592B20833183428369
:101150005383089581E0089585E88093800181E6B6
:101160008093810188E6809382010895E0EAF0E0AF
:10117000828184608283089582E080935000809110
:10118000510081FFFCCF21E030E088ED90E084BF8A
:101190002093400082E0E0E5F0E0868380916000EB
:1011A0008160809360000895E0E4F6E080818061D2
:1011B000808380818068808380818160808380815A
:1011C0008062808380818860808380818F7B808340
:1011D000E0E6F6E080ED818380E2828380E1858332
:1011E00080818E7F808381E0808B089588E080936A
:1011F00000088093400880EF80930C0880E3809380
:101200004C0883E08093060889E2809343080895A0
:10121000AF92BF92CF92DF92EF92FF920F931F9304
:10122000DF93CF93CDB7DEB7C054D040CDBFDEBF84
:101230009E012F5F3F4F90E0E0E4F6E0EE24E39460
:10124000B0E1FB2E00EC18E0A3E0DA2E70ECA72E44
:1012500078E0B72EC0904906709149067C7F71876F
:10126000E682F6820000000000000000000000009E
:10127000000000000000000000000000000000006E
:10128000000000000000000000000000000000005E
:10129000000000000000000000000000000000004E
:1012A00000000000D8011396DC9213977091C208D9
:1012B00077FFFCCF792F7F77D50113967C93139717
:1012C0007091C20877FFFCCFD50113961C9213973B
:1012D0007091C20877FFFCCF7091C308F582E58258
:1012E000C186D9017D939D019F5F903409F0B2CFF3
:1012F000DE01AF5BBF4F20E030E0FE0131969191FF
:101300002927022E2295207F2025032E322F229579
:101310002F700226269532272327220F220F220F15
:101320002025EA17FB0759F72115310581F4FA0149
:10133000DE011196A80FB11DCA01860F911D02C0D2
:101340002D912193E817F907D9F780E001C085E8CE
:10135000C05CDF4FCDBFDEBFCF91DF911F910F91FA
:10136000FF90EF90DF90CF90BF90AF900895E0E2B4
:10137000F6E087E0818386830895833030F4E82F98
:10138000F0E0EA54FF4D208101C020E0662319F00F
:101390006130B9F40BC081E090E002C0880F991F62
:1013A0002A95E2F7E0E2F6E08583089581E090E097
:1013B00002C0880F991F2A95E2F7E0E2F6E08683E3
:1013C000089581E090E002C0880F991F2A95E2F706
:1013D000E0E2F6E087830895E0E2F6E088E08283C9
:1013E00088E1838B80E49FE10197F1F70895E0E2C3
:1013F000F6E0808590E023E0959587952A95E1F7C2
:10140000817008952FB7F89498E09093B000E0E2CF
:10141000F6E08BE1838B81858C7F82608187928768
:10142000E0EAF0E082818260828378942FBF0895A1
:101430001F920F920FB60F920BB60F9211248F933B
:10144000EF93FF93E0E2F6E08285877F8287E8E40E
:10145000F0E080818E7F8083FF91EF918F910F90DC
:101460000BBE0F900FBE0F901F9018950E94020A9E
:10147000E8E4F0E08081807F8560808378948895BF
:101480000895E0ECF8E080E58083808181688083C6
:1014900080E1E0E4F6E085830895E0E4F6E0209161
:1014A0004906909149069C7F9187806C90E19683D4
:1014B000E0ECF8E083838091C20887FFFCCFE0EC8A
:1014C000F8E063838091C20887FFFCCFE0E4F6E098
:1014D00080E1858321870895E0E4F6E020914906C4
:1014E000909149069C7F9187806890E19683E0EC1B
:1014F000F8E083838091C20887FFFCCFE0ECF8E03E
:1015000013828091C20887FFFCCF8091C308E0E47A
:10151000F6E090E195832187089520E1E0E4F6E08C
:10152000268320E2E0ECF8E023832091C20827FF25
:10153000FCCFE0ECF8E013826130B9F0262FFC011B
:10154000A0ECB8E03091C20837FFFCCF3091C3085F
:1015500013961C92139731932150223098F76250C2
:1015600070E06F5F7F4F860F971F2091C20827FFA3
:10157000FCCF2091C308FC01208380E1E0E4F6E089
:1015800085830895FC0180E1A0E4B6E016968C9373
:1015900080E6A0ECB8E013968C931397819161508C
:1015A0009091C20897FFFCCF13968C9313976623F4
:1015B000A9F78091C20887FFFCCF80E1E0E4F6E064
:1015C00085830895DF93CF930F920F92CDB7DEB747
:1015D0004A8369830E946C0A6981862390E04A816C
:1015E00002C0959587954A95E2F70F900F90CF919D
:1015F000DF9108951F93DF93CF9300D0CDB7DEB76F
:10160000182F2B834A8369830E946C0A2B8130E058
:101610004A8102C0220F331F4A95E2F769812623CF
:1016200060956823622B812F0E944D0A2396CDBFBF
:10163000DEBFCF91DF911F910895FB01A0E4B6E0DA
:1016400020914906909149069C7F19969C93199781
:1016500090E116969C9390E4A0ECB8E013969C93CE
:1016600013979091C20897FFFCCFA0ECB8E01396B7
:101670008C9313978091C20887FFFCCFA0ECB8E051
:10168000819113968C9313978091C20887FFFCCFAA
:101690004150B1F7E0E4F6E080E1858321870895C9
:1016A000000000000000000000000000000000003A
:1016B000000000000000000000000000000000002A
:1016C000E0E4F6E050914906909149069C7F9187AD
:1016D00090E19683E0ECF8E013829091C20897FFC6
:1016E000FCCFE0ECF8E083838091C20887FFFCCF59
:1016F000862F972FFC01A0ECB8E013961C9213974D
:101700008091C20887FFFCCF8091C308819341502C
:10171000A1F7E0E4F6E080E1858351870895EF9238
:10172000FF920F931F93CF93DF9386E091E20E9485
:10173000450C0BE011E293E6E92E93E2F92EC0E0AE
:10174000D0E0F70100831183BE01660F771F660F9B
:10175000771F6D597C4D86E091E20E944C0C2196DA
:101760000A561F4F84E090E0E80EF91EC430D10500
:1017700041F7DF91CF911F910F91FF90EF90089566
:1017800086E091E260E070E00E94670C0895BC0181
:10179000009721F086E091E20E944C0C08956F9230
:1017A0007F928F929F92BF92CF92DF92EF92FF92A1
:1017B0000F931F93CF93DF938C014B016A01BFB648
:1017C000F894DC0114968C911497882309F44BC08B
:1017D000CD91DC91119741155105C1F07E0113C0E7
:1017E000F601628173810190F081E02D88819981F9
:1017F0001995882371F47E019A818B81692EE3010A
:101800003E01782EE301209759F72FC0209769F108
:101810007E018114910449F5D8012D913C911197D5
:101820008A819B81C217D30721F48D939C931197D2
:1018300003C0F70182839383D80112968D919C9106
:101840001397C817D90721F41296ED92FC921397BB
:10185000F80184818150848380819181009729F4EB
:101860001282138202C0C0E0D0E0BFBECE01DF9181
:10187000CF911F910F91FF90EF90DF90CF90BF908D
:101880009F908F907F906F900895FC01108211823D
:101890001282138214820895FC019FB7F894848108
:1018A000882319F46083718306C0A281B3811296E4
:1018B0006D937C93139762837383DB0112961D9261
:1018C0001C92139784818F5F84839FBF0895AB011F
:1018D00060E070E00E94CF0B0895AB0161E070E022
:1018E0000E94CF0B0895CF93DF93EC010BC0CE0184
:1018F00060E070E00E94670C009711F41C8205C044
:101900000E94C70B8C81882391F7DF91CF910895B6
:10191000AF92BF92CF92DF92EF92FF920F931F93FD
:10192000DF93CF93CDB7DEB72897CDBFDEBF81E081
:101930006FE140E00E94E20A883009F05CC08FE06D
:101940000E946C0A8EE00E946C0AA82E8EE061E074
:101950000E944D0AD0904906809149068C7FE0E4B0
:10196000F6E0818782E069E00E944D0A7E010894DA
:10197000E11CF11CC7010E9482058E010B5F1F4F05
:10198000BE2CCF2C25C0C8010E9482052D813E812E
:101990004F81588589819A81AB81BC81281B390B85
:1019A0004A0B5B0B2B3F31054105510588F08AE15D
:1019B0000E946C0A80FF03C0682F6E7F02C0682FF0
:1019C00061608AE10E944D0A8B2D9C2D0E94820548
:1019D00080E4E82E86E0F82E8091480682FFD3CF7F
:1019E0008FE00E946C0A81E0F7018487D1868EE047
:1019F0006A2D0E944D0A2896CDBFDEBFCF91DF91A0
:101A00001F910F91FF90EF90DF90CF90BF90AF901C
:101A100008951F93182F80918E248F3061F51092B6
:101A2000922489EA94E10E94BA03E0E4F6E081E0BE
:101A3000848780914906836081878FB7F894789472
:101A400098E09683909192249923E1F38FBF8FE0E1
:101A50000E946C0A83E994E10E94BA038EE068E078
:101A60000E944D0A88E080938E24183009F415C234
:101A7000133009F412C2183009F45BC0193050F465
:101A8000143009F4DFC0163009F4EBC0133009F04C
:101A9000FAC179C01F3069F0103120F4193009F013
:101AA000F2C19BC0163109F437C1193109F0EBC1FD
:101AB0008FC182E063E00E944D0A8FE00E946C0AB1
:101AC0008EE06FEF40E020E10E94FA0A8EE06FEFB7
:101AD00040E020E10E94FA0A10938E2400000000EA
:101AE00000000000000000000000000000000000F6
:101AF00000000000000000000000000000000000E6
:101B000000000000000000000000000000000000D5
:101B100000000000000000000000000088E0E0E499
:101B2000F6E0858383E290E00E948E0580918E240A
:101B3000B5C180918E24883009F4A5C182E068E0A7
:101B40000E944D0A0000000000000000000000009C
:101B50000000000000000000000000000000000085
:101B60000000000000000000000000000000000075
:101B70000000000000000000000000000000000065
:101B80000000000080C180918E24883009F47BC160
:101B900082E063E00E944D0A0000000000000000A7
:101BA0000000000000000000000000000000000035
:101BB0000000000000000000000000000000000025
:101BC0000000000000000000000000000000000015
:101BD000000000000000000056C180918E24883073
:101BE00009F437C0893020F4863009F04CC105C0B3
:101BF000863119F0893109F046C182E069E00E941E
:101C00004D0A00000000000000000000000000007D
:101C100000000000000000000000000000000000C4
:101C200000000000000000000000000000000000B4
:101C300000000000000000000000000000000000A4
:101C4000000021C180918E24883019F0893021F460
:101C50001AC10E94880C17C182E064E00E944D0AFC
:101C600012C180918E24893059F08A3020F4883056
:101C700009F009C12AC0863119F0893109F003C180
:101C800082E066E00E944D0A0000000000000000B3
:101C90000000000000000000000000000000000044
:101CA0000000000000000000000000000000000034
:101CB0000000000000000000000000000000000024
:101CC0000000000000000000DEC00E94880C82E0DE
:101CD00066E00E944D0A00000000000000000000C5
:101CE00000000000000000000000000000000000F4
:101CF00000000000000000000000000000000000E4
:101D000000000000000000000000000000000000D3
:101D1000000000000000B7C080918E24883009F4D4
:101D200030C0893020F4863009F0ADC005C089305C
:101D300019F0893109F0A7C082E066E10E944D0ADE
:101D40000000000000000000000000000000000093
:101D50000000000000000000000000000000000083
:101D60000000000000000000000000000000000073
:101D70000000000000000000000000000000000063
:101D800082C00E94880C82E066E10E944D0A000039
:101D90000000000000000000000000000000000043
:101DA0000000000000000000000000000000000033
:101DB0000000000000000000000000000000000023
:101DC00000000000000000000000000000005BC0F8
:101DD00080918E24883009F430C0893020F4863018
:101DE00009F051C005C0893019F0863109F04BC0A7
:101DF00082E069E10E944D0A00000000000000003E
:101E000000000000000000000000000000000000D2
:101E100000000000000000000000000000000000C2
:101E200000000000000000000000000000000000B2
:101E3000000000000000000026C00E94880C82E024
:101E400069E10E944D0A000000000000000000004F
:101E50000000000000000000000000000000000082
:101E60000000000000000000000000000000000072
:101E70000000000000000000000000000000000062
:101E800000000000000081E06FE140E00E94E20AF3
:101E900080938E248F31B9F301C088E01F9108959B
:101EA000809169248823E1F0809193248823C1F4F0
:101EB0008091732390917423009739F486E90E94EE
:101EC000C00B80937323909374238091732390911C
:101ED0007423009729F01092692486E10E94090D6D
:101EE00080916E24882351F08AE694E260E070E0ED
:101EF0000E94670C009711F00E94D40F80919324E8
:101F0000823011F40E940F100895EF92FF920F9308
:101F10001F93DF93CF930F920F92CDB7DEB7E0916F
:101F20007323F0917423309731F4CE01029661E06F
:101F30000E948D0A30C0E080F18080E0BE016F5FBA
:101F40007F4F41E00E94500B698167FD24C06D5FA7
:101F500006E910E0061B11090E0D1F1DC8010E94A5
:101F60008D0AF701078310876091732370917423A2
:101F70008AE694E20E944C0C86E90E94C00B809392
:101F8000732390937423009731F489E00E94090D24
:101F900081E0809369240F900F90CF91DF911F9182
:101FA0000F91FF90EF900895CF93DF939C01FC0178
:101FB000C081D181AF81B885EC91E0938F24F0E0AE
:101FC0003196EA0FFB1F60814181403218F44423AF
:101FD00019F003C04FE101C041E062956695669536
:101FE00063708FEF689FB001112450E0649FC001BF
:101FF000659F900D749F900D11246DE570E00E9417
:102000004C2D6F3F710511F008F06FEF608329834D
:102010003A83CE010E94FB19DF91CF91089510926F
:102020009324E0917523E83028F4F0E0E754FF4D65
:10203000808101C085E860916F24709170240E94B6
:102040002B1C0895CF93DF93EC01662331F08CE2D3
:1020500060EF44E020918D2404C08CE260EF44E006
:1020600020E00E94FA0AC230D10528F48CE26EE02A
:1020700041E027E005C08CE26EE041E0209185243C
:102080000E94FA0A89E10E94090D8931D9F78091ED
:1020900049068C7FE0E4F6E08187C130D10559F430
:1020A00080918F24833118F087E592E002C087E9A0
:1020B00090E00E948E05C0E4D6E088E08D830000A9
:1020C000000000008E838091902490919124FC0167
:1020D000608161500E94C20A81E0809393248091C4
:1020E000490683608987DF91CF910895FC01CB0178
:1020F00020919324222391F4E0936F24F093702491
:102100002781308520939024309391242115310527
:1021100039F0642F0E94221080E0089586E8089527
:1021200088EE0895882311F087E005C082E060EE14
:1021300045E00E94E20A8093752382E08093932415
:102140008091732390917423009739F489E00E9461
:10215000090D81E080936924089586E10E94090DAC
:10216000089585FD03C0982F9F7304C0982F919503
:102170009F71919520E030E0822FF901E851FE4FE8
:10218000E4919E1724F0E91744F4815008952F5FDD
:102190003F4F2031310581F780E008951F93CF93A1
:1021A000DF9382E260917F240E944D0A83E2609176
:1021B00080240E944D0AC1E7D4E214E2812F699184
:1021C0000E944D0A1F5F1C32C9F780E260917D2496
:1021D0000E944D0A81E260917E240E944D0A88E0AF
:1021E00060E645E0209183240E94FA0A8FE26FE0C6
:1021F00040E0209186240E94FA0A8EE268E043E0E3
:10220000209187240E94FA0A8FE260EF44E0209137
:102210008C240E94FA0A88E06FE140E02091842437
:102220000E94FA0A809188240E94B110282F85E02C
:102230006FE040E00E94FA0ADF91CF911F9108956C
:1022400085FD03C0982F9F7304C0982F91959F71AF
:102250009195E8EEF1E02491291744F4203EB4F082
:102260002032B4F427FF10C0822F0BC03F96E491B8
:102270009E178CF4E03E54F0E03254F4E7FF0AC0BD
:102280008E2F8F71806207C0822F05C080E203C04D
:102290008FE101C08E2F806808951F93CF93DF9345
:1022A000EB018E3431F0893541F4888180938D249F
:1022B000E0C0888180938524DCC020918E242F305B
:1022C00009F4D9C08B3009F4CCC08C3080F4823052
:1022D00009F491C0833020F4882309F446C0CDC0AE
:1022E000833009F494C0843009F0C7C06DC08335D1
:1022F00061F1843530F48F3459F0803509F0BDC078
:1023000016C0873509F46AC0803F09F0B6C086C0A0
:1023100098819093862480918C24891710F480935F
:1023200086248FE26FE040E020918624A0C088815F
:102330009981682F80937F249093802482E20E9469
:102340004D0A83E2609180240DC088819981682FB5
:1023500080937D2490937E2480E20E944D0A81E246
:1023600060917E240E944D0A84C08091932488232A
:1023700009F085C080E098EFAFEFB7E0088004C0B7
:10238000B695A795979587950A94D2F78170907026
:10239000009709F476C0283039F088E00E94090DD2
:1023A0008830D9F716E101C018E0288120938424F1
:1023B00088E06FE140E00E94FA0A183009F459C041
:1023C00086E10E94090D55C080919324882309F06D
:1023D00056C08881882309F455C053C028812093B2
:1023E0008C2480918624281710F4209386248FE271
:1023F00060EF44E03CC088810E94201180938824D3
:102400000E94B110282F85E06FE040E030C02881A5
:102410002093832488E060E645E029C0888180938A
:1024200071248981809372248A81809373248B81A3
:10243000809374248C81809375248D81809376247D
:102440008E81809377248F8180937824C1E7D4E2B2
:1024500014E2812F69910E944D0A1F5F1C32C9F757
:1024600008C02881209387248EE268E043E00E9420
:10247000FA0A80E007C081E805C084EF03C086E85F
:1024800001C088EEDF91CF911F91089584E0809381
:10249000852423E0209386248FEF9FEF80937F2471
:1024A0009093802480937D2490937E248BE080936E
:1024B000842480E098EFAFEFB7E080937924909385
:1024C0007A24A0937B24B0937C24109289248AE000
:1024D00091E080938124909382248AE080938A24DF
:1024E00082E080938B2485E080938C2420938D243C
:1024F00084E80E9420118093882481E080938324C3
:10250000109287240895DF93CF930F92CDB7DEB753
:1025100083E068E043E020E00E94FA0A83E067E09D
:1025200040E021E00E94FA0A0E94E32D682F8DE22C
:1025300099830E944D0A8EE267E040E09981292F3D
:102540000E94FA0A8EE260EC46E021E00E94FA0A5C
:102550008EE260E245E021E00E94FA0A8CE060E849
:1025600047E021E00E94FA0A8EE068E00E944D0AEE
:1025700086E16FEF0E944D0A0F90CF91DF91089591
:10258000FF920F931F93CF93DF9386E10E946C0A13
:10259000182F86E161EC0E944D0A00914906809156
:1025A00049068C7FE0E4F6E0818786E00E94090D11
:1025B0008630D9F785E160E847E020E00E94FA0A1A
:1025C00028E0F22EC0E0D0E086E060E645E00E9420
:1025D000E20A9E01220F331F220F331FC82FD0E0C3
:1025E000C22BD32B00000000000000000000000000
:1025F00000000000000000000000000000000000DB
:1026000000000000000000000000000000000000CA
:1026100000000000000000000000000000000000BA
:1026200000000000FA9409F0CFCF83E00E94090D6A
:102630008FE00E946C0AE0E4F6E081E08487018785
:10264000CE010E94E82D86E1612F0E944D0ADF91A4
:10265000CF911F910F91FF900895EF92FF920F93EA
:102660001F93DF93CF930F92CDB7DEB7F82E81E0A3
:1026700065E170E041E050E09E012F5F3F4F0E9416
:10268000380400E416E088E0F801868382ED90E0EB
:102690000E948E05EE24E394F801E68281E090E04A
:1026A0000E948E05F801E58200E084E690E00E9439
:1026B0008E0581E06FE140E00E94E20A0A30C9F035
:1026C000883011F00F5FF1CF80938E24298122236F
:1026D000C9F082E16FE040E00E94FA0A13C00E9454
:1026E00046120E94CE10109293241092692480E02A
:1026F00001C085E80F90CF91DF911F910F91FF905E
:10270000EF9008950E94C0120E948312FF2049F3A7
:10271000E6CF0E942D13882359F01CC08AE694E26C
:1027200060E070E00E94670C009711F00E94C70BF8
:1027300080916E24882391F783E994E10E94BA0383
:10274000E0E4F6E081E08487809149068360818738
:1027500080E0089585E808951F93CF93DF930E944A
:102760002004882309F0DAC0C0E4D6E011E01D831C
:1027700088E08E838AE491E00E948E051E8381E0CA
:1027800090E00E948E051D831AE003C0115009F4E9
:10279000C5C084E690E00E948E058CE10E946C0A20
:1027A0008B30A1F782E068E00E944D0A10E084E6D9
:1027B00090E00E948E0581E06FE140E00E94E20A15
:1027C0001A3009F4ABC0883011F01F5FF0CF80934E
:1027D0008E2481E060E070E048E050E021E734E2E0
:1027E0000E94380481E00E942D13882351F096C086
:1027F000C1E7D4E20E94E32D899384E2C937D80768
:10280000C9F78091712420917224509173246091B2
:10281000742470917524E0917624F0917724A0912E
:102820007824382F315041E0381708F040E0822FEB
:10283000815091E0821708F090E0480F21E048179E
:1028400008F020E0922B252F215081E0251708F079
:1028500080E0592F520F91E0521708F090E0892B39
:10286000262F215091E0261708F090E0682F620F84
:1028700081E0621708F080E0982B272F215081E03B
:10288000271708F080E0792F720F91E0721708F097
:1028900090E0892B2E2F215091E02E1708F090E028
:1028A000E82FE20F81E0E21708F080E0982B2F2F4D
:1028B000215081E02F1708F080E0920FF1E092178D
:1028C00008F0F0E08F2BA195A81779F49F3F69F4E9
:1028D000EF3F59F47F3F49F46F3F39F45F3F29F4EC
:1028E0004F3F19F43E3F08F083CF83E994E10E9403
:1028F000BA03809149068360E0E4F6E081870E9494
:102900008F0B86E90E94C00B8093732390937423EE
:102910008AE694E20E94450C80E001C085E8DF91E0
:10292000CF911F9108958FE00E946C0A83FF10C021
:1029300020919324213041F486FF02C081E001C040
:1029400080E00E94921002C00E94850F0E94932A8C
:1029500008958FE00E946C0A84FF03C081E0809399
:102960009224089580918E248F30A9F08091932431
:10297000882399F41092692488E00E94090D883018
:10298000D9F780E00E9478058FE00E94090D8F3012
:1029900031F480E0089581E8089586E8089586E896
:1029A000089580918E248F3051F488E00E94090DA3
:1029B000883039F481E00E94780580E0089582E84B
:1029C000089585E80895909193249923B9F4883067
:1029D00031F40E94090D1092692488E008958091D5
:1029E000732390917423009721F086E10E94090DD2
:1029F00003C081E08093692486E0089586E8089505
:102A0000FC012091482540914925542F5295569517
:102A10005695537046954695437009F44FC0819181
:102A2000919180934E2590934F25423009F5A0E572
:102A3000B5E21092502511961C92119712961C9295
:102A4000129713961C92139714961C92149715962E
:102A50001C92159716961C92169717961C9217970C
:102A600081919191809350259093512584E029C0C4
:102A7000433031F5A0E5B5E2808180935025818116
:102A800011968C931197828112968C931297838161
:102A900013968C931397848114968C931497858145
:102AA00015968C931597868116968C931697878129
:102AB00017968C93179738968AE003C080E001C080
:102AC00082E0552309F447C026FD08C021913191C9
:102AD0002093592530935A258E5F08C020914E25AA
:102AE00030914F252093592530935A255230C1F407
:102AF00010925B2510925C2510925D2510925E2548
:102B000010925F2510926025109261251092622527
:102B10002081318120935B2530935C258E5F1BC023
:102B20005330C9F4908190935B25918190935C25FB
:102B3000928190935D25938190935E2594819093EB
:102B40005F2595819093602596819093612597816B
:102B500090936225885F90914B259550981B909398
:102B600065255093582540934D250895A0917823CD
:102B7000B0917923ED91FC91119794EF908311829C
:102B800082834383548365837683278388E995E230
:102B9000BD010E944C0C0895BF92CF92DF92EF923C
:102BA000FF920F931F93FC01A081B18111967C913C
:102BB000119712966C91129713962D913C91149740
:102BC0001596BC9015971696CC9016971796DC9094
:102BD00017971896EC9018971996FC9019971A96D3
:102BE0000C911A971B961C911B971C96AC91809385
:102BF00078239093792380919E25882311F486E190
:102C000013C080917623882311F081E10DC07230CA
:102C1000C9F480917D2490917E24AC014E5F5F4F7A
:102C20004230510540F484E14FEF5FEFBA0120E0FC
:102C30000E94B61550C070938A2580938D2590937D
:102C40008E251EC083E080938A25EDE8F5E2809111
:102C5000712480938D2580917224818380917324C7
:102C600082838091742483838091752484838091EE
:102C70007624858380917724868380917824878346
:102C800080917F249091802480938B2590938C2534
:102C9000623019F460937F2503C083E080937F2521
:102CA000B0928225C0928325D0928425E09285251A
:102CB000F09286250093872510938825A093892577
:102CC00020938025309381251092A9241092AA2464
:102CD00081E0809377231F910F91FF90EF90DF9019
:102CE000CF90BF9008950E943A26089580E00E94F8
:102CF0001D060895809176238150823028F482E069
:102D000061E475E20E944D111092762310927723B0
:102D100010927B230E94ED250E94BA2A10927A23FA
:102D20000E9476160E94842608954091A424509112
:102D3000A5246091A6247091A72480E12091A82465
:102D40000E94B6150E947A1608954FEF5FEFBA0100
:102D500020E00E94B6150E947A16089580917E2583
:102D6000893001F18A3028F4833051F0863061F5E2
:102D70000DC08E3071F08031F9F08D3029F503C02F
:102D800083E090E011C08DE090E005C086E090E027
:102D90000BC08EE090E08093A9249093AA240E9417
:102DA0007A16089589E090E08093A9249093AA244C
:102DB00088E10E94A516089580E190E08093A924FF
:102DC0009093AA240E947A160895DF92EF92FF92C0
:102DD0000F931F93D82E80937E2580E040E050E82B
:102DE00067E070E020E00EEA16E1EE24FF240E9486
:102DF000F606882321F08D2D90E00E94AE161F91DB
:102E00000F91FF90EF90DF90089510927625109229
:102E10007725109279251092782510927C251092B2
:102E20007D2510927A2510927B2508958091772335
:102E3000882371F480914725882351F083E495E23B
:102E400060E070E00E94670C009711F00E946A1821
:102E500080919824882351F084E994E260E070E046
:102E60000E94670C009711F00E946A1880917B23E2
:102E7000882309F05EC0809177238A3009F455C019
:102E80008B3048F48430B1F1873009F448C0813088
:102E900009F04FC00EC08E3081F18F3020F48B309E
:102EA00009F047C024C08131E9F1853109F041C002
:102EB00027C0809376231092A9241092AA241092FE
:102EC000A8248FEF9FEFDC018093A4249093A52486
:102ED000A093A624B093A7240E9405170E947426ED
:102EE0008EE061E042E021E00E94DF1D08950E9433
:102EF000441E08950E945F2A08950E948D26089519
:102F000080E00E94082680917623813011F487E0CA
:102F100003C0823071F480E18093772308950E948A
:102F2000391E08950E942E1E08950E94071F0E94B8
:102F3000951608951092762384E994E20E94450C38
:102F40000E94051721E020939E251092A42510923F
:102F5000A52583E699E080939F259093A02582E0A4
:102F60008093A1258BE899E08093A2259093A325D7
:102F70008FEA8093A6252093A7252093A82586E095
:102F80000E94E31480E108950F931F93CF93DF9382
:102F90008C0186E90E94C00BEC010097E9F0F80172
:102FA00080810E94DC19482FA881B98183EF8C931E
:102FB000F801819111968C9311979D012E5F3F4FDF
:102FC000C901BF0150E00E94F32D83E495E2BE01E8
:102FD0000E944C0C81E001C080E0DF91CF911F91F5
:102FE0000F9108950F931F938C0186E90E94C00BE7
:102FF000BC01009799F0DC01ED91FC9181EF819388
:10300000802F912FDC018CE00D9001928150E1F72F
:1030100083E495E20E944C0C81E001C080E01F91A6
:103020000F91089588E995E20E94450C0E94AC1327
:10303000882371F40E949A17803151F40E94AA08E3
:10304000882341F083E495E20E94450C80E00895D6
:1030500085E8089585E8089588E995E260E070E0E4
:103060000E94670C009711F00E946A180E941617C0
:103070000E94500F0E94350481E00895EF92FF9264
:10308000CF93DF93E82EE7017E01F92EE7018881D7
:10309000998101960E94BD01C7010E94C70BDF9173
:1030A000CF91FF90EF900895EF92FF92CF93DF932F
:1030B000E82EE7017E01F92EE701888199810196CA
:1030C0000E941602C7010E94C70BDF91CF91FF90AB
:1030D000EF900895DC01ED91FC911197E0812E2F86
:1030E000205F273070F4F0E0EE0FFF1FE85EFF4F27
:1030F00025913491F901309711F0199508950E94A6
:10310000C70B089588E0E0E4F6E08583089588E041
:10311000E0E4F6E086830895CF93DF93C0E4D6E041
:1031200089858C7F89878FE00E946C0A87E160E83F
:1031300047E021E00E94FA0A84E060E446E021E0F2
:103140000E94FA0A82E08C87E1E4F8E090819F7E99
:1031500090839AE090930008909340088B87109298
:10316000600810926108898B80E180934C0883E0AD
:1031700080934708808180618083DF91CF9108959B
:1031800010924708E1E4F8E080818F7E80838FE031
:103190000E946C0AE0E4F6E0818583608187789480
:1031A00008951F920F920FB60F9211248F939F9341
:1031B0001092410810924708809160088E5F8093BA
:1031C0009D25909160089817E1F7909176239130B2
:1031D00011F48D5F01C0845F80939D2580919D25B2
:1031E000909160089817E1F7805C80939D2581E0BD
:1031F00080937A239F918F910F900FBE0F901F9015
:103200001895EF92FF920F931F93DF93CF930F9236
:10321000CDB7DEB7082F7B01142F8B3C09F44AC0D1
:103220008C3CA0F4803509F47CC0813538F48823C7
:1032300009F477C0823009F088C073C0883CD9F0A7
:103240008A3CF1F0833509F080C06BC0813D09F400
:1032500055C0823D30F48C3CA9F18E3C09F075C01C
:1032600048C0833D09F458C0833D08F450C0803FF6
:1032700009F06BC056C0FB01808180939E2518C069
:10328000FB01808191812091A2253091A3252450BA
:1032900030408217930708F05AC09C0124513940EE
:1032A0002C3C310508F053C080939F259093A025B6
:1032B00090E14EC0FB018081843008F048C08093CB
:1032C000A125F6CFFB018081918120919F2530912E
:1032D000A0252C5F3F4F28173907C8F59C012451C2
:1032E00039402C3C310598F58093A2259093A32575
:1032F000DFCFFB0180818093A425DACFFB018081A1
:103300008093A6250E9420118093A625D1CFFB0192
:1033100080818093A725CCCFFB0180818093A82555
:10332000C7CF802FB7010E944D11982F813881F4AB
:103330000E94D114802FB7010E944D11982F88232D
:1033400039F481E080937C2303C093E101C094E1D0
:10335000112359F080917C23882339F080E09983F0
:103360000E94B21410927C239981892F0F90CF91E3
:10337000DF911F910F91FF90EF9008950F931F938E
:10338000CF93DF938C01FC01C081D181BE016E5FC0
:103390007F4F898141E00E94011999819A8396EFBC
:1033A0009883898388E995E2B8010E944C0CDF91EB
:1033B000CF911F910F910895982F985C9C3030F415
:1033C000E82FF0E0EA58FF4F84910895803569F0C6
:1033D000813528F4882369F0823029F40AC08335C6
:1033E00021F0803F21F080E0089582E0089588E098
:1033F000089581E00895FC0180EF808361817281EE
:103400006115710521F084E994E20E944C0C089545
:10341000EF92FF920F931F93CF93DF93E82EE70174
:103420007E01F92EE701E881F981A781B0858C91B1
:1034300080934B25A80FB11D11968C918093642524
:103440000780F085E02DE1808281E092482580931D
:103450004925838180934C258F010C5F1F4FC80144
:103460000E9400159E2D977090934A25913009F087
:1034700081C190916525992309F47AC1963718F096
:1034800096E790936525F801E80FF11DE093662516
:10349000F09367258081823509F06CC1DF011196B8
:1034A0008181843509F066C1FD01319611968C91B8
:1034B0001197823409F05EC17F010894E11CF11C70
:1034C00087010F5F1F4F8181813109F4F2C0823182
:1034D00030F4813059F0823009F04CC1C3C08132E0
:1034E00009F4F4C0823209F045C112C180914D2522
:1034F00080937F2580914E2590914F258093802544
:1035000090938125E2E8F5E2809150258093822511
:10351000809151258183809152258283809153250A
:103520008383809154258483809155258583809160
:1035300056258683809157258783809158258093CF
:103540008A258091592590915A2580938B259093B7
:103550008C253B9680915B2580938D2580915C2501
:10356000818380915D25828380915E258383809114
:103570005F25848380916025858380916125868382
:1035800080916225878380917623882309F0F2C099
:1035900080919E25882379F486E190E08093A92488
:1035A0009093AA248BE08093772382E08093762304
:1035B0000E940517DFC082E0809376230E940517E2
:1035C000D70111962C91D8011196F8018181813093
:1035D00009F040C0FD01319611968C911197813010
:1035E000B1F5809395258181928180936F25909389
:1035F00070258381809371258481958180937225C4
:103600009093732586818D7F809397258091A62541
:10361000809396252A3049F4DF01179687818130FF
:1036200021F411968C91809396250E9462260E9427
:10363000732A882319F484E190E00EC00E94742656
:103640000E9473161092A9241092AA2409C087E13F
:1036500090E002C089E190E08093A9249093AA248D
:103660008BE01BC080917623813009F083C00E94DB
:103670007616F8013196D70111968C911197803109
:1036800079F4DF0111968181813031F411968C91AA
:10369000809397250E94622684E0809377236AC0F6
:1036A000F80181814FEF5FEFBA0120E00E94B6156B
:1036B0002CC080917623823009F05CC00E9476167F
:1036C0008EE0809377230E94E51654C08091762384
:1036D000823009F04FC00E947616D70111968C9166
:1036E000119780934225882381F4F801818180938A
:1036F0009924828193810E945225909199248091EE
:103700007525981710F481E1C8CF0E947A1632C04F
:1037100080917623813071F580917723893051F53E
:103720000E947616D70111969C911197809142259F
:10373000981701F5C80101960E948C250E94CA25A0
:10374000882381F440919924242F30E080917525BD
:1037500090E00197281739073CF44F5F4093992474
:103760000E94ED2587E099CF0E94E6258AE095CF5B
:1037700010926525CE010E94C70BDF91CF911F915A
:103780000F91FF90EF900895CF93DF93EB0110928C
:103790007B239881903111F1913130F49E3051F0BA
:1037A0009F3009F051C00EC0923121F1933109F0E0
:1037B0004BC029C0893E11F1813E01F10E94731670
:1037C00083E03EC0893EC1F1813EB1F18091A924E0
:1037D0009091AA24009781F58DE032C0893E71F066
:1037E000813E61F086E0809377230E94E5160E9477
:1037F0008D262AC0893E11F0813E19F40E94A5163B
:1038000023C089E01DC0893EB9F0813EA9F00E9425
:10381000D8258823A1F02091992430E08091752546
:1038200090E00197281739073CF480E180937723D3
:103830000E94ED2580E106C00E947A1605C080E155
:10384000809377230E94E51689819A810E94C70B95
:10385000DF91CF9108950E94C41B0895CF92DF920B
:10386000FF920F931F93CF93DF938B01813109F464
:10387000A0C0823130F4813071F0823009F0FCC098
:1038800073C0813209F4B1C0823209F4C6C08231FA
:1038900009F0F2C09DC0EB01CA57DF4FFE018193D2
:1038A000DF01119698E09983809395259091A62544
:1038B0009093962520919F253091A02520936F25E8
:1038C000309370259091A125909371252091A22588
:1038D0003091A32520937225309373259091A825CC
:1038E000909374258183FD013196909195251196D1
:1038F0009C93DF01119690916F259183FD01319684
:103900009091702511969C93DF01119690917125ED
:103910009183FD0131969091722511969C93DF0160
:103920001196909173259183FD0131969091972581
:1039300011969C9311979091A725992339F0818333
:1039400080919625828389818E5F89838091A725C6
:10395000882309F09BC0EFE7F5E2DF011B9680E2C8
:1039600090E029E1F22E9AC0EB01C457DF4FFE012F
:1039700081938091A9249091AA24009781F480E1F9
:103980008983DF01119611828091952511968C9380
:1039900011978091972512968C93129705C082E11A
:1039A00089838091A9248183EAE8F5E2DF011B97EE
:1039B0002FC0EB01C157DF4F888381E08983EFE798
:1039C000F5E2DF011B9680E090E070E1F72E66C023
:1039D000EB01C057DF4F8883EAE8F5E2DF011B9770
:1039E00080E090E06FE0F62E59C0EB01C457DF4F46
:1039F000FE0181938091422589838091992481835E
:103A0000CF0102960E945725EFE7F5E2DF011B96F2
:103A100080E290E053E1F52E41C0EB01C457DF4F47
:103A20000E94BE25282F392FC9018F35910510F02E
:103A30008EE590E0C81BD90BFE0122E22193209174
:103A400042252983DF011196209199242183BD010C
:103A50006F5F7F4FF82E11968C93FB0111826E5F82
:103A60007F4F0E945F25F3E1FF0EEAE8F5E2DF01F8
:103A70001B9780E290E012C0E0E0F0E0A0E0B0E050
:103A800080E090E0C0E0D0E0FF2408C0EFE7F5E27E
:103A9000DF011B9680E290E04BE1F42E22E42A93B2
:103AA000BE0144E54A939E012150304042E5E901C0
:103AB00048832C91223071F43CEFC32E3FEFD32E7C
:103AC000C60ED71E13962D913C911497E6012883BC
:103AD000398315C026EFC22E2FEFD22EC60ED71E69
:103AE00026E0F20EA6019D012D5F3F4F68E0E9013F
:103AF00009909E01EA010992AE016150C1F7119649
:103B00002D913C911297418152812417350711F470
:103B1000806406C042E0F40EE6013A932A936E01F7
:103B20002081223039F423813481E6013A932A93AB
:103B30006E0113C028EF3FEFC20ED31E36E0F30E26
:103B4000A6019F012D5F3F4F68E0E90109909E01AA
:103B5000EA010992AE016150C1F79601225030404E
:103B600041815281E90148835983960123503040B5
:103B7000E9011882A601455050402C91722F729590
:103B8000770F770F707C60E0E0813E2F330F330FAB
:103B900020E0262B372B2160282B392BFA0120839C
:103BA0003183E6012697F882F801C783D087DF9139
:103BB000CF911F910F91FF90DF90CF900895AF921A
:103BC000BF92DF92EF92FF920F931F93DF93CF93F9
:103BD0000F92CDB7DEB7D82EE42EF22E86E9698398
:103BE0000E94C00B5C016981009729F48F2D813000
:103BF00021F585E11CC0FC0100811181F801D08212
:103C0000862FB8010E942E1CF801A182B282E09298
:103C10007723C80162E070E041E00E9476108823BB
:103C200079F0C5010E94C70BFF2039F081EE4FEFFC
:103C30005FEFBA0120E00E94B6150E947A1603C019
:103C400081E080937B230F90CF91DF911F910F91A3
:103C5000FF90EF90DF90BF90AF9008950E94F625FF
:103C6000882331F083E162E242E120E00E94DF1D1F
:103C7000089580917623813031F482E161E248E059
:103C800021E00E94DF1D08958FE062E04CE020E01B
:103C90000E94DF1D08952F923F924F925F926F9284
:103CA0007F928F929F92AF92BF92CF92DF92EF92CC
:103CB000FF920F931F93DF93CF93CDB7DEB72E976D
:103CC000CDBFDEBF3B01440F440F440F19824A832E
:103CD000542F550F5B83450F4C83E22FF32FBB24EA
:103CE000B394CC24DD2400E8402E512C1E0108940E
:103CF000211C311C15E0812E912C8C0E9D1E6DC057
:103D0000DC012C917201E21AF108B10184018D8766
:103D10009E8740E050E0DB012D91BD01D701A21B41
:103D2000B1099D01AD85BE85AC902A0D311D307065
:103D3000D8012D933D938D01420F531FAD85BE8554
:103D40001D92AD87BE876815790529F7559547956A
:103D5000559547954E1940830B851C852D813E81D5
:103D60007801E21AF30AB901660F771F620F731F19
:103D7000AF81B8859D01220F331F2A0F3B1F261BE1
:103D8000370BA985BA85BD01660F771F6A0F7B1FA8
:103D90006E0D7F1DD801AA0FBB1FA00FB11F6A1B9C
:103DA0007B0B2E193F0937FF03C0309521953F4FFC
:103DB00077FF03C0709561957F4F620F731F6B375C
:103DC00071052CF4442321F4B082B19401C0108217
:103DD00004960894C11CD11C3196C614D7040CF467
:103DE0008FCF2E96CDBFDEBFCF91DF911F910F9168
:103DF000FF90EF90DF90CF90BF90AF909F908F900B
:103E00007F906F905F904F903F902F9008952F92EA
:103E10003F924F925F926F927F928F929F92AF925A
:103E2000BF92CF92DF92EF92FF920F931F93DF9397
:103E3000CF93CDB7DEB7E497CDBFDEBF1D8AD6C323
:103E40004F2D50E07D88672C77246B8A7C8A2EE486
:103E500030E0629E5001639EB00C729EB00C112443
:103E600089EA95E2A80EB91EAD8EBE8EECE3F1E0B4
:103E70006E9ED0016F9EB00D7E9EB00D1124A45B8E
:103E8000B94D2FE430E0629EF001639EF00D729E0A
:103E9000F00D1124EC53F74D8F019D01C50160E039
:103EA00070E0415050406F011BC0F801E1908F015C
:103EB000EE2051F0E080EE2039F0F901E080EE20B4
:103EC00019F0E180EE2019F4FC01108204C0662490
:103ED0006394FC0160826F5F7F4F01962F5F3F4FBD
:103EE0006417750714F3F6018BE996E24F2D50E045
:103EF000480F591F9C018D0111C0D8017D918D0182
:103F0000772339F06081662321F0761BD9017C93F9
:103F100002C0D9011C922F5F3F4F319624173507FD
:103F200061F760904526772440906829552447FC26
:103F3000509480907125EAEEF6E2E98FFA8F992489
:103F400020E030E01301089421083108850113C0F6
:103F5000D8014D918D0141119394BC010196DB0173
:103F600011964C91119750E06C91461B5109419369
:103F700051932F5F3F4F2215330554F3CB88DC88D4
:103F8000E9E9F4E2CE0EDF1E692D70E080E090E0FA
:103F90000E94D42B7B018C01B101882777FD80958D
:103FA000982F0E94D62B9B01AC01C801B7010E943B
:103FB0003B2B20E030E048EC52E40E94CA2C0E94E7
:103FC000A82BD60119966C93E82DF0E0EFA3F8A783
:103FD000B201882777FD8095982F0E94D62B69A380
:103FE0007AA38BA39CA3EFA1F8A5EE0FFF1FEE0F02
:103FF000FF1FEA53FF4D20813181428153810E948E
:10400000CA2C69A77AA78BA79CA7AAEEB6E2F501EE
:10401000DD2460E070E000E010E081E090E02EEF51
:10402000E22E2FEFF22EE60CF71C20C02181222376
:10403000D1F020812223B9F0D39412964D905C9058
:1040400013972D913C9111973201621A730A9301D3
:1040500028533F4F41E02139340718F00F5F1F4FBD
:1040600002C0640D751D0196319612968E159F053E
:10407000ECF2ED2CFF24660F771F882777FD8095E3
:10408000982F0E94D62B2B013C01B701601B710BAE
:10409000882777FD8095982F0E94D62BB9A5AAA5D1
:1040A000FBA5ECA52B2F3A2F4F2F5E2F0E94CA2C79
:1040B0009B01AC010E94C02A9B01AC01C301B2016B
:1040C0000E94BF2AE62F472F382F292FC801969527
:1040D000982F882797958795B701615070400E9467
:1040E000602D8B01005810406E2F742F832F922F5C
:1040F0000E94A32B5DEF683A75071CF081E090E009
:1041000002C08FEF9FEF809F9001819F300D909FA5
:10411000300D1124890100501F4FEAEEF6E2D5015F
:1041200060E070E080E090E0A9011BC02081318157
:104130000217130724F4205031402083318320815B
:1041400031812417350724F420503F4F20833183D9
:104150002D91222321F020813181620F731F01965E
:1041600032968215930514F39920D9F0882777FDAC
:104170008095982F0E94D62B7B018C01692D70E0D1
:10418000882777FD8095982F0E94D62B9B01AC0144
:104190006E2D7F2D802F912F0E943B2B2B013C01F8
:1041A00004C044245524662477240AEE16E2EE2443
:1041B000FF2415C0AD8DBE8D8D91AD8FBE8F882330
:1041C00049F4642D752D862D972D0E94A32BF8019F
:1041D000608371830894E11CF11C0E5F1F4FE21491
:1041E000F30444F3209045263324642D752D862D49
:1041F000972D20E030E040E051E40E94CA2C0E945C
:10420000A32BEAEEF6E2DD2440E050E020E030E0CF
:104210000894210831081BC001911191C801A3E045
:10422000880F991FAA95E1F7861B970B895E9E4F11
:10423000A1E0803E9A0748F4D501A20FB31F8C91EC
:10424000882319F0400F511FD3942F5F3F4F221541
:10425000330514F3DD20C9F0BA01882777FD809576
:10426000982F0E94D62B7B018C016D2D70E0882742
:1042700077FD8095982F0E94D62B9B01AC01C80139
:10428000B7010E943B2B2B013C01642D752D862D1F
:10429000972D20E030E040E65FE30E94CA2C6DA736
:1042A0007EA78FA798AB08E010E002C01595079590
:1042B0008A94E2F7EAEEF6E2EE24FF2480E090E052
:1042C00005C021913191E20EF31E019680179107EE
:1042D000C4F3F101E01BF10BED8FFE8FEE0FFF1F1A
:1042E000E651F94D8D8D9E8D05C021913191E20EE3
:1042F000F31E019682159305C4F39801220F331F14
:1043000029AB3AAB0BAB1CAB49014AEE56E2840E2B
:10431000951E1DA21EA25701AFC02DA13EA1E98D81
:10432000FA8D80E090E04BA95CA9400F511F06C0B8
:1043300061917191860F971F2F5F3F4F24173507AB
:10434000BCF369A97AA90E94602D882777FD809522
:10435000982F0E94D62B242D352D462D572D0E94A7
:10436000BF2AF62EE72ED82EC92EA7019601652F5B
:10437000742F832F922F20E030E040E051E40E9420
:10438000BF2A20E030E0A9010E94C62C1816E4F4F0
:10439000D4016D917C91882777FD8095982F0E949C
:1043A000D62B20E030E040E05EE30E94CA2C9B0167
:1043B000AC01BDA5AEA5FFA5E8A96B2F7A2F8F2F65
:1043C0009E2F0E94BF2A35C0A7019601652F742F2A
:1043D000832F922F20E030E040E951E40E94C02A70
:1043E00020E030E0A9010E94372BF4016081718147
:1043F00087FF19C0882777FD8095982F0E94D62BBC
:1044000020E030E040E05EE30E94CA2C9B01AC015A
:10441000BDA5AEA5FFA5E8A96B2F7A2F8F2F9E2FE4
:104420000E94C02A06C0882777FD8095982F0E9499
:10443000D62B6B017C01B501882777FD8095982FDD
:104440000E94D62B2C2D3D2D4E2D5F2D0E94C02A73
:104450000E94A32B5B010F5F1F4F2DA13EA12F5F79
:104460003F4F2DA33EA342E050E0840E951E898D60
:104470009A8D0296898F9A8FAD8DBE8D0A171B0774
:104480000CF44BCFB501882777FD8095982F0E94BB
:10449000D62B7B018C01DE011396E6EDF0E280E184
:1044A00001900D928150E1F79090C120EFA1F8A505
:1044B000EE0FFF1FEE0FFF1F71E0672E712C6C0EC9
:1044C0007D1EE60DF71DA280B380C480D580B101AA
:1044D000882777FD8095982F0E94D62B9B01AC01F1
:1044E0006E2D7F2D802F912F0E943B2B7B018C0105
:1044F00069A17AA18BA19CA12AE037ED43E25AE39E
:104500000E94CA2C29A13AA14BA15CA10E94CA2CED
:104510009B01AC01B9A5AAA5FBA5ECA56B2F7A2F31
:104520008F2F9E2F0E94BF2A9B01AC01C801B701AB
:104530000E94BF2AA60195010E943B2B2BE83DEF6C
:1045400045E15FE30E94CA2C2DEC3CEC4CE45FE3B8
:104550000E94BF2AF62E072F182FE92E20E030E008
:1045600040E450EC0E94372B87FF14C060E070E0FD
:1045700086E193E4A60195010E943B2B9B01AC01CF
:104580006F2D702F812F9E2D0E94C02AF62E072F8F
:10459000182FE92E6F2D702F812F9E2D20E030E0F7
:1045A00048EC52E40E94CA2C0E94A32B9B01AC0150
:1045B000892D992787FD9095A92FB92FEB89FC8923
:1045C000EE0FFF1FEE0FFF1FE756FB4D820F931FED
:1045D000A41FB51FB7FF03C080E090E0DC0181831A
:1045E0009283A383B4832D892F5F2D8B0091752532
:1045F000F09045263D89301708F422CC0CA78CE3B7
:1046000091E0809376259093772500937825F0921A
:1046100079258CE496E280937A2590937B2584EC2F
:1046200098E280937C2590937D25023008F410C297
:104630004AE954E249A35AA3E02EFF241701220CB1
:10464000331C220C331C240E351EFA0160E070E08E
:10465000CB0108C02191319141915191620F731F9B
:10466000841F951FE215F305A9F7202F30E040E0E5
:1046700050E00E94732D122F3FA349A75AA7822F03
:10468000932FDA018D8B9E8BAF8BB88F5091742551
:104690005BA7CE0101968B8B9C8B8E0D9F1D8DA3EE
:1046A0009EA39AE9892E94E2992EAB88BC882FEFBD
:1046B0003FEFA901298F3A8F4B8F5C8FD02EC12EEF
:1046C0005BC0E1E0D501EC93D401ED90FD900D913C
:1046D0001C91BBA5BB23E1F1C801B7010E94D42BFB
:1046E0006D8F7E8F8F8F98A36C2D7FA189A59AA542
:1046F0000E94D42B2B013C0120E030E048E452E43E
:104700000E94CA2C20E030E048EC52E40E943B2B8F
:104710009B01AC016D8D7E8D8F8D98A10E94C62C62
:10472000181694F4C301B20120E030E040EC5FE3DE
:104730000E94CA2C9B01AC016D8D7E8D8F8D98A13E
:104740000E94372B87FD04C0D5011C92DA940DC05E
:10475000298D3A8D4B8D5C8DE216F3060407150703
:1047600020F4E98EFA8E0B8F1C8F0894A11CB11CCB
:1047700044E050E0840E951E8DA19EA1A816B906B6
:1047800009F09FCF0D2DDD2009F4A3C09CA5D916FB
:1047900051F41BC02191319141915191620F731FCE
:1047A000841F951F05C0EAE9F4E260E070E0CB01E8
:1047B000E215F30579F7202F30E040E050E00E9449
:1047C000732D2D8B3E8B4F8B588F8AE9A82E84E258
:1047D000B82E8B889C88CC24DD247601C501B02EB0
:1047E0008C011CC0D4018D914D018823A9F0F801E2
:1047F00020813181428153818D899E89AF89B88D15
:10480000281B390B4A0B5B0BCA01B9010E942D2DE5
:10481000C60ED71EE81EF91E0C5F1F4FADA1BEA12C
:104820008A169B06F9F62B2D30E040E050E0C701D8
:10483000B6010E94732DCA01B9010E94D42B20E059
:1048400030E048EC52E40E94C02A9B01AC0160E0D9
:1048500070E088EC92E40E943B2BC62EE72E082FD6
:10486000A92E6D897E898F89988D0E94D42B9B01FA
:10487000AC016C2D7E2D802F9A2D0E94CA2C3B01FD
:104880004C0160E070E080E89FE32C2D3E2D402F2E
:104890005A2D0E94BF2A7B018C01698D7A8D8B8DE8
:1048A0009C8D0E94D42B9B01AC01C801B7010E94D2
:1048B000CA2C9B01AC01C401B3010E94C02A0E9412
:1048C000A82B262F372F482F592F2D8B3E8B4F8B00
:1048D000588F2D893E894F89588D2093A424309379
:1048E000A5244093A6245093A724809175254B8935
:1048F0005C89480F511D4D8B5E8BAAE9B4E2EB89B0
:10490000FC89EE2460E070E0CB010EC021912223EF
:1049100051F02D913D914D915C911397620F731F52
:10492000841F951FE39414966D887E88E615F7051D
:1049300069F7EE2009F488C02E2D30E040E050E009
:104940000E94732D922E532EF42E752E02EA14E23D
:1049500088246624442422245AC0AB89BC898D91C2
:10496000AB8BBC8B882309F44BC0E9A1FAA1608111
:104970007181828193810E94D42B5B016C01692D2E
:10498000752D8F2D972D0E94D42B9B01AC01C60154
:10499000B5010E943B2B20E030E040E85FE30E943D
:1049A000BF2A5B016C01E894D7F8D8016C9170E0E4
:1049B000882777FD8095982F0E94D62B698F7A8F54
:1049C0008B8F9C8F60E070E080E89FE3A6019501EB
:1049D0000E94BF2A9B01AC01698D7A8D8B8D9C8DC5
:1049E0000E94CA2C0E94242B9B01AC01682D762DBD
:1049F000842D922D0E94C02A862E672E482E292EA5
:104A0000E9A1FAA13496E9A3FAA30F5F1F4F2B89FE
:104A10003C894D895E892417350709F09ECFFF2414
:104A2000B701882777FD8095982F0E94D62B9B0190
:104A3000AC01682D762D842D922D0E943B2B0E9477
:104A4000242B0E94A82B01C060E06093A82414C00E
:104A500080919A2490919B24A0919C24B0919D24B4
:104A60008093A4249093A524A093A624B093A72474
:104A70008091A2248093A824E496CDBFDEBFCF917D
:104A8000DF911F910F91FF90EF90DF90CF90BF903B
:104A9000AF909F908F907F906F905F904F903F90DE
:104AA0002F90089580936229909363290895FC01C3
:104AB00080914626808380914726818308950F93B5
:104AC0001F93CF93DF938C01CB01E0919924F0E009
:104AD0002CE331E0E29FA001E39F500DF29F500DC7
:104AE0001124445B594D4093482650934926C8E40D
:104AF000D6E23A912A91240F351FB901A8010E94EC
:104B0000F32D88819981800F911F88839983DF918C
:104B1000CF911F910F910895DC012D91209399243D
:104B2000FC01418111965C91409362295093632965
:104B3000EFE42E9FF0011124EC53F74DE09348264B
:104B4000F093492660914626709147266E0F7F1F8D
:104B50009C012D5F3F4FCB01B9010E94F32D809145
:104B60006229909163292091462630914726820F31
:104B7000931F8093462690934726089520914A26B6
:104B800030914B268091462690914726281B390B61
:104B9000C901089581E04091462650914726209111
:104BA0004A2630914B264217530708F080E00895BB
:104BB00081E0409146265091472620914A26309127
:104BC0004B264217530708F480E008958FEF9FEFBC
:104BD000809346269093472608951092622910925A
:104BE0006329109246261092472608952091622943
:104BF00030916329209346263093472681E04091E7
:104C00004A2650914B264217530708F480E0089536
:104C10001F93CF93DF93882349F51092992410E0D6
:104C2000CCE3D1E015C0812F90E08C9F90018D9F47
:104C3000300D9C9F300D1124245B394D4091682923
:104C4000552747FD5095C90170E00E944B1E1F5F1C
:104C50008091752560914526181728F360934A26A0
:104C600010924B260E94ED2510924225DF91CF91A4
:104C70001F910895609172257091732580916F2521
:104C800090917025681B790B80917125882319F408
:104C9000660F771F0DC0823021F4CB0162E070E017
:104CA00005C0833029F4CB0164E070E00E94602DE0
:104CB0006F5F7F4F6035710514F06FE470E06093B3
:104CC0004526089581E0809375258091972580FF82
:104CD00003C092E09093752581FF05C080917525F2
:104CE000880F80937525089581E080936429109240
:104CF0006529109266291092672983E060E847E0F1
:104D000021E00E94FA0A08951092642983E060E885
:104D100047E020E00E94FA0A08952F923F924F92B6
:104D20005F926F927F928F929F92AF92BF92CF923B
:104D3000DF92EF92FF920F931F93DF93CF93CDB744
:104D4000DEB7A197CDBFDEBF809188248093412537
:104D500082E066E975E20E944D11809176238230EF
:104D600009F059C00E948C1882E16BEA74E20E943B
:104D70002E1C60916529809166299091672970E0C9
:104D80000E94602D609368290E94842682E06FE172
:104D900040E029E10E94FA0A000000000000000043
:104DA0000000000000000000000000000000000003
:104DB00000000000000000000000000000000000F3
:104DC00000000000000000000000000000000000E3
:104DD000000000000000000081E06FE140E00E9460
:104DE000E20A8931C9F78FE0809377230091B224DA
:104DF0001091B324D8016C9161506F8F0E9482187A
:104E000081E090E00E948E050E948718C8016F8D96
:104E10000E94C20A02C00E948C1810926008109270
:104E2000610881E080934C0880917A23882321F4E3
:104E300080914C0880FFF8CF80917A23882309F471
:104E4000E5C2F89480919D25909160089817E1F74C
:104E5000805B93E190937723909160089817E1F736
:104E6000805880939D2580917623813029F48DE3AD
:104E700060E245E020E00CC0823061F483E060E154
:104E800044E021E00E94FA0A8DE360E245E021E07F
:104E90000E94FA0A85E160E847E021E00E94FA0AF0
:104EA00080919D25909160089817E1F783E060E27A
:104EB00045E021E00E94FA0A80919D258D51809362
:104EC0009D258DE360E847E021E00E94FA0A8DE32A
:104ED00060E446E020E00E94FA0A8DE360E144E0ED
:104EE00021E00E94FA0ABE016F5F7F4F8EE1FB0155
:104EF00011928A95E9F78FE7898380E04EE10E945D
:104F00001D0B84E18093772380919D25909160080B
:104F10009817E1F7805A80939D258CE496E2FE0174
:104F200031966091752570E04CE351E0649F9001EB
:104F3000659F300D749F300D1124280F391F04C058
:104F400081939193845C9E4F82179307C9F78DE0FC
:104F500068E043E020E00E94FA0A8DE064E042E06D
:104F600020E00E94FA0AE090762381E090E0009031
:104F7000712502C0880F991F0A94E2F7482EFE2D72
:104F8000F13039F480916F25FEE7DF2ED80EDD0C6D
:104F900009C080916F259091702582509940D82E3C
:104FA000DD0CD39480919D25909160089817E1F7CE
:104FB000805F909160089817E1F78C5D80939D2544
:104FC00082E064E00E944D0A3E2D313019F482E007
:104FD00066E004C08E2D823019F462E00E944D0A12
:104FE00080919D25909160089817E1F7885E8093E5
:104FF0009D259E2D913081F486E00E946C0A8F7170
:10500000803120F4883020F468E003C06AE001C0F9
:1050100069E08CE30E944D0A80919D259091600883
:105020009817E1F78C5D80939D2582E064E00E94F3
:105030004D0AAE2DA13019F482E062E005C0BE2D0C
:10504000B23021F482E066E00E944D0A80919D25F5
:10505000909160089817E1F7885E80939D25EE2D6A
:10506000E23081F486E00E946C0A8F71803120F476
:10507000883020F468E003C06AE001C069E08CE396
:105080000E944D0A80919D25909160089817E1F744
:10509000AA24E0E1FE2E74ED872E62ECB62E52E0DB
:1050A000752E46E0642E1E010894211C311C3BEB3A
:1050B000532E0E2DED2C8AC120919D25285E209324
:1050C0009D251091452680916F2590917025F9E0DE
:1050D00082389F0714F488E001C089E0A091C420C1
:1050E000B091C5201696FC921697E091C220F091DF
:1050F000C3208382928197FFFDCF8383828187FFC4
:10510000FDCF1596FC9215971696FC92169733EDE7
:105110003383828187FFFDCFE382828187FFFDCFCA
:105120001596FC921597809160088217E1F79E2DE5
:105130009E2CCA2CDD24CC0CDD1CC20CD31C80910F
:105140009D25885D80939D259916B0F4A091C4207B
:10515000B091C5201696FC921697E091C220F0916E
:10516000C3208382828187FFFDCF89E08383828190
:1051700087FFFDCF1596FC9283E1692D0E944D0AB1
:1051800011508DE063E040E020E00E94FA0A809137
:105190009D25909160089817E1F7885D80939D2583
:1051A000A091C420B091C5201696FC921697E0916C
:1051B000C220F091C320B382928197FFFDCF94E08B
:1051C0009383928197FFFDCF1596FC92159701303E
:1051D00061F41696FC921697B382928197FFFDCFE9
:1051E0006382928197FFFDCF0DC0023071F4169655
:1051F000FC921697B382928197FFFDCF73829281C2
:1052000097FFFDCF1596FC9215979091600898171F
:10521000E1F7013009F042C0D6012D913C91A091F7
:10522000C420B091C520E091C220F091C3206091CC
:105230009D25562F585FC90144E0A8A3B9A3A8A192
:10524000B9A11696FC925382A8A1B9A1728177FFE9
:10525000FDCFA8A3B9A31382A8A1B9A1728177FF3A
:10526000FDCFA8A3B9A373811596FC92DC017D93B1
:10527000CD01A8A1B9A1709160087517E1F7A8A3A5
:10528000B9A34150585F4423D1F6605E60939D25D9
:105290002C5F3F4FF6012083318309C0023039F47F
:1052A000805E80939D25909160089817E1F780912A
:1052B0009D25885D80939D2582E064E00E944D0AD3
:1052C0000130A1F4A091C420B091C5201696FC92A3
:1052D0001697E091C220F091C320B382828187FFAC
:1052E000FDCF7382828187FFFDCF15C00230B1F4FC
:1052F000A091C420B091C5201696FC921697E0911B
:10530000C220F091C320B382828187FFFDCF6382E8
:10531000828187FFFDCF1596FC92159740919D25C0
:10532000809160088417E1F7013041F4405E4093BA
:105330009D25809160088417E1F742C0023009F092
:105340003FC0D6012D913C91A091C420B091C520C1
:10535000E091C220F091C320642F685FC90154E03E
:10536000A8A3B9A3A8A1B9A11696FC925382A8A19B
:10537000B9A1728177FFFDCFA8A3B9A31382A8A119
:10538000B9A1728177FFFDCFA8A3B9A37381159648
:10539000FC92DC017D93CD01A8A1B9A170916008B8
:1053A0007617E1F7A8A3B9A35150685F5523D1F64A
:1053B000405E40939D252C5F3F4FF6012083318353
:1053C000112319F0992D940CBACEA39480917525D0
:1053D000A81608F471CE0E94C01880E00E948913BC
:1053E00086E00E94E31480917623813011F40E94BC
:1053F000761680917623813029F4809168298195F1
:105400008093682985E18093772343C00E94C01868
:1054100080917623823009F02CC06FE140E026E1D4
:105420000E94FA0A000000000000000000000000D6
:10543000000000000000000000000000000000006C
:10544000000000000000000000000000000000005C
:10545000000000000000000000000000000000004C
:105460000000000081E06FE140E00E94E20A863126
:10547000C9F781E090E08093A9249093AA248091B9
:105480007623813021F488E10E94A51602C00E9493
:105490007A16A196CDBFDEBFCF91DF911F910F91FC
:1054A000FF90EF90DF90CF90BF90AF909F908F9044
:1054B0007F906F905F904F903F902F9008956091F4
:1054C0006529809166299091672970E00E94602D7E
:1054D000609368290E94842680E161E145E021E033
:1054E0000E94DF1D089520916F2530917025C9011C
:1054F000845199408C3C910590F480917225909153
:105500007325AC01445159404C3C510540F42817D7
:1055100039073CF481E090917125943018F080E0D7
:10552000089580E00895DF93CF930F92CDB7DEB753
:10553000809164298823D1F08CE7BE016F5F7F4F93
:1055400041E00E94500B8981992787FD9095209119
:10555000662930916729820F931F80936629909363
:105560006729809165298F5F809365290F90CF917E
:10557000DF9108951092652910926429089550587A
:10558000BB27AA270ED0B1C1A2D130F0A7D120F0FD
:1055900031F49F3F11F41EF497C10EF4E095E7FB40
:1055A00064C1E92FB3D180F3BA1762077307840788
:1055B000950718F071F49EF5E2C10EF4E0950B2EFC
:1055C000BA2FA02D0B01B90190010C01CA01A00155
:1055D0001124FF27591B99F0593F50F4503E68F1B0
:1055E0001A16F040A22F232F342F4427585FF3CFF1
:1055F000469537952795A795F0405395C9F77EF4C2
:105600001F16BA0B620B730B840BBAF09150A1F00A
:10561000FF0FBB1F661F771F881FC2F70EC0BA0F90
:10562000621F731F841F48F4879577956795B79518
:10563000F7959E3F08F0B3CF9395880F08F0992710
:10564000EE0F97958795089583D180F09F3740F4AA
:1056500091110EF495C160E070E080E89FE3089539
:1056600026F01B16611D711D811D05C11FC1D9D0FA
:1056700008F481E008950CD038C130D140F027D132
:1056800030F021F45F3F19F0F0C0511179C11CC115
:105690003DD198F39923C9F35523B1F3951B550BCD
:1056A000BB27AA2762177307840738F09F5F5F4FF5
:1056B000220F331F441FAA1FA9F333D00E2E3AF036
:1056C000E0E830D091505040E695001CCAF729D050
:1056D000FE2F27D0660F771F881FBB1F261737079F
:1056E0004807AB07B0E809F0BB0B802DBF01FF27CF
:1056F00093585F4F2AF09E3F510568F0B6C040C1F5
:105700005F3FECF3983EDCF3869577956795B79508
:10571000F7959F5FC9F7880F911D9695879597F923
:105720000895E1E0660F771F881FBB1F621773079C
:105730008407BA0720F0621B730B840BBA0BEE1FB1
:1057400088F7E095089504D06894B11119C10895BF
:10575000E5D088F09F5790F0B92F9927B751A0F066
:10576000D1F0660F771F881F991F1AF0BA95C9F7F5
:1057700012C0B13081F003D1B1E0089500C1672FAC
:10578000782F8827B85F39F0B93FCCF386957795A5
:105790006795B395D9F73EF490958095709561958E
:1057A0007F4F8F4F9F4F0895E89409C097FB3EF4B9
:1057B00090958095709561957F4F8F4F9F4F99235E
:1057C000A9F0F92F96E9BB279395F69587957795DC
:1057D0006795B795F111F8CFFAF4BB0F11F460FF9C
:1057E0001BC06F5F7F4F8F4F9F4F16C0882311F0F4
:1057F00096E911C0772321F09EE8872F762F05C008
:10580000662371F096E8862F70E060E02AF09A95A2
:10581000660F771F881FDAF7880F9695879597F997
:105820000895990F0008550FAA0BE0E8FEEF161631
:105830001706E807F907C0F012161306E407F50784
:1058400098F0621B730B840B950B39F40A2661F0F8
:10585000232B242B252B21F408950A2609F4A1409B
:10586000A6958FEF811D811D089597F99F6780E8A8
:1058700070E060E00895882371F4772321F0985058
:10588000872B762F07C0662311F499270DC09051FE
:10589000862B70E060E02AF09A95660F771F881FCC
:1058A000DAF7880F9695879597F908959F3F31F01D
:1058B000915020F4879577956795B795880F911D3E
:1058C0009695879597F908959FEF80EC08950024A9
:1058D0000A941616170618060906089500240A9455
:1058E00012161306140605060895092E0394000CDB
:1058F00011F4882352F0BB0F40F4BF2B11F460FF6A
:1059000004C06F5F7F4F8F4F9F4F089557FD905892
:10591000440F551F59F05F3F71F04795880F97FB73
:10592000991F61F09F3F79F087950895121613062D
:105930001406551FF2CF4695F1DF08C0161617065C
:105940001806991FF1CF8695710561050894089591
:10595000E5DFA0F0BEE7B91788F4BB279F3860F4F5
:105960001616B11D672F782F8827985FF7CF869579
:1059700077956795B11D93959639C8F30895E89486
:10598000BB2766277727CB0197F908954ADF08F4EC
:105990008FEF08950BD0A9CF9ADF28F09FDF18F082
:1059A000952309F062CF90CF1124EACFAFDFA0F3A7
:1059B000959FD1F3950F50E0551F629FF001729FA4
:1059C000BB27F00DB11D639FAA27F00DB11DAA1FC3
:1059D000649F6627B00DA11D661F829F2227B00D10
:1059E000A11D621F739FB00DA11D621F839FA00D9B
:1059F000611D221F749F3327A00D611D231F849FEB
:105A0000600D211D822F762F6A2F11249F57504041
:105A10008AF0E1F088234AF0EE0FFF1FBB1F661FDC
:105A2000771F881F91505040A9F79E3F510570F095
:105A30001CCFA6CF5F3FECF3983EDCF386957795BD
:105A40006795B795F795E7959F5FC1F7FE2B880F90
:105A5000911D9695879597F90895629FD001739F40
:105A6000F001829FE00DF11D649FE00DF11D929FFA
:105A7000F00D839FF00D749FF00D659FF00D992739
:105A8000729FB00DE11DF91F639FB00DE11DF91F5D
:105A9000BD01CF0111240895AA1BBB1B51E107C012
:105AA000AA1FBB1FA617B70710F0A61BB70B881FAE
:105AB000991F5A95A9F780959095BC01CD0108953D
:105AC00097FB092E07260AD077FD04D0E5DF06D024
:105AD00000201AF4709561957F4F0895F6F7909520
