:100000000C940B020C942C020C941A180C942C02D5
:100010000C942C020C942C020C942C020C942C02A8
:100020000C942C020C942C020C942C020C942C0298
:100030000C942C020C942C020C94A71C0C942C02F3
:100040000C94D81C0C942C020C942C020C942C02B2
:100050000C942C020C942C020C943D360C942C0223
:100060000C942C020C942C020C942C020C942C0258
:100070000C942C020C942C020C942C020C942C0248
:100080000C942C020C942C020C94721E0C942C02D6
:100090000C942C020C942C020C942C020C942C0228
:1000A0000C942C020C942C020C942C020C942C0218
:1000B0000C942C020C942C020C942C020C942C0208
:1000C0000C942C020C942C020C942C020C942C02F8
:1000D0000C942C020C942C020C942C020C942C02E8
:1000E0000C942C020C942C020C942C020C942C02D8
:1000F0000C942C020C942C020C942C020C942C02C8
:100100000C942C020C942C020C942C020C942C02B7
:100110000C942C020C942C020C942C020C942C02A7
:100120000C942C020C942C020C942C020C942C0297
:100130000C942C020C942C020C942C020C942C0287
:100140000C942C020C942C020C942C020C942C0277
:100150000C942C020C942C020C942C020C942C0267
:100160000C9497170C942C020C94C3170C942C022B
:100170000C942C020C942C020C942C020C942C0247
:100180000C942C020C942C020C942C020C942C0237
:100190000C942C020C942C020C942C020C942C0227
:1001A0000C942C020C942C020C942C020C942C0217
:1001B0000C942C020C942C020C942C020C942C0207
:1001C0000C942C020C942C020C942C020C942C02F7
:1001D0000C942C020C942C020C942C020C942C02E7
:1001E0000C942C020C942C02660669066C06B5066B
:1001F000B506B506B506B506B506B506B506B50627
:10020000B506B506B506B506B506B506B506B50616
:10021000B5069F06B506B5068706B506B506B5064A
:10022000A903B506B5067E06B5068D06B5069C067D
:10023000B506B506B506B506B506B506B506B506E6
:10024000B506B506B506B5067206B5067B066F0699
:1002500075069D039606B4038406B506B506B50675
:10026000A0039A038106B703B5068A06930699068A
:10027000B506900678066E616E00696E660004032E
:10028000030303020100FFFEFDFCFAF8F4EFA92BC3
:10029000000000001E2D00000000BB300000000028
:1002A0008E2F000000000000000000000000AF2AB8
:1002B0005B2A0000000000000000000000000000B9
:1002C000000000000000000000000000DC2AC62A38
:1002D0000000000000000104010101020101010110
:1002E00001010101010104010802010101010201F2
:1002F0000102010201010201020201010101084E95
:10030000370F33003519377E359435AA35C035019E
:10031000010201020101010101010100407A10F313
:100320005A00A0724E18090010A5D4E80000E87623
:1003300048170000E40B54020000CA9A3B0000007A
:10034000E1F505000080969800000040420F000093
:1003500000A08601000000102700000000E8030054
:100360000000006400000000000A0000000000011E
:1003700000000000002C76D888DC674F0823DFC11E
:10038000DFAE59E1B1B796E5E3E453C63AE65199D9
:100390007696E8E6C28426EB898C9B62ED407C6F02
:1003A000FCEFBC9C9F40F2BAA56FA5F490055A2AB9
:1003B000F75C936B6CF9676DC11BFCE0E40D47FEC5
:1003C000F520E6B500D0ED902E03009435770500BA
:1003D00080841E080000204E0A000000C80C333341
:1003E00033330F986E12831141EF8D2114893BE650
:1003F0005516CFFEE6DB18D1844B381BF77C1D90D9
:100400001DA4BBE424203284725E228100C9F12441
:10041000ECA1E53D270011241FBECFEFDFE5DEBFD5
:10042000CDBF00E00CBF10E3A0E0B0E2E0E8F4EBE9
:1004300000E00BBF02C007900D92AE38B107D9F7AC
:1004400013E4AEE8B0E301C01D92A936B107E1F7AD
:100450000E94B9020C943E5A0C94000081E08093F3
:10046000963080E060E00E94171E81E061E00E940B
:10047000171E089582E08093963080E061E00E942C
:10048000171E81E060E00E94171E089583E08093AC
:10049000963080E060E00E94171E81E060E00E94DC
:1004A000171E089580E061E00E94171E81E061E060
:1004B0000E94171E08951F9315E080E060E00E94DF
:1004C000171E81E060E00E94171E82E060E00E943B
:1004D000171E80E593EC0E94E81980E061E00E941D
:1004E000171E81E061E00E94171E82E061E00E9419
:1004F000171E80E593EC0E94E8191150F1F61F9148
:10050000089580E00E94511E91E0811190E0892FB2
:100510000895EF92FF920F931F930E948102882308
:1005200001F18EE290E00E9428588091963081304F
:1005300019F0823039F403C00E943A0205C00E94CB
:10054000460202C00E942E0281E040E653EE66E1C0
:1005500070E020E009E812E0EE24FF240E94501B26
:1005600003C081E00E940F2A1F910F91FF90EF902E
:1005700008952F923F924F925F926F927F928F9247
:100580009F92AF92BF92CF92DF92EF92FF920F9322
:100590001F93CF93DF930E946D29882311F00E944F
:1005A00024190E94111E80E061E00E94171E81E064
:1005B00061E00E94171E82E061E00E94171E78949D
:1005C00080E00E94F017882311F00E9424198BE626
:1005D00096E165E976E10E949F5780E090E20E94F3
:1005E0002F5888E290E20E942F580F920F9288E3D2
:1005F00090E2ADB7BEB711968D939C9312970E946F
:1006000016580F900F908BEC98E260E270E04AE38E
:1006100050E00E9467570196809385359093863508
:1006200060E270E04AE350E00E946757EC012196D7
:10063000C0938535D0938635CE0160E270E04AE301
:1006400050E00E946757AC018093833590938435C6
:1006500007E815E34C1B5D0BC801BE010E947D57E6
:1006600000D00F928CE490E2EDB7FEB781839283C5
:10067000038314830E9416580F900F900F900F90D1
:100680000E94461E0E948102882319F00E942E02B9
:1006900002C010929630809196308130C9F483E583
:1006A00090E20E942F5887E690E20E942F588EE237
:1006B00090E00E94285881E040E653EE66E170E049
:1006C00020E009E812E0EE24FF240E94501B03C042
:1006D00081E00E940F2A6CEFA62E67E2B62E53E847
:1006E000852E51E2952E41EA642E41E2742E38ECBB
:1006F000432E31E2532E2FEE222E21E2322E0E9483
:10070000742980918E30882309F033C380E090E013
:100710000E94B31697FD2DC3FC01F197E734F10554
:1007200008F023C3EC50FF4FEE0FFF1F0590F4912C
:10073000E02D19940E94710D14C30E94910D11C3F4
:1007400080917F35823018F081E080938F3080E097
:1007500008C080917F35823018F081E080938F301F
:1007600081E00E94AB1401C38EE890E2ACC280E647
:1007700091E20E942F582DB73EB7285030402DBF30
:100780003EBFEDB7FEB73196ADB7BEB711968D92AD
:100790009C9212978091AB36828313828BE090E01B
:1007A000848395838AE190E0868397830E9416581C
:1007B0008091A4369091A5360F900F90EDB7FEB7BB
:1007C0003196ADB7BEB711966D927C921297828327
:1007D0009383848395830E94165810919836F090E5
:1007E0009936E0909A36C0909B3660919C36709115
:1007F0009D3680919E3690919F3600D00F92CDB756
:10080000DEB72196EDB7FEB741825282212F3F2DF0
:100810004E2D5C2D00E20E94DF4C2A833B834C83EB
:100820005D831E83FF82E886C9860E9416588091E8
:100830005B3590915C350F900F900F900F90EDB756
:10084000FEB73196ADB7BEB711962D923C92129776
:1008500082839383848395830E94165810915D351B
:10086000F0905E35E0905F35C09060356091613505
:1008700070916235809163359091643500D00F920C
:10088000CDB7DEB721962FE232E2EDB7FEB7218376
:100890003283212F3F2D4E2D5C2D0E94DF4C2A8369
:1008A0003B834C835D831E83FF82E886C9860E945A
:1008B000165880916535909166350F900F900F9086
:1008C0000F90EDB7FEB731962FE632E2ADB7BEB767
:1008D00011962D933C9312978283938384839583FF
:1008E0000E94165810916735F0906835E090693590
:1008F000C0906A3560916B3570916C3580916D3523
:1009000090916E3500D00F92CDB7DEB72196ECE90D
:10091000F2E2ADB7BEB71196ED93FC931297212F7B
:100920003F2D4E2D5C2D0E94DF4C2A833B834C8350
:100930005D831E83FF82E886C9860E9416588091D7
:10094000A6369091A7360F900F900F900F90EDB7AD
:10095000FEB7319629EC32E2ADB7BEB711962D93B2
:100960003C93129782839383848395830E941658C5
:100970000F900F90EDB7FEB7319625EE32E2ADB78E
:10098000BEB711962D933C93129780916F35828359
:1009900013820E9416580F900F900F900F9085E1D0
:1009A00093E20E942F5882E593E20E942F588EE82E
:1009B00093E20E942F588AEC93E20E942F5800D0B5
:1009C0000F92EDB7FEB7319625E034E2ADB7BEB772
:1009D00011962D933C9312978091CA28828313829B
:1009E0000E9416580F900F900F900F9083E394E29F
:1009F0000E942F588DE494E20E942F5886E694E2DC
:100A00000E942F5800D000D0EDB7FEB731962BE7EB
:100A100034E2ADB7BEB711962D933C9312978091F7
:100A20007F358283138280E190E0848395830E94E6
:100A300016580F900F900F900F90EBEBF4E2ADB7BC
:100A4000BEB71196ED93FC9312970E9416588091B1
:100A500080350F900F90882319F48CEE94E216C025
:100A6000813019F488E095E211C0823019F483E2F4
:100A700095E20CC0833019F48CE395E207C0843012
:100A800019F48AE695E202C084E895E20E942F58A4
:100A900000D00F92EDB7FEB731962FE935E2ADB732
:100AA000BEB711962D933C93129780910F38828395
:100AB00013820E941658EDB7FEB7319624ED35E249
:100AC000ADB7BEB711962D933C9312978091103815
:100AD000828313820E941658EDB7FEB7319628EF35
:100AE00035E2ADB7BEB711962D933C931297809126
:100AF0001138828313820E941658EDB7FEB73196E3
:100B00002AE236E2ADB7BEB711962D933C93129709
:100B100080911438828313820E941658EDB7FEB775
:100B2000319622E736E2ADB7BEB711962D933C93CE
:100B3000129780910838828313820E9416580F9072
:100B40000F900F900F9080910838813021F480E948
:100B500096E20E942F5860910B388DB79EB744974C
:100B60008DBF9EBFCDB7DEB72196E7EAF6E2ADB7FF
:100B7000BEB71196ED93FC9312978091093890912E
:100B80000A388A839B8304E119E00C831D839FED5F
:100B9000E92E99E0F92EEE82FF826887198681E0BE
:100BA000C82ED12C960102C0220F331F6A95E2F79E
:100BB000B901882777FD8095982F0E940A5220E07E
:100BC00030E040E05FE30E94FE526A877B878C87BB
:100BD0009D8780910C3890910D388E879F87088B68
:100BE000198BEA8AFB8A0E9416588DB79EB74096E9
:100BF0008DBF9EBFEAE2F7E2ADB7BEB71196ED93A7
:100C0000FC9312978EEC9FEF13968D939C93149701
:100C10000E9416580F900F900F900F9089E497E262
:100C20000E942F5800D000D0EDB7FEB731962CE5CA
:100C300037E2ADB7BEB711962D933C9312978091D2
:100C40000E3882831382C482D5820E9416588DB7D3
:100C50009EB706968DBF9EBF89E797E20E942F58E8
:100C60008091123885FD02C08F7303C081958F710A
:100C7000819500D00F92ECE8F7E2ADB7BEB71196C0
:100C8000ED93FC931297992787FD909513968D937A
:100C90009C9314970E941658EDB7FEB7319624EB3B
:100CA00037E2ADB7BEB711962D933C931297809162
:100CB0001338828313820E9416580F900F900F9062
:100CC0000F9080EF97E20E942F584FC00E944E0D68
:100CD00048C00E94CE0D45C00E94F60D42C00E9441
:100CE000140D3FC00E949B0C3CC00E949B0E39C05B
:100CF0000E94C30C36C00E94EB0C33C00E94780ED9
:100D000030C00E94230F2DC00E94640E2AC00E9492
:100D1000400E27C00E940F0F24C00E94EB0E21C07E
:100D20000E94750F1EC00E946F0C1BC00E94190EFE
:100D300018C00E94460F15C00E94C30E12C00F9229
:100D40000F92ADB7BEB71196AD92BC9212970E94AA
:100D5000165881E0809395300F900F900E940F2AD3
:100D600004C0882311F00E941A0C8AE090E00E94CF
:100D7000285880918F308823C1F080E090E00E9455
:100D8000B3168D36910519F08D34910571F41092DA
:100D90008F3081E00E94771A82E00E94771A1092C9
:100DA0008E3082E061E00E94171E80918E30843088
:100DB00021F480E063E00E94F80F80918E3086304D
:100DC00009F09DCC81E065E00E94F80F98CCCF92AD
:100DD000DF92EF920F93CF93DF93EC01888188230A
:100DE000E9F480918E30813081F410928E302A8126
:100DF0003B814C815D81E8E0CE2ED12CCC0EDD1EF6
:100E000080E069810E81EF8020C0833079F54A81CE
:100E10005B816C817D8189812E8126C0813031F595
:100E20000E94771A80918E308230B1F410928E3009
:100E3000288D398D4A8D5B8D7EE1C72ED12CCC0E4D
:100E4000DD1E81E06F890C8DED8C0E94401582E0E3
:100E500061E00E94171E0AC0853041F4488D598D0B
:100E60006A8D7B8D8F892C8D0E949014DF91CF919C
:100E70000F91EF90DF90CF900895DF93CF930F9273
:100E8000CDB7DEB7882361F481E0898382E5BE01B6
:100E90006F5F7F4F40E00E94F32F0E941D3503C01B
:100EA00081E00E940F2A0F90CF91DF91089588234F
:100EB00019F081E00E940F2A0895EF92FF920F939C
:100EC0001F9380919530882371F0109295300E9485
:100ED0003C0D80E00E94C60B0E949E0F0E941A0CDF
:100EE0000E945B026AC080919630882399F50E9427
:100EF0006A0B882321F40E943C0D80E033C080916E
:100F00006F35882389F58091593590915A35813014
:100F1000910519F40E942E020AC08230910519F43D
:100F20000E943A0204C0009711F40E944602809188
:100F300096308823C9F00E94C60B81E040E856E94C
:100F400068E970E020E002E512E0EE24FF240E9450
:100F5000501B0AC00E946A0B882311F40E943C0DAA
:100F6000809196300E94C60B0F920F9286E198E214
:100F7000EDB7FEB7818392830E9416588091963018
:100F80000F900F90813019F483E298E20EC0823006
:100F900019F48DE298E209C0833019F487E398E2EE
:100FA00004C00E945B0283E498E20E942F580E94D2
:100FB0009E0F0E941A0C10928F301F910F91FF907C
:100FC000EF90089508953F924F925F926F927F92B3
:100FD0008F929F92AF92BF92CF92DF92EF92FF9249
:100FE0000F931F93DF93CF93CDB7DEB76A97CDBF33
:100FF000DEBF7C010091093810910A38000F111FE3
:1010000081E090E000900B3802C0880F991F0A948D
:10101000E2F7882E8BE498E20E942F5800D00F92BE
:10102000EDB7FEB7319627E538E2ADB7BEB71196FA
:101030002D933C931297D7018C91828313820E9447
:101040001658EDB7FEB7319627E738E2ADB7BEB711
:1010500011962D933C931297D7018C918283138222
:101060000E94165884E1B82DB89F400111240F90BA
:101070000F900F900F90AA2420E030E0BB246E0167
:101080000894C11CD11C90E2392E8DEA682E88E2AA
:10109000782EB2E04B2E512C63C0283011F4A3946B
:1010A00020E0F701EA0DF11D428150E0022E02C05E
:1010B000559547950A94E2F72F5F632F70E040FF44
:1010C00002C091E301C090E36C0D7D1DFB01908394
:1010D0003F5F353021F03B3011F0313129F4F6011A
:1010E000E30FF11D30823F5F373139F04B2D50E077
:1010F00090E001974817590791F5F601E30FF11DAC
:1011000010828DB79EB708978DBF9EBFEDB7FEB713
:101110003196ADB7BEB711966D927C921297C80109
:10112000B2010E94B45362837383A801417050706E
:10113000CA01880F991F880F991F840F951F8483F8
:101140009583C682D7822A8F0E941658080D191DD2
:10115000EDB7FEB73896EDBFFEBF30E02A8DB394F1
:10116000D70111968C911197B81608F496CF8AEB97
:1011700098E20E942F588AE090E00E9428586A96D0
:10118000CDBFDEBFCF91DF911F910F91FF90EF9008
:10119000DF90CF90BF90AF909F908F907F906F9097
:1011A0005F904F903F900895CF92DF92EF920F9310
:1011B00080918E30823091F410928E3081E068E11F
:1011C0002FEF3FEFA90100E0EE24CC24DD240E94A4
:1011D000401582E061E00E94171E09C0853039F495
:1011E00088E14FEF5FEFBA0120E00E9490140F9169
:1011F000EF90DF90CF9008959C012627022E229534
:10120000207F2025032E322F22952F70022626952F
:1012100032272327220F220F220F2025C9010895EC
:10122000FC011382148215821682178210861186A1
:10123000128616861786108A118A128A138A148AD1
:10124000158A80916F358130B1F0813020F0823085
:1012500009F05EC020C082E08083662329F080917F
:101260005B3590915C3504C08091A4369091A53691
:101270008383948344C082E08083662329F0809135
:101280005B3590915C3504C08091A4369091A53671
:101290008383948371C083E080836623C1F080914F
:1012A0005D35838380915E35848380915F3585834E
:1012B0008091603586838091613587838091623526
:1012C00080878091633581878091643517C08091D4
:1012D0009836838380919936848380919A3685836A
:1012E00080919B36868380919C36878380919D3642
:1012F000808780919E36818780919F36828782E0A9
:1013000083878091653590916635868797874EC033
:1013100083E080836623C1F080915D358383809173
:101320005E35848380915F358583809160358683C7
:1013300080916135878380916235808780916335A4
:1013400081878091643517C080919836838380911E
:101350009936848380919A36858380919B368683E3
:1013600080919C36878380919D36808780919E36C0
:10137000818780919F36828783E08387809167355C
:10138000868780916835878780916935808B8091C9
:101390006A35818B80916B35828B80916C35838B24
:1013A00080916D35848B80916E35858B8091A636CA
:1013B0009091A73681839283848795870895CF92F1
:1013C000DF92EF92FF920F931F93DF93CF93CDB7EE
:1013D000DEB72B97CDBFDEBF8E010F5F1F4F8CE0B6
:1013E000C82ED12CCC0EDD1E780180E090E00E944A
:1013F0009516F80181938F018D3029F08A3019F00C
:10140000EC15FD0591F4F7011082CE0101960E94C2
:1014100066562B96CDBFDEBFCF91DF911F910F9106
:10142000FF90EF90DF90CF90089560E070E00E9411
:101430006B16DACFDF92EF92FF920F931F93CF9349
:10144000DF9390916F35913041F1913020F09230DF
:1014500009F0B9C05AC025E039E2882359F000D01C
:101460000F92EDB7FEB72183328380915B35909167
:101470005C350AC000D00F92EDB7FEB721833283EE
:101480008091A4369091A536838394830E94165848
:101490000F900F900F900F9081C025E039E28823C4
:1014A00059F000D00F92EDB7FEB7218332838091BF
:1014B0005B3590915C350AC000D00F92EDB7FEB756
:1014C000218332838091A4369091A53683839483BF
:1014D0000E9416580F900F900F900F901091673543
:1014E000F0906835E0906935D0906A3560916B3541
:1014F00070916C3580916D3590916E352DB73EB7FA
:101500002A5030402DBF3EBFBDC02BE039E28823BA
:1015100089F010915D35F0905E35E0905F35D090A8
:10152000603560916135709162358091633590913D
:10153000643510C010919836F0909936E0909A3644
:10154000D0909B3660919C3670919D3680919E36EE
:1015500090919F364DB75EB74A5050404DBF5EBF29
:10156000CDB7DEB72196EDB7FEB721833283212FA9
:101570003F2D4E2D5D2D00E20E94DF4C2A833B83E0
:101580004C835D831E83FF82E886D9860E941658AD
:101590002DB73EB7265F3F4F2DBF3EBF00D00F9205
:1015A00085E099E2EDB7FEB781839283809165353E
:1015B00090916635838394830E9416580F900F9004
:1015C0000F900F907FC02BE039E2882389F01091B3
:1015D0005D35F0905E35E0905F35D090603560917C
:1015E000613570916235809163359091643510C09A
:1015F00010919836F0909936E0909A36D0909B36BC
:1016000060919C3670919D3680919E3690919F3668
:101610004DB75EB74A5050404DBF5EBFCDB7DEB745
:101620002196EDB7FEB721833283212F3F2D4E2D1A
:101630005D2D00E20E94DF4C2A833B834C835D8357
:101640001E83FF82E886D9860E9416582DB73EB7C2
:10165000265F3F4F2DBF3EBF10916735F090683534
:10166000E0906935D0906A3560916B3570916C353A
:1016700080916D3590916E354DB75EB74A505040B0
:101680004DBF5EBFCDB7DEB721962BE039E2EDB797
:10169000FEB721833283212F3F2D4E2D5D2D00E299
:1016A0000E94DF4C2A833B834C835D831E83FF8231
:1016B000E886D9860E9416582DB73EB7265F3F4F61
:1016C0002DBF3EBFDF91CF911F910F91FF90EF9003
:1016D000DF900895EF92FF920F931F93DF93CF93C4
:1016E000CDB7DEB7AC97CDBFDEBF80E060E170E084
:1016F0004CE250E08E010F5F1F4F98010E948C1842
:101700008538C9F19DE2E92EF12CEC0EFD1E80E03A
:1017100090E0F80161918F010E94FC080E151F05F1
:10172000C1F7009741F5A7E5B5E3FE0131968CE2DC
:1017300001900D928150E1F7A7E0B8E3FE017A969F
:101740008EE001900D928150E1F7BE01685D7F4F00
:1017500040E00E94F32F80E5BE016F5F7F4F40E0C5
:101760000E94F32F83E5BE016D5F7F4F40E00E9432
:10177000F32F81E001C080E0AC96CDBFDEBFCF91FA
:10178000DF911F910F91FF90EF9008952EEF3AECAB
:101790002093573530935835EDE5F5E39DE7909369
:1017A0005D355CE5518347E142839FEF93839483EA
:1017B00035E2358324E0268317823A966DE96093FB
:1017C00067355183428393839483358326831782BD
:1017D00010926F3592E09093CA28813059F481E0DD
:1017E00090E08093593590935A3510925B35109262
:1017F0005C3519C0823069F482E090E080935935FD
:1018000090935A3510925B3510925C3581E090E0F0
:101810000CC01092593510925A3581E090E08093B7
:101820005B3590935C3582E090E0809365359093D2
:1018300066350895EF92FF920F931F93DF93CF9336
:10184000CDB7DEB7AC97CDBFDEBFDE011196E7E5C1
:10185000F5E38CE201900D928150E1F7DE015A969A
:10186000E7E0F8E38EE001900D928150E1F780917E
:10187000A6369091A73689839A838091A436909159
:10188000A5368B839C838091AB3688A78E010F5F32
:101890001F4F1BA61CA62BE2E22EF12CEC0EFD1E08
:1018A000F80161918F018BA59CA50E94FC088BA774
:1018B0009CA70E151F05A1F780E190E06CE270E097
:1018C000AE014F5F5F4F0E94C818AC96CDBFDEBF20
:1018D000CF91DF911F910F91FF90EF90089589E1D3
:1018E00099E20E942F5883E399E20E942F5883E6E1
:1018F00099E20E942F5882E999E20E942F5881ECC8
:1019000099E20E942F580F920F928FEE99E2EDB755
:10191000FEB7818392830E9416580F900F900E9409
:10192000DF0990E08430910520F480936F3581E0E9
:10193000089580E00895DF93CF930F920F92CDB773
:10194000DEB70F920F9283E19AE2EDB7FEB7818383
:1019500092830E9416580F900F900E94DF0989838E
:101960009A838230910548F487E0BE016F5F7F4F14
:1019700040E00E946D3681E001C080E00F900F9042
:10198000CF91DF910895DF93CF930F920F92CDB750
:10199000DEB70F920F9287E39AE2EDB7FEB781832D
:1019A00092830E9416580F900F900E94DF0989833E
:1019B0009A838230910548F48BE0BE016F5F7F4FC0
:1019C00040E00E946D3681E001C080E00F900F90F2
:1019D000CF91DF910895DF93CF930F920F92CDB700
:1019E000DEB70F920F928CE79AE2EDB7FEB78183D4
:1019F00092830E9416580F900F900E94DF098983EE
:101A00009A830B978031910548F480E0BE016F5FA7
:101A10007F4F40E00E94F32F81E001C080E00F90F3
:101A20000F90CF91DF910895DF93CF930F920F9294
:101A3000CDB7DEB70F920F9286E89AE2EDB7FEB708
:101A4000818392830E9416580F900F900E94DF09A5
:101A500089839A838230910548F486E0BE016F5FE6
:101A60007F4F40E00E946D3681E001C080E00F9022
:101A70000F90CF91DF9108958AE180937E35A0E7A2
:101A8000B5E3E7E0F8E38EE001900D928150E1F7D5
:101A900085E080937F35109280350895DF93CF9352
:101AA0000F920F92CDB7DEB70F920F928BEB9AE2A7
:101AB000EDB7FEB7818392830E9416580F900F9066
:101AC0000E94DF0989839A8382E0BE016F5F7F4FA6
:101AD00040E00E946D3681E00F900F90CF91DF9132
:101AE000089500D00F9285EC9AE2EDB7FEB781839E
:101AF000928380E190E0838394830E9416580F9034
:101B00000F900F900F900E94DF099C0121503040F0
:101B10002031310510F081E090E080937F3581E045
:101B200008958BEF9AE20E942F5883E29BE20E9475
:101B30002F5885E49BE20E942F5886E69BE20E9484
:101B40002F5888E89BE20E942F588FEB9BE20E945F
:101B50002F5800D000D0EDB7FEB7319681EE9BE252
:101B6000ADB7BEB711968D939C93129712821382D4
:101B700084E090E0848395830E9416588DB79EB7C9
:101B800006968DBF9EBF0E94DF098530910510F03B
:101B900080E090E08093803581E00895DF93CF93DB
:101BA0000F920F92CDB7DEB70F920F9286E09CE2B4
:101BB000EDB7FEB7818392830E9416580F900F9065
:101BC0000E94DF0989839A838430910548F483E079
:101BD000BE016F5F7F4F40E00E946D3681E001C023
:101BE00080E00F900F90CF91DF910895DF93CF9316
:101BF0000F920F92CDB7DEB70F920F928FE09CE25B
:101C0000EDB7FEB7818392830E9416580F900F9014
:101C10000E94DF0989839A8384E0BE016F5F7F4F52
:101C200040E00E946D3681E00F900F90CF91DF91E0
:101C3000089588E19CE20E942F5884E39CE20E9470
:101C40002F5884E49CE20E942F580F920F9283E554
:101C50009CE2EDB7FEB7818392830E9416580F90E5
:101C60000F900E94DF0990E09C012250304022300A
:101C7000310520F48093CA2881E0089580E008951A
:101C80000F920F9280E89CE2EDB7FEB781839283BA
:101C90000E9416580F900F900E94DF09282F892F5D
:101CA000880F880B20935D3590935E3580935F3568
:101CB000809360358093613580936235809363357E
:101CC0008093643581E008950F920F928BEB9CE234
:101CD000EDB7FEB7818392830E9416580F900F9044
:101CE0000E94DF0980935B3590935C3581E0089515
:101CF000DF93CF930F920F92CDB7DEB70F920F9273
:101D000087EF9CE2EDB7FEB7818392830E9416585D
:101D10000F900F900E94DF0989839A8380E5BE01AE
:101D20006F5F7F4F40E00E94F32F81E00F900F9094
:101D3000CF91DF910895DF93CF930F920F92CDB79C
:101D4000DEB70F920F928FE09DE2EDB7FEB7818371
:101D500092830E9416580F900F900E94DF0989838A
:101D60009A838230910548F488E0BE016F5F7F4F0F
:101D700040E00E946D3681E001C080E00F900F903E
:101D8000CF91DF910895DF93CF930F920F92CDB74C
:101D9000DEB70F920F9287E39DE2EDB7FEB7818326
:101DA00092830E9416580F900F900E94DF0989833A
:101DB0009A838230910548F48AE0BE016F5F7F4FBD
:101DC00040E00E946D3681E001C080E00F900F90EE
:101DD000CF91DF9108950F920F928FE69DE2EDB7BC
:101DE000FEB7818392830E9416580F900F900E9435
:101DF000DF09282F892F880F880B20936735909350
:101E000068358093693580936A3580936B3580930C
:101E10006C3580936D3580936E3581E008950F9217
:101E20000F9287E99DE2EDB7FEB7818392830E940E
:101E300016580F900F900E94DF098093653590939C
:101E4000663581E00895DF93CF930F920F92CDB75F
:101E5000DEB70F920F9280EC9DE2EDB7FEB7818363
:101E600092830E9416580F900F900E94DF09898379
:101E70009A8383E5BE016F5F7F4F40E00E94F32F9E
:101E800081E00F900F90CF91DF910895DF93CF9372
:101E90000F92CDB7DEB70F920F9283EE9DE2EDB7B2
:101EA000FEB7818392830E9416580F900F900E9474
:101EB000DF09FFEF803E9F0744F0803291053CF43C
:101EC00097FF06C08F71806203C080E201C08FE17E
:101ED000898389E0BE016F5F7F4F40E00E946D36CD
:101EE00081E00F90CF91DF910895DF93CF930F9210
:101EF0000F92CDB7DEB70F920F9283E09EE2EDB75F
:101F0000FEB7818392830E9416580F900F900E9413
:101F1000DF0990E089839A838230910548F485E057
:101F2000BE016F5F7F4F40E00E946D3681E001C0CF
:101F300080E00F900F90CF91DF9108950F931F9342
:101F4000DF93CF9300D00F92CDB7DEB70EE715E346
:101F500080E0B80140E00E94F32F07521040F801E2
:101F60009081818199838A8380E5BE016F5F7F4F75
:101F700040E00E94F32FF801928180915A359B83B3
:101F80008C8383E5BE016D5F7F4F40E00E94F32F9D
:101F90002496CDBFDEBFCF91DF911F910F910895A1
:101FA000FC012081318142815381FB01808191813B
:101FB000A281B38182179307A407B50718F421E023
:101FC00030E002C02FEF3FEFC901089580918F30BC
:101FD000882369F080918E30833021F484E08093EF
:101FE0008E300895853019F486E080938E30089500
:101FF000EF92FF920F931F93DF93CF93CDB7DEB78E
:102000006B97CDBFDEBFF82EE62ECE0105966F2D65
:102010000E941009FF2021F08091CA288B8F01C0F7
:102020001B8E19821A821B821C82CE0101960E948D
:10203000DC190091943010E0000F111F00571F4C65
:1020400069817A818B819C8128EE33E040E050E009
:102050000E94C753F80120833183CE0105960E9468
:102060005E358823A9F0E0928E3082E060E00E9425
:10207000171EFF2079F081E040E452E46FE070E049
:1020800020E004ED18E0EE24FF240E94501B02C063
:1020900010928E306B96CDBFDEBFCF91DF911F9136
:1020A0000F91FF90EF9008954F925F926F927F9201
:1020B0008F929F92AF92BF92CF92DF92EF92FF9258
:1020C0000F931F93DF93CF93CDB7DEB7C055D040AA
:1020D000CDBFDEBF7A018B01722E9091983099238B
:1020E000D9F58031A1F581E080939830A9E9B0E37A
:1020F00089ED90E3ED92FD920D931D93FC01719299
:10210000CF01F0E3A93DBF07A9F7809199309091E5
:102110009A30A0919B30B0919C308093E93090939D
:10212000EA30A093EB30B093EC308091D9308093BB
:10213000ED30E0919430F0E0EE0FFF1FE057FF4CE0
:10214000808191818093923090939330D4C382E1C7
:102150009EE20E942F58CFC380919430882319F0BB
:10216000A82FA15001C0A1E090E0880F991F8057CF
:102170009F4CB0E0AA0FBB1FA057BF4CFC012081B1
:1021800031818D919C91281B390B2093EE30309337
:10219000EF30E09197304E2E55248090E9309090AA
:1021A000EA30A090EB30B090EC306201CC0CDD1C3A
:1021B000CC0CDD1C89E990E3C80ED91ED6018D92A6
:1021C0009D92AD92BC921397BFEFEB16BFEFFB064B
:1021D000BFEF0B07BFEF1B0709F44AC0F72DFA301A
:1021E00008F448C048EC50E0249FC001259F900DA2
:1021F000349F900D112468EE73E00E94A05380E09C
:1022000090E09B01AC01280D391D4A1D5B1D2E1568
:102210003F054007510740F4D6012D933D934D9360
:102220005C93139784E027C0681579058A059B05A0
:1022300088F4861A970AA80AB90AE814F9040A0564
:102240001B0540F4D6018D929D92AD92BC921397DE
:1022500083E011C0D201AA0FBB1FAA0FBB1FA75654
:10226000BF4CED92FD920D931C93139780E003C039
:1022700081E001C082E08093F0302E2F30E0D90160
:10228000A752BF4C7C92AE2FA150AF70B0E0AA0F06
:10229000BB1FAA0FBB1FA756BF4C220F331F220F15
:1022A000331F27563F4CED90FD900D911C91D901A5
:1022B0002D913D914D915C91E20EF31E041F151F6F
:1022C00016950795F794E794E092F130F092F2308A
:1022D0000093F3301093F430AE2FA350AF70B0E002
:1022E000AA0FBB1FAA0FBB1FA756BF4C2E2F2250F1
:1022F0002F7030E0220F331F220F331F27563F4C21
:10230000ED90FD900D911C91D9012D913D914D9134
:102310005C911397E20EF31E041F151F1695079587
:10232000F794E794E092F530F092F6300093F730AE
:102330001093F830E0907F35809180358230D9F06D
:10234000833018F4813011F51CC0833039F08430AB
:10235000E9F4F0E0882499245401C2C1FE2D00E084
:1023600010E054E6C52E60E070E0CB0188248A942A
:10237000982C540149C1F4E688248A94982C54017D
:1023800018C1FE2DBE016F5F7F4F78C0FE2D00E0AB
:1023900010E060E070E0CB011DC0CE2EDD24960180
:1023A000220F331F220F331F27563F4CD9012D9187
:1023B0003D914D915C91620F731F841F951FD60153
:1023C000A752BF4C2C91020F111DEE2309F4E0E13E
:1023D000E150F150FF2309F72E2D30E040E050E0AE
:1023E0000E94C7532093E9303093EA304093EB309A
:1023F0005093EC30B80180E090E00E9408524B010D
:102400005C01FF24B701882777FD8095982F0E94F3
:102410000A529B01AC01C501B4010E946F510E9498
:1024200061533AC12F2F30E0215030400E2F10E081
:10243000A901440F551F440F551F460F571FD801C0
:10244000AA0FBB1FAA0FBB1FA756BF4C8D909D9014
:10245000AD90BC90DA0150968D929D92AD92BC9257
:102460005397260F371FD801A752BF4C8C91D90123
:102470008C93EE2309F4E0E1E150F150FF2391F653
:10248000CE2CC694CE0141966E2D70E044E050E013
:1024900020ED3FE00E9439544E2D50E09E012F5F09
:1024A0003F4F8C2D90E061E0862E912C8422952266
:1024B000E0FE0CC0FC01EE0FFF1FEE0FFF1FE20F4E
:1024C000F31F80899189A289B38920C0FC013197CB
:1024D000EE0FFF1FEE0FFF1FE20FF31F8C01000F27
:1024E000111F000F111F020F131F80899189A289EC
:1024F000B389F8012089318942895389820F931F5A
:10250000A41FB51FB695A795979587958093E93039
:102510009093EA30A093EB30B093EC308E010F5FD4
:102520001F4FC8016E2D70E041E050E020ED3FE00C
:102530000E9439548C2D90E08114910429F0080FE9
:10254000191FD8018C9113C0FE01E80FF91F2081DB
:10255000080F191FF801808190E0820F911DAA27B2
:1025600097FDA095BA2FB695A795979587958093D7
:10257000ED30C2C06E2F70E09B01220F331F220F7F
:10258000331F27563F4CD9012D913D914D915C91C0
:102590001397281539054A055B0530F467527F4CBF
:1025A000DB01FC9149015A01EE2309F4E0E1E1501D
:1025B000EA94EE20F9F696C04E2E55249201220F91
:1025C000331F220F331F27563F4CD9012D913D91C8
:1025D0004D915C911397281539054A055B0510F458
:1025E00049015A01D201A752BF4CAC91AC1508F475
:1025F000CA2E620F731F841F951F0A0F111DEE2331
:1026000009F4E0E1E150F150FF23B1F62E2D30E066
:1026100040E050E00E94C753CA01B9010E9408522D
:102620002B013C01C501B4010E94085220E030E0BA
:10263000A9010E94FE529B01AC01C301B2010E949C
:10264000F4500E94DC516093E9307093EA3080933B
:10265000EB309093EC306E2DC80170E00E94A053D7
:1026600070E0882777FD8095982F0E940A527B01A1
:102670008C01DD24B601882777FD8095982F0E9474
:102680000A5220E030E0A9010E94FE529B01AC01F9
:10269000C801B7010E94F4500E94DC516093ED30F4
:1026A0002BC06E2F70E09B01220F331F220F331FB0
:1026B00027563F4CD9012D913D914D915C91139737
:1026C00082169306A406B50630F467527F4CDB01F0
:1026D000FC9149015A01EE2309F4E0E1E150EA944A
:1026E000EE20F9F68092E9309092EA30A092EB3039
:1026F000B092EC30F093ED30E090EE30F090EF30AF
:10270000E114F10409F471C00091973010E00370F6
:102710001070000F111F000F111F07501F4C609108
:10272000F1307091F2308091F3309091F43020913B
:10273000F5303091F6304091F7305091F830621B0F
:10274000730B840B950B0E940A524B015C01B7017D
:1027500080E090E00E9408529B01AC01C501B401E9
:102760000E946F5120E030E040E152E40E94FE52AE
:10277000F80160837183828393836091F930709153
:10278000FA308091FB309091FC3020E030E0A901DC
:102790000E94F4502091FD303091FE304091FF3086
:1027A000509100310E94F45020910131309102315A
:1027B00040910331509104310E94F4502091053131
:1027C0003091063140910731509108310E94F45008
:1027D00020E030E040E85EE30E94FE520E94615338
:1027E0000E94D7516093093102C0109209312091A3
:1027F00009312F3F24F0223024F06CE403C061E45F
:1028000001C060E28DB79EB70E978DBF9EBFEDB73A
:10281000FEB7319649E15EE2ADB7BEB711964D9372
:102820005C9312978091E9309091EA30A091EB305F
:10283000B091EC3082839383A483B583332727FD43
:10284000309526833783862F992787FD909580873B
:1028500091878091ED3082871386E486F5860E9409
:102860001658EDB7FEB73E96EDBFFEBF8091F03033
:10287000882371F00F920F9281E59EE2ADB7BEB74B
:1028800011968D939C9312970E9416580F900F905B
:102890008091F030823079F0833018F4813029F45F
:1028A00007C0833059F0843061F080E290E00BC0C3
:1028B00084E590E008C084E490E005C083E590E002
:1028C00002C08CE490E00E9428588AE090E00E94C8
:1028D0002858809197308F5F80939730803111F422
:1028E00010929730809194308F5F80939430823033
:1028F00011F410929430C05BDF4FCDBFDEBFCF919B
:10290000DF911F910F91FF90EF90DF90CF90BF90DC
:10291000AF909F908F907F906F905F904F900895B1
:10292000EF92FF920F931F930E94541082E040EAAF
:1029300056E861E070E020E006EE1FE0EE24FF24A0
:102940000E94501B82E061E00E94171E1F910F91B0
:10295000FF90EF900895EF92FF920F931F93DF93F4
:10296000CF93CDB7DEB76797CDBFDEBF182FCE01AF
:102970000196612F0E941009112321F08091CA282D
:102980008F8B01C01F8A1092973010929430109252
:10299000983080918F30882331F0112311F086E038
:1029A00022C084E020C0CE0101960E945E358823BB
:1029B000E1F082E060E00E94171E112399F082E0AE
:1029C00080938E3081E00E94771A81E040E452E4E7
:1029D0006FE070E020E004ED18E0EE24FF240E9498
:1029E000501B03C081E080938E306796CDBFDEBF61
:1029F000CF91DF911F910F91FF90EF900895863155
:102A000029F1873160F48231D9F0833118F48131B2
:102A100091F513C0843101F1853169F514C0893114
:102A2000F1F08A3128F48731E9F0883121F511C0BD
:102A3000813ED9F0893EF9F41BC089E59EE21DC0B4
:102A40008FE79EE21AC083E99EE217C086EB9EE202
:102A500014C086ED9EE211C08BEF9EE20EC086E1AF
:102A60009FE20BC08FE29FE208C08AE49FE205C0AC
:102A70008AE79FE202C08AE89FE20E942F580895E9
:102A80006F927F928F929F92AF92BF92CF92DF927E
:102A9000EF92FF920F931F93CF93DF93782E162F11
:102AA00049015A01F02E603109F0BCC00F920F921B
:102AB00081EA9FE2ADB7BEB711968D939C931297B2
:102AC0000E94165800D000D0EDB7FEB731968AEAC2
:102AD0009FE2ADB7BEB711968D939C9312978282F9
:102AE0009382A482B582068317820E941658EDB79E
:102AF000FEB73896EDBFFEBF872D0E941A0A8AE006
:102B000090E00E942858EE2009F440C00C2D1D2DA5
:102B1000C0E0D0E063EBC62E6FE2D62E50EC652EFF
:102B20005FE2752E31C000D00F92ADB7BEB71196DF
:102B3000CD92DC9212971396CD93DC9314970E945A
:102B4000165800D00F922DB73EB72F5F3F4FEDB70D
:102B5000FEB761827282F80180819181A281B38186
:102B6000F90182839383A483B583D80114968C9151
:102B7000868317820E94165821960B5F1F4FEDB770
:102B8000FEB73896EDBFFEBFCE1568F289EC9FE226
:102B90000E942F5880ED9FE20E942F58EE20D1F422
:102BA00000D000D08CED9FE2ADB7BEB711968D93EB
:102BB0009C931297EDB7FEB783829482A582B6826A
:102BC0000E9416580F900F90EDB7FEB731968FEE1A
:102BD0009FE219C000D000D08DEF9FE2EDB7FEB7A5
:102BE00081839283ADB7BEB713968D929D92AD92BD
:102BF000BC9216970E9416580F900F90EDB7FEB733
:102C0000319689E190E3ADB7BEB711968D939C9351
:102C10001297F28213820E9416580F900F900F9015
:102C20000F904AC00F920F9280E390E3EDB7FEB78A
:102C3000818392830E94165888E390E3ADB7BEB7B4
:102C400011968D939C9312970E9416580F900F9097
:102C5000872D0E941A0A00D00F92EDB7FEB7319669
:102C60008FE390E3ADB7BEB711968D939C93129707
:102C7000128313820E9416580F900F900F900F909E
:102C800089EC9FE20E942F5800D00F92EDB7FEB75B
:102C9000319686E490E3ADB7BEB711968D939C93C1
:102CA0001297128313820E9416580F900F900F9064
:102CB0000F90812F0E94FF14DF91CF911F910F91F0
:102CC000FF90EF90DF90CF90BF90AF909F908F904C
:102CD0007F906F9008950F931F93DF93CF930F9280
:102CE000CDB7DEB789838A3071F48DE089838E0198
:102CF0000F5F1F4F80E0B80141E00E94FC1788235E
:102D0000C9F38AE089838E010F5F1F4F80E0B8010D
:102D100041E00E94FC178823C9F380E090E00F9007
:102D2000CF91DF911F910F9108950F931F93DF9320
:102D3000CF930F92CDB7DEB78E010F5F1F4F80E0AC
:102D4000B80141E00E9405188823C9F389818D30BC
:102D500011F48AE08983898190E00F90CF91DF910F
:102D60001F910F910895DF93CF930F92CDB7DEB7E8
:102D700080E0BE016F5F7F4F41E00E940518813007
:102D800019F4298130E002C02FEF3FEFC9010F9005
:102D9000CF91DF9108950F931F93CF93DF938C0111
:102DA000EB010AC080E0B8014C2F0E94FC1790E0B4
:102DB000C81BD90B080F191F1C161D069CF3DF91A9
:102DC000CF911F910F9108959B01AC0160507E4EF1
:102DD00085489F4FF2E0660F771F881F991FFA956D
:102DE000D1F7E3E0220F331F441F551FEA95D1F7B7
:102DF0000E94C75321503040E0E6F6E088E081832E
:102E000084E0828382898861828BE0EAF9E03783FB
:102E100026838CE1848383E085838CE38383089518
:102E2000CF93DF93282F8091A309837FE0EAF9E015
:102E30008383E0916D3630916E363E1718F08E2FF9
:102E4000895302C08E2F8150831B681708F4862F88
:102E5000392FE901982F11C020916E363991A22F98
:102E6000B0E0A556BA4C3C93273C19F410926E364C
:102E700003C02F5F20936E369150992369F790918C
:102E80007136992349F4F0E0E556FA4C908190931D
:102E9000A00991E0909371369091A3099C60E0EABB
:102EA000F9E09383DF91CF910895FC018091723610
:102EB0008823D9F19091A3099F7CA0EAB9E01396E9
:102EC0009C9313978A3050F08091703680936F36C0
:102ED0008AE0809372366A3028F405C0861718F4A9
:102EE000682F01C06AE0962F16C0A0916F36B0E03F
:102EF000AD59B94C8C91819380916F368F5F8093DF
:102F00006F362091723621502093723691508A305C
:102F100011F410926F36992341F78091A3098063D1
:102F2000E0EAF9E08383862F089580E008951F92F8
:102F30000F920FB60F920BB60F9211248F939F939F
:102F4000EF93FF9380917036909172369F5F9093CC
:102F500072369091A009E82FF0E0ED59F94C90837A
:102F6000893019F41092703603C08F5F80937036E9
:102F7000FF91EF919F918F910F900BBE0F900FBE1D
:102F80000F901F9018951F920F920FB60F920BB6CD
:102F90000F9211248F93EF93FF9380916D36873CAE
:102FA00019F410926D3603C08F5F80936D36E091F7
:102FB0006D3680916E36E81739F0F0E0E556FA4C40
:102FC00080818093A00902C010927136FF91EF9129
:102FD0008F910F900BBE0F900FBE0F901F90189502
:102FE000882341F460E076E980E090E00E94E416F6
:102FF00080E0089585E80895882329F4CB01642FA3
:103000000E941017089580E00895882329F4CB01C9
:10301000642F0E945517089580E0089580930A3127
:1030200090930B31E0E4F6E081E0828B94E09287AC
:10303000848708951F920F920FB60F920BB60F92CE
:1030400011242F933F934F935F936F937F938F93AD
:103050009F93AF93BF93EF93FF93E0910A31F09169
:103060000B311995FF91EF91BF91AF919F918F9186
:103070007F916F915F914F913F912F910F900BBE78
:103080000F900FBE0F901F901895EBECF1E021E030
:1030900030E088ED90E084BF208308958091CF01D7
:1030A00087FDFCCF08950F931F93DF93CF930F926B
:1030B0000F92CDB7DEB789839A830E944E1800EC39
:1030C00011E0F80112829A8191838981808386E0E0
:1030D00082870E944518F80184810F900F90CF914C
:1030E000DF911F910F9108950E94161D0E942E1DC1
:1030F0000E949B1E0E94AE190E94061D0E94101D78
:1031000021E030E088ED90E084BF2093800080E0F3
:1031100008950E946A1C0895CF92DF92EF92FF9269
:103120000F931F93CF93DF938B01EA01813031F42A
:10313000862F642FA9010E94621D21C08823E1F41B
:10314000CA01860F971F40E181309407B8F4C22E60
:10315000D32EEE24FF240BC0C701800F911F0E94C5
:103160005318F60181936F010894E11CF11CEC16D1
:10317000FD0690F380E003C088EE01C085E8DF9192
:10318000CF911F910F91FF90EF90DF90CF90089516
:103190005F926F927F928F929F92AF92BF92CF92E7
:1031A000DF92EF92FF920F931F93CF93DF93EC0187
:1031B0005B01CB018C0F9D1F20E18130920798F5B8
:1031C000C42ED52EEE24FF2400EC11E023E3722E52
:1031D00095E3892E86E3982E21C0CE010E945318D4
:1031E000F60161906F018615A9F05C2E0E944E18C1
:1031F0008091CF0181FF04C0F80192860E9445189A
:10320000F80172865092C001118212826482828615
:103210000E94451821960894E11CF11CEA14FB0455
:10322000E0F280E001C085E8DF91CF911F910F911E
:10323000FF90EF90DF90CF90BF90AF909F908F90D6
:103240007F906F905F9008951F93CF93DF93E0E29C
:10325000F6E014828FEF8183C0E2D6E01FEF8FEF9C
:103260009FEF0E94E8191F83FACF60917336709127
:1032700074369B0140E050E0A9013327222780915A
:10328000200890912108A0E0B0E0282B392B4A2B90
:103290005B2B80917336909174366817790729F704
:1032A000B901CA0108951F93CF93DF931FB7F89414
:1032B00080910E318F3F09F44CC0C82FD0E0FE0141
:1032C00033E0EE0FFF1F3A95E1F7EC0FFD1FEB58CF
:1032D000F94C80819181A281B38120917336309124
:1032E00074362A173B0769F48093280890932908BD
:1032F00080910C08806180930C088091070883609E
:1033000003C0809107088C7F809307080E943519BD
:10331000FE0123E0EE0FFF1F2A95E1F7EC0FFD1FE2
:10332000EB58F94C2081318142815381621B730B30
:10333000840B950B6F5F7F4F8F4F9F4F6F3F2FEF2A
:1033400072072FEF82072FE7920718F481E080932E
:103350000D311FBFDF91CF911F91089510920C3155
:1033600010920D3110927336109274368FEF809355
:103370000E3180930F318093103180937D361092FF
:10338000793610927A368093863610928236109271
:10339000833680938F3610928B3610928C360E9433
:1033A000501D0895882311F488E001C08AE08093BD
:1033B0000008809340080895CF93DF93EC010E94AA
:1033C0003519688379838A839B83DF91CF91089530
:1033D0004FB7F8948630910518F12091200830916C
:1033E0002108280F391F8091200890912108821709
:1033F000930740F480912008909121088217930749
:10340000C8F30EC080912008909121082817390731
:10341000C8F3809120089091210882179307C8F380
:103420004FBF089590E0FC0143E0EE0FFF1F4A9567
:10343000E1F7E80FF91FEB58F94C81E02481358161
:103440002115310509F480E0089580910D3188231C
:1034500009F44CC010920D3120910C31222309F453
:1034600045C080910F318F3F59F4809110318F3FCB
:1034700039F480910E318093103180930F3112C056
:1034800030910E318091103190E0FC0173E0EE0F2D
:10349000FF1F7A95E1F7E80FF91FEB58F94C3087D9
:1034A0003093103180910E3190E0FC0163E0EE0F1B
:1034B000FF1F6A95E1F7E80FF91FEB58F94C80857B
:1034C00080930E318091103190E0FC0153E0EE0FBB
:1034D000FF1F5A95E1F7E80FF91FEB58F94C8FEFF2
:1034E0008087215020930C310E94531908950F9327
:1034F0001F93082F833008F0CDC01FB7F8940E94A7
:10350000251A40910C31442309F45BC050910E31CF
:10351000252F352F02C0232F382F031709F041C064
:10352000802F90E0051781F4FC0153E0EE0FFF1FA0
:103530005A95E1F7E80FF91FEB58F94C8085809315
:103540000E310E94531919C030E0F90143E0EE0F2B
:10355000FF1F4A95E1F7E20FF31FEB58F94CDC012E
:1035600023E0AA0FBB1F2A95E1F7A80FB91FAB589C
:10357000B94C18968C9118978087802F90E0FC01A9
:10358000A3E0EE0FFF1FAA95E1F7E80FF91FEB5834
:10359000F94C8FEF808780910C31815080930C31F2
:1035A00065C0832F90E0FC0173E0EE0FFF1F7A955A
:1035B000E1F7E80FF91FEB58F94C8085415009F00D
:1035C000AACF40910F31342F242F4BC00217D9F5C9
:1035D000209110310417B1F4021721F48FEF80937A
:1035E00010310DC0802F90E0FC0163E0EE0FFF1F53
:1035F0006A95E1F7E80FF91FEB58F94C8085809345
:103600000F3134C0832F90E0FC0153E0EE0FFF1F19
:103610005A95E1F7E80FF91FEB58F94C802F90E02D
:10362000DC0143E0AA0FBB1F4A95E1F7A80FB91FC1
:10363000AB58B94C18968C91189780870217B1F443
:103640003093103113C0822F90E0FC01B3E0EE0FF5
:10365000FF1FBA95E1F7E80FF91FEB58F94C322F2D
:1036600020852F3F09F0B2CF80E00FC0802F90E07F
:10367000FC01A3E0EE0FFF1FAA95E1F7E80FF91F89
:10368000EB58F94C1482158281E01FBF882321F08A
:1036900080E003C08AE801C089E81F910F91089576
:1036A0002F923F924F925F926F927F928F929F9252
:1036B000AF92BF92CF92DF92EF92FF920F931F9340
:1036C000CF93DF93D82E4A015B01C22E370183309E
:1036D00008F0CBC00115110509F4CBC0C82FD0E00C
:1036E000FE0133E0EE0FFF1F3A95E1F7EC0FFD1FEF
:1036F000EB58F94C84819581009709F0B8C00E947D
:1037000035199B01AC01CC2029F06C2D613009F0FA
:10371000B0C014C0D501C40180589040A040B04052
:1037200080386FEF96076FEFA6076FE7B60708F0D0
:10373000A2C0820E931EA41EB51E13C0D501C401E3
:1037400080589040A040B040821B930BA40BB50B57
:1037500080382FEF92072FEFA2072FE7B20708F06C
:103760008AC0CFB6F8940E94251A50910E315F3F5F
:1037700031F0F0900C31652F452F70E054C0D0929D
:103780000E31FE0123E0EE0FFF1F2A95E1F7EC0F4B
:10379000FD1FEB58F94C508735C04F3F09F442C02C
:1037A000242F30E0F90193E0EE0FFF1F9A95E1F727
:1037B000E20FF31FEB58F94C80819181A281B38114
:1037C00014012501281A390A4A0A5B0AD201C101EB
:1037D0008F3F2FEF92072FEFA2072FE7B20718F4C2
:1037E000642F40851FC0FE0183E0EE0FFF1F8A9506
:1037F000E1F7EC0FFD1FEB58F94C4087541721F40B
:10380000D0920E3181E013C0862F90E0FC01B3E02E
:10381000EE0FFF1FBA95E1F7E80FF91FEB58F94CCF
:10382000D08656C07F5F7F1508F4B7CF38C0FE0141
:10383000A3E0EE0FFF1FAA95E1F7EC0FFD1FEB5879
:10384000F94C80829182A282B382048315836682BE
:10385000778290910C319F5F90930C31882311F007
:103860000E945319CFBE80E007C08AE805C088E8EF
:1038700003C088EE01C08BE8DF91CF911F910F91BB
:10388000FF90EF90DF90CF90BF90AF909F908F9080
:103890007F906F905F904F903F902F900895862F6C
:1038A00090E0FC0173E0EE0FFF1F7A95E1F7E80F5F
:1038B000F91FEB58F94CD086FE0163E0EE0FFF1FB5
:1038C0006A95E1F7EC0FFD1FEB58F94C8FEF8087FD
:1038D00080E0ADCF1F931FB7F8940E94251A1FBF39
:1038E0001FEF2FC03FB7F89480910F3190E0DC01BB
:1038F00043E0AA0FBB1F4A95E1F7A80FB91FAB58C9
:10390000B94C18962C9118971496ED91FC91159737
:1039100016968D919C91179718961C93189714964C
:103920001D921C92159716961D921C921797209324
:103930000F312F3F11F4109310313FBF309709F032
:10394000199580910F318F3F69F61F9108951F924D
:103950000F920FB60F920BB60F9211242F933F9335
:103960004F935F936F937F938F939F93AF93BF9387
:10397000EF93FF9380917336909174360196809304
:103980007336909374360E945319FF91EF91BF9153
:10399000AF919F918F917F916F915F914F913F91E7
:1039A0002F910F900BBE0F900FBE0F901F90189588
:1039B0001F920F920FB60F9211248F9380910C31AA
:1039C000882319F081E080930D318F910F900FBE05
:1039D0000F901F901895FC0120917336309174362A
:1039E000609168087091690840E050E0A9013327B0
:1039F000222780E090E0262B372B482B592B208361
:103A0000318342835383089581E0089585E880934C
:103A1000800181E68093810188E680938201089588
:103A2000E0EAF0E0828184608283089582E08093FE
:103A300050008091510081FFFCCF21E030E088ED03
:103A400090E084BF2093400082E0E0E5F0E08683D0
:103A5000809160008160809360000895E0E4F6E06A
:103A600080818061808380818068808380818160A3
:103A70008083808180628083808188608083808170
:103A80008F7B8083E0E6F6E080ED818380E28283B5
:103A900080E1858380818E7F808381E0808B0895A3
:103AA00088E0809300088093400880EF80930C08A2
:103AB00080E380934C0883E08093060889E280933A
:103AC00043080895AF92BF92CF92DF92EF92FF9298
:103AD0000F931F93DF93CF93CDB7DEB7C054D04081
:103AE000CDBFDEBF9E012F5F3F4F90E0E0E4F6E0E8
:103AF000EE24E394B0E1FB2E00EC18E0A3E0DA2E14
:103B000070ECA72E78E0B72EC09049067091490658
:103B10007C7F7187E682F6820000000000000000D2
:103B20000000000000000000000000000000000095
:103B30000000000000000000000000000000000085
:103B40000000000000000000000000000000000075
:103B50000000000000000000D8011396DC921397CB
:103B60007091C20877FFFCCF792F7F77D50113962C
:103B70007C9313977091C20877FFFCCFD501139601
:103B80001C9213977091C20877FFFCCF7091C30805
:103B9000F582E582C186D9017D939D019F5F9034B6
:103BA00009F0B2CFDE01AF5BBF4F20E030E0FE0195
:103BB000319691912927022E2295207F2025032ED0
:103BC000322F22952F700226269532272327220F87
:103BD000220F220F2025EA17FB0759F7211531057F
:103BE00081F4FA01DE011196A80FB11DCA01860FFA
:103BF000911D02C02D912193E817F907D9F780E0B4
:103C000001C085E8C05CDF4FCDBFDEBFCF91DF9143
:103C10001F910F91FF90EF90DF90CF90BF90AF90EA
:103C20000895E0E2F6E087E081838683089583309B
:103C300030F4E82FF0E0ED5AFF4C208101C020E085
:103C4000662319F06130B9F40BC081E090E002C046
:103C5000880F991F2A95E2F7E0E2F6E08583089540
:103C600081E090E002C0880F991F2A95E2F7E0E218
:103C7000F6E08683089581E090E002C0880F991FE6
:103C80002A95E2F7E0E2F6E087830895E0E2F6E0C5
:103C900088E0828388E1838B80E49FE10197F1F7DC
:103CA0000895E0E2F6E0808590E023E09595879521
:103CB0002A95E1F7817008952FB7F89498E09093D2
:103CC000B000E0E2F6E08BE1838B81858C7F82603F
:103CD00081879287E0EAF0E0828182608283789433
:103CE0002FBF08951F920F920FB60F920BB60F922F
:103CF00011248F93EF93FF93E0E2F6E08285877FB4
:103D00008287E8E4F0E080818E7F8083FF91EF91ED
:103D10008F910F900BBE0F900FBE0F901F901895B4
:103D20000E945C1EE8E4F0E08081807F85608083F3
:103D3000789488950895E0ECF8E080E580838081B0
:103D40008168808380E1E0E4F6E085830895E0E423
:103D5000F6E020914906909149069C7F9187806CFE
:103D600090E19683E0ECF8E083838091C20887FFBE
:103D7000FCCFE0ECF8E063838091C20887FFFCCFC2
:103D8000E0E4F6E080E1858321870895E0E4F6E051
:103D900020914906909149069C7F9187806890E127
:103DA0009683E0ECF8E083838091C20887FFFCCF24
:103DB000E0ECF8E013828091C20887FFFCCF80918D
:103DC000C308E0E4F6E090E195832187089520E1BF
:103DD000E0E4F6E0268320E2E0ECF8E023832091A3
:103DE000C20827FFFCCFE0ECF8E013826130B9F0A5
:103DF000262FFC01A0ECB8E03091C20837FFFCCFC1
:103E00003091C30813961C9213973193215022309E
:103E100098F7625070E06F5F7F4F860F971F209179
:103E2000C20827FFFCCF2091C308FC01208380E15A
:103E3000E0E4F6E085830895FC0180E1A0E4B6E0CB
:103E400016968C9380E6A0ECB8E013968C931397AB
:103E5000819161509091C20897FFFCCF13968C938B
:103E600013976623A9F78091C20887FFFCCF80E1F2
:103E7000E0E4F6E085830895DF93CF930F920F92ED
:103E8000CDB7DEB74A8369830E94C61E6981862347
:103E900090E04A8102C0959587954A95E2F70F9088
:103EA0000F90CF91DF9108951F93DF93CF9300D0B0
:103EB000CDB7DEB7182F2B834A8369830E94C61EB5
:103EC0002B8130E04A8102C0220F331F4A95E2F76E
:103ED0006981262360956823622B812F0E94A71E8B
:103EE0002396CDBFDEBFCF91DF911F910895FB01D7
:103EF000A0E4B6E020914906909149069C7F19966E
:103F00009C93199790E116969C9390E4A0ECB8E0EE
:103F100013969C9313979091C20897FFFCCFA0EC47
:103F2000B8E013968C9313978091C20887FFFCCF5B
:103F3000A0ECB8E0819113968C9313978091C208FE
:103F400087FFFCCF4150B1F7E0E4F6E080E18583E4
:103F5000218708950000000000000000000000001C
:103F60000000000000000000000000000000000051
:103F700000000000E0E4F6E0509149069091490607
:103F80009C7F918790E19683E0ECF8E0138290911A
:103F9000C20897FFFCCFE0ECF8E083838091C20871
:103FA00087FFFCCF862F972FFC01A0ECB8E013967B
:103FB0001C9213978091C20887FFFCCF8091C308A1
:103FC00081934150A1F7E0E4F6E080E185835187D9
:103FD0000895EF92FF920F931F93CF93DF9381E1A8
:103FE00091E30E949F2006E111E390E3E92E95E31F
:103FF000F92EC0E0D0E0F70100831183BE01660F07
:10400000771F660F771F605D7A4C81E191E30E9414
:10401000A62021960A561F4F84E090E0E80EF91E74
:10402000C730D10541F7DF91CF911F910F91FF90DC
:10403000EF90089581E191E360E070E00E94C1207B
:104040000895BC01009721F081E191E30E94A62030
:1040500008956F927F928F929F92BF92CF92DF923C
:10406000EF92FF920F931F93CF93DF938C014B013D
:104070006A01BFB6F894DC0114968C9114978823DA
:1040800009F44BC0CD91DC91119741155105C1F058
:104090007E0113C0F601628173810190F081E02DF1
:1040A000888199811995882371F47E019A818B8189
:1040B000692EE3013E01782EE301209759F72FC0C6
:1040C000209769F17E018114910449F5D8012D9161
:1040D0003C9111978A819B81C217D30721F48D935C
:1040E0009C93119703C0F70182839383D8011296A2
:1040F0008D919C911397C817D90721F41296ED92D0
:10410000FC921397F801848181508483808191818E
:10411000009729F41282138202C0C0E0D0E0BFBE33
:10412000CE01DF91CF911F910F91FF90EF90DF9023
:10413000CF90BF909F908F907F906F900895FC01DB
:10414000108211821282138214820895FC019FB79B
:10415000F8948481882319F46083718306C0A28156
:10416000B38112966D937C93139762837383DB0103
:1041700012961D921C92139784818F5F84839FBF38
:104180000895AB0160E070E00E9429200895AB0122
:1041900061E070E00E9429200895CF93DF93EC0145
:1041A0000BC0CE0160E070E00E94C120009711F4C6
:1041B0001C8205C00E9421208C81882391F7DF9109
:1041C000CF910895AF92BF92CF92DF92EF92FF927C
:1041D0000F931F93DF93CF93CDB7DEB72897CDBF53
:1041E000DEBF81E06FE140E00E943C1F883009F0B3
:1041F0005CC08FE00E94C61E8EE00E94C61EA82EE4
:104200008EE061E00E94A71ED09049068091490689
:104210008C7FE0E4F6E0818782E069E00E94A71EDF
:104220007E010894E11CF11CC7010E94DC198E017B
:104230000B5F1F4FBE2CCF2C25C0C8010E94DC197C
:104240002D813E814F81588589819A81AB81BC81C6
:10425000281B390B4A0B5B0B2B3F310541055105E0
:1042600088F08AE10E94C61E80FF03C0682F6E7F1F
:1042700002C0682F61608AE10E94A71E8B2D9C2DD1
:104280000E94DC1980E4E82E86E0F82E8091480632
:1042900082FFD3CF8FE00E94C61E81E0F7018487A2
:1042A000D1868EE06A2D0E94A71E2896CDBFDEBF64
:1042B000CF91DF911F910F91FF90EF90DF90CF9002
:1042C000BF90AF9008951F93182F8091B5368F300F
:1042D00091F51092B93686E199E20E940E18E0E459
:1042E000F6E081E0848780914906836081878FB7FB
:1042F000F894789498E096839091B9369923E1F3F5
:104300008FBF8FE00E94C61E80E099E20E940E18C7
:104310008EE068E00E94A71E8DE064E042E021E0AC
:104320000E94541F88E08093B536183009F41BC2F0
:10433000133009F418C2183009F461C0193050F470
:10434000143009F4E5C0163009F4F1C0133009F057
:1043500000C27FC01F3069F0103120F4193009F01D
:10436000F8C1A1C0163109F43DC1193109F0F1C1FC
:1043700095C182E063E00E94A71E8DE064E042E008
:1043800020E00E94541F8FE00E94C61E8EE06FEF57
:1043900040E020E10E94541F8EE06FEF40E020E1FA
:1043A0000E94541F1093B53600000000000000006A
:1043B00000000000000000000000000000000000FD
:1043C00000000000000000000000000000000000ED
:1043D00000000000000000000000000000000000DD
:1043E000000000000000000088E0E0E4F6E08583C3
:1043F00083E290E00E94E8198091B536B5C18091C2
:10440000B536883009F4A5C182E068E00E94A71E95
:10441000000000000000000000000000000000009C
:10442000000000000000000000000000000000008C
:10443000000000000000000000000000000000007C
:10444000000000000000000000000000000000006C
:1044500080C18091B536883009F47BC182E063E089
:104460000E94A71E000000000000000000000000E5
:10447000000000000000000000000000000000003C
:10448000000000000000000000000000000000002C
:10449000000000000000000000000000000000001C
:1044A0000000000056C18091B536883009F437C04D
:1044B000893020F4863009F04CC105C0863119F0EE
:1044C000893109F046C182E069E00E94A71E000020
:1044D00000000000000000000000000000000000DC
:1044E00000000000000000000000000000000000CC
:1044F00000000000000000000000000000000000BC
:10450000000000000000000000000000000021C1C9
:104510008091B536883019F0893021F41AC10E9493
:10452000E22017C182E064E00E94A71E12C18091C0
:10453000B536893059F08A3020F4883009F009C145
:104540002AC0863119F0893109F003C182E066E0A2
:104550000E94A71E000000000000000000000000F4
:10456000000000000000000000000000000000004B
:10457000000000000000000000000000000000003B
:10458000000000000000000000000000000000002B
:1045900000000000DEC00E94E22082E066E00E948F
:1045A000A71E000000000000000000000000000046
:1045B00000000000000000000000000000000000FB
:1045C00000000000000000000000000000000000EB
:1045D00000000000000000000000000000000000DB
:1045E0000000B7C08091B536883009F430C08930FA
:1045F00020F4863009F0ADC005C0893019F089314A
:1046000009F0A7C082E066E10E94A71E000000003A
:10461000000000000000000000000000000000009A
:10462000000000000000000000000000000000008A
:10463000000000000000000000000000000000007A
:1046400000000000000000000000000082C00E9486
:10465000E22082E066E10E94A71E00000000000048
:10466000000000000000000000000000000000004A
:10467000000000000000000000000000000000003A
:10468000000000000000000000000000000000002A
:10469000000000000000000000005BC08091B53603
:1046A000883009F430C0893020F4863009F051C0D8
:1046B00005C0893019F0863109F04BC082E069E10C
:1046C0000E94A71E00000000000000000000000083
:1046D00000000000000000000000000000000000DA
:1046E00000000000000000000000000000000000CA
:1046F00000000000000000000000000000000000BA
:104700000000000026C00E94E22082E069E10E94D1
:10471000A71E0000000000000000000000000000D4
:104720000000000000000000000000000000000089
:104730000000000000000000000000000000000079
:104740000000000000000000000000000000000069
:10475000000081E06FE140E00E943C1F8093B5368D
:104760008F31B9F301C088E01F9108958091903690
:104770008823E1F08091BA368823C1F480914C35CA
:1047800090914D35009739F486E90E941A20809364
:104790004C3590934D3580914C3590914D35009727
:1047A00029F01092903686E10E946321809195361F
:1047B000882351F081E996E360E070E00E94C12017
:1047C000009711F00E943A248091BA36823011F499
:1047D0000E9475240895EF92FF920F931F93DF9329
:1047E000CF930F920F92CDB7DEB7E0914C35F09199
:1047F0004D35309731F4CE01029661E00E94E71EFC
:1048000030C0E080F18080E0BE016F5F7F4F41E00B
:104810000E94AA1F698167FD24C06D5F06E910E050
:10482000061B11090E0D1F1DC8010E94E71EF7018E
:104830000783108760914C3570914D3581E996E37F
:104840000E94A62086E90E941A2080934C359093FE
:104850004D35009731F489E00E94632181E0809317
:1048600090360F900F90CF91DF911F910F91FF9095
:10487000EF900895CF93DF939C01FC01C081D1811B
:10488000AF81B885EC91E093B636F0E03196EA0F4F
:10489000FB1F60814181403218F4442319F003C0AA
:1048A0004FE101C041E062956695669563708FEFB8
:1048B000689FB001112450E0649FC001659F900D76
:1048C000749F900D11246DE570E00E94A0536F3F1E
:1048D000710511F008F06FEF608329833A83CE01F0
:1048E0000E944137DF91CF9108951092BA36E0913E
:1048F0004E35E83028F4F0E0EA5AFF4C808101C0E0
:1049000085E860919636709197360E94913B0895A4
:10491000CF93DF93EC01662331F08CE260EF44E04B
:104920002091B43604C08CE260EF44E020E00E94A5
:10493000541FC230D10528F48CE26EE041E027E03C
:1049400005C08CE26EE041E02091AC360E94541F1D
:1049500089E10E9463218931D9F7809149068C7FD2
:10496000E0E4F6E08187C130D10559F48091B63694
:10497000833118F087E592E002C087E990E00E9459
:10498000E819C0E4D6E088E08D8300000000000054
:104990008E838091B7369091B836FC01608161506A
:1049A0000E941C1F81E08093BA3680914906836083
:1049B0008987DF91CF910895FC01CB012091BA3610
:1049C000222391F4E0939636F09397362781308531
:1049D0002093B7363093B8362115310539F0642F5E
:1049E0000E94882480E0089586E8089588EE08955E
:1049F000882311F087E005C082E060EE45E00E9468
:104A00003C1F80934E3582E08093BA3680914C35BE
:104A100090914D35009739F489E00E94632181E03F
:104A200080939036089586E10E946321089585FD64
:104A300003C0982F9F7304C0982F91959F719195F3
:104A400020E030E0822FF901E258FD4FE4919E17FB
:104A500024F0E91744F4815008952F5F3F4F20312F
:104A6000310581F780E008951F93CF93DF9382E2B1
:104A70006091A6360E94A71E83E26091A7360E942D
:104A8000A71EC8E9D6E314E2812F69910E94A71EF0
:104A90001F5F1C32C9F780E26091A4360E94A71EF6
:104AA00081E26091A5360E94A71E88E060E645E09D
:104AB0002091AA360E94541F8FE26FE040E02091BF
:104AC000AD360E94541F8EE268E043E02091AE367E
:104AD0000E94541F8FE260EF44E02091B3360E94A1
:104AE000541F88E06FE140E02091AB360E94541FD4
:104AF0008091AF360E941725282F85E06FE040E0B7
:104B00000E94541FDF91CF911F91089585FD03C02E
:104B1000982F9F7304C0982F91959F719195EEE700
:104B2000F2E02491291744F4203EB4F02032B4F48A
:104B300027FF10C0822F0BC03F96E4919E178CF484
:104B4000E03E54F0E03254F4E7FF0AC08E2F8F713C
:104B5000806207C0822F05C080E203C08FE101C0E0
:104B60008E2F806808951F93CF93DF93EB018E34CF
:104B700031F0893541F488818093B436CFC0888183
:104B80008093AC36CBC02091B5362F3009F4C8C025
:104B90008B3009F4BBC08C3078F4823009F480C0CB
:104BA000833018F48823E1F1BDC0833009F484C058
:104BB000843009F0B7C063C0833511F1843530F417
:104BC0008F3459F0803509F0ADC00CC0873509F439
:104BD00060C0803F09F0A6C076C028812093AD3622
:104BE0008FE267C088819981682F8093A636909361
:104BF000A73682E20E94A71E83E26091A7360DC00D
:104C000088819981682F8093A4369093A53680E29D
:104C10000E94A71E81E26091A5360E94A71E7EC059
:104C20008091BA36882309F07FC080E098EFAFEF1B
:104C3000B7E0088004C0B695A795979587950A9424
:104C4000D2F781709070009709F470C0283039F065
:104C500088E00E9463218830D9F716E101C018E08E
:104C600028812093AB3688E06FE140E00E94541F1A
:104C7000183009F453C086E10E9463214FC080912F
:104C8000BA36882309F050C08881882309F44FC0C0
:104C90004DC028812093B3368FE260EF44E03CC0E2
:104CA00088810E9486258093AF360E941725282F81
:104CB00085E06FE040E030C028812093AA3688E08C
:104CC00060E645E029C08881809398368981809389
:104CD00099368A8180939A368B8180939B368C811A
:104CE00080939C368D8180939D368E8180939E36F5
:104CF0008F8180939F36C8E9D6E314E2812F6991B2
:104D00000E94A71E1F5F1C32C9F708C0288120938C
:104D1000AE368EE268E043E00E94541F80E007C098
:104D200081E805C084EF03C086E801C088EEDF910A
:104D3000CF911F91089584E08093AC3623E02093B7
:104D4000AD368FEF9FEF8093A6369093A736809372
:104D5000A4369093A5368BE08093AB3680E098EF35
:104D6000AFEFB7E08093A0369093A136A093A23620
:104D7000B093A3361092B0368AE091E08093A836C3
:104D80009093A9368AE08093B13682E08093B23660
:104D900085E08093B3362093B43684E80E9486255C
:104DA0008093AF3681E08093AA361092AE36089594
:104DB000DF93CF930F92CDB7DEB783E068E043E097
:104DC00020E00E94541F83E067E040E021E00E9461
:104DD000541F0E945656682F8DE299830E94A71E89
:104DE0008EE267E040E09981292F0E94541F8EE2F5
:104DF00060EC46E021E00E94541F8EE260E245E054
:104E000021E00E94541F8CE060E847E021E00E940E
:104E1000541F8EE068E00E94A71E86E16FEF0E949B
:104E2000A71E8DE063E040E020E00E94541F8AE06E
:104E30006FE040E023E00E94541F8DE068E043E013
:104E400021E00E94541F8DE064E042E021E00E94D6
:104E5000541F0F90CF91DF910895FF920F931F93EE
:104E6000CF93DF9386E10E94C61E182F86E161EC86
:104E70000E94A71E00914906809149068C7FE0E4BC
:104E8000F6E0818786E00E9463218630D9F785E1CC
:104E900060E847E020E00E94541F28E0F22EC0E0C6
:104EA000D0E086E060E645E00E943C1F9E01220FB4
:104EB000331F220F331FC82FD0E0C22BD32B00008B
:104EC00000000000000000000000000000000000E2
:104ED00000000000000000000000000000000000D2
:104EE00000000000000000000000000000000000C2
:104EF0000000000000000000000000000000FA9424
:104F000009F0CFCF83E00E9463218FE00E94C61E8C
:104F1000E0E4F6E081E084870187CE010E945B56E1
:104F200086E1612F0E94A71EDF91CF911F910F9103
:104F3000FF900895EF92FF920F931F93DF93CF930B
:104F40000F92CDB7DEB7F82E81E065E170E041E069
:104F500050E09E012F5F3F4F0E948C1800E416E046
:104F600088E0F801868382ED90E00E94E819EE2443
:104F7000E394F801E68281E090E00E94E819F801EC
:104F8000E58200E084E690E00E94E81981E06FE1AC
:104F900040E00E943C1F0A30C9F0883011F00F5FDA
:104FA000F1CF8093B53629812223C9F082E16FE0E9
:104FB00040E00E94541F13C00E949B260E9434258B
:104FC0001092BA361092903680E001C085E80F90BA
:104FD000CF91DF911F910F91FF90EF9008950E9464
:104FE0002D270E94D826FF2049F3E6CF0E949A275A
:104FF000882359F01CC081E996E360E070E00E94CC
:10500000C120009711F00E942120809195368823BD
:1050100091F780E099E20E940E18E0E4F6E081E06A
:105020008487809149068360818780E0089585E8C0
:1050300008951F93CF93DF930E947418882309F07B
:10504000DAC0C0E4D6E011E01D8388E08E838AE4F4
:1050500091E00E94E8191E8381E090E00E94E81927
:105060001D831AE003C0115009F4C5C084E690E026
:105070000E94E8198CE10E94C61E8B30A1F782E0E5
:1050800068E00E94A71E10E084E690E00E94E81904
:1050900081E06FE140E00E943C1F1A3009F4ABC090
:1050A000883011F01F5FF0CF8093B53681E060E06B
:1050B00070E048E050E028E936E30E948C1881E077
:1050C0000E949A27882351F096C0C8E9D6E30E942F
:1050D0005656899386E3C03AD807C9F78091983627
:1050E0002091993650919A3660919B3670919C36FA
:1050F000E0919D36F0919E36A0919F36382F315029
:1051000041E0381708F040E0822F815091E082178B
:1051100008F090E0480F21E0481708F020E0922BBB
:10512000252F215081E0251708F080E0592F520FDC
:1051300091E0521708F090E0892B262F215091E042
:10514000261708F090E0682F620F81E0621708F0E0
:1051500080E0982B272F215081E0271708F080E06E
:10516000792F720F91E0721708F090E0892B2E2FA3
:10517000215091E02E1708F090E0E82FE20F81E037
:10518000E21708F080E0982B2F2F215081E02F1795
:1051900008F080E0920FF1E0921708F0F0E08F2B1A
:1051A000A195A81779F49F3F69F4EF3F59F47F3F29
:1051B00049F46F3F39F45F3F29F44F3F19F43E3F04
:1051C00008F083CF80E099E20E940E188091490692
:1051D0008360E0E4F6E081870E94E91F86E90E948F
:1051E0001A2080934C3590934D3581E996E30E94C7
:1051F0009F2080E001C085E8DF91CF911F91089545
:105200008FE00E94C61E83FF10C02091BA36213065
:1052100041F486FF02C081E001C080E00E94F824D2
:1052200002C00E94EB230E94B34C08958FE00E94BD
:10523000C61E84FF03C081E08093B9360895809133
:10524000B5368F30A9F08091BA36882399F4109240
:10525000903688E00E9463218830D9F780E00E9470
:10526000D2198FE00E9463218F3031F480E00895DD
:1052700081E8089586E8089586E808958091B53616
:105280008F3051F488E00E946321883039F481E046
:105290000E94D21980E0089582E8089585E8089573
:1052A0009091BA369923B9F4883031F40E94632181
:1052B0001092903688E0089580914C3590914D354C
:1052C000009721F086E10E94632103C081E0809372
:1052D000903686E0089586E808958BEB96E30E9469
:1052E0009F200E94612F08951F930E94C52C182FA4
:1052F0008BEB96E360E070E00E94C120009719F00C
:105300000E94AC2C11E00E9444340E94B6230E94FB
:105310008918812F1F910895AF92BF92CF92DF928B
:10532000EF920F931F93DF93CF9300D0CDB7DEB7EB
:10533000182F6B01473708F064C086E92A833B8346
:1053400049830E941A205C012A813B814981009790
:1053500009F457C0FC01A081B18183E08C931196C0
:105360001C931197F601508112965C9312978181DC
:10537000928113968D939C9314975250523030F52E
:1053800015961C92159716961C92169717961C92B6
:10539000179718961C92189719961C9219971A9697
:1053A0001C921A971B961C921B971C961C921C977A
:1053B000CD010596B6016D5F7F4F58E0FB0101906E
:1053C000BF01FC010192CF015150C1F71D960C9312
:1053D0001D971E96EC921E971F964C931F97E4E91B
:1053E000F0E0E41BF109EA0FFB1FCF01B90150E027
:1053F0000E9474578AEC96E3B5010E94A62081E0D2
:1054000001C080E02396CDBFDEBFCF91DF911F9119
:105410000F91EF90DF90CF90BF90AF9008951F93C2
:10542000182F86E90E941A20BC01009761F0DC0168
:10543000ED91FC9189E0808311838AEC96E30E94D0
:10544000A62081E001C080E01F910895EF92FF92B5
:105450001F93DF93CF930F920F92CDB7DEB7182F24
:1054600086E969837A830E941A207C010097D1F033
:10547000812F0E94F930482FD701ED91FC9186E0F1
:10548000808311839F012E5F3F4FC90169817A811B
:1054900050E00E9474578AEC96E3B7010E94A62060
:1054A00081E001C080E00F900F90CF91DF911F91BC
:1054B000FF90EF900895CF92DF92EF920F93DF93DA
:1054C000CF93CDB7DEB76697CDBFDEBF6C01DC01F1
:1054D000ED91FC9181818983828193818A839B8371
:1054E00084818C8385818D8386818E8387818F8360
:1054F000808588878185898782858A8783858B8750
:1055000084858C87858596858D879E8787858F87FF
:105510008089888B8189898B82898A8B83898B8B0F
:1055200084898C8B85898D8B86898E8B228D338D9A
:10553000CE010196BE01645F7F4F418D0789E08CEB
:105540000E94BF3FC6010E9421206696CDBFDEBFEC
:10555000CF91DF910F91EF90DF90CF900895EF9270
:10556000FF92CF93DF93E82EE7017E01F92EE7014A
:10557000E881F981818162810E94BE3FC7010E945A
:105580002120DF91CF91FF90EF900895EF92FF924D
:10559000CF93DF93E82EE7017E01F92EE701E88142
:1055A000F98181810E943D07C7010E942120DF917E
:1055B000CF91FF90EF900895EF92FF92CF93DF93FA
:1055C000E82EE7017E01F92EE701E881F98181816A
:1055D00062810E945707C7010E942120DF91CF916D
:1055E000FF90EF900895FC012091EA364091EB3650
:1055F000542F52955695569553704695469543703F
:1056000009F44FC0819191918093F0369093F136D7
:10561000423009F5A2EFB6E31092F23611961C92D1
:10562000119712961C92129713961C921397149628
:105630001C92149715961C92159716961C92169705
:1056400017961C921797819191918093F2369093BF
:10565000F33684E029C0433031F5A2EFB6E3808110
:105660008093F236818111968C93119782811296E4
:105670008C931297838113968C931397848114963D
:105680008C931497858115968C9315978681169621
:105690008C931697878117968C93179738968AE084
:1056A00003C080E001C082E0552309F447C026FD15
:1056B00008C0219131912093FB363093FC368E5FE8
:1056C00008C02091F0363091F1362093FB363093AC
:1056D000FC365230C1F41092FD361092FE36109214
:1056E000FF36109200371092013710920237109255
:1056F000033710920437208131812093FD36309397
:10570000FE368E5F1BC05330C9F490819093FD36F6
:1057100091819093FE3692819093FF36938190937E
:105720000037948190930137958190930237968149
:1057300090930337978190930437885F9091ED366B
:105740009550981B909307375093FA364093EF3655
:105750000895EF92FF920F931F93CF93DF93E82E5C
:10576000E7017E01F92EE701E881F981A781B08583
:105770008C918093ED36A80FB11D11968C9180937A
:1057800006370780F085E02D018112810093EA360B
:105790001093EB3683818093EE3634E0E32EF12CC8
:1057A000EE0EFF1EC7010E94F32A03FDB9C0F701E8
:1057B000E80FF11D802F87708093EC36833039F429
:1057C0008081AAEEB6E35B968C935B975FC08130D5
:1057D00009F44BC0813020F0833009F0A1C056C0DD
:1057E000808191818093083790930937428140935B
:1057F0000A37477011F04C5F01C043E0DF01A40F8E
:10580000B11D8C9180930B374F5F582F577090E0EC
:105810008077907024E0959587952A95E1F7552338
:1058200011F4882389F09F01240F311D20930C3738
:1058300030930D37552311F0550F450F882321F074
:10584000880F880F880F480F80910737481750F44A
:10585000841B80930E37E40FF11DE0930F37F09314
:10586000103762C010920E375FC0809107378823CF
:1058700051F0863718F086E780930737E0930837B2
:10588000F093093751C0109207374EC08091053709
:10589000873009F449C0883021F0843009F040C0D5
:1058A00043C0818192818093083790930937838127
:1058B000948180930A3790930B37858180930C37BE
:1058C0008681978180930D3790930E3714FF2CC0FB
:1058D000808580930F3728C08091EC36833061F447
:1058E00080910537843011F0873031F485EE96E3EE
:1058F000BE010E94A6201DC08091C936882381F474
:105900008091CF36882361F480911137882341F448
:105910008091EC36813021F4CE010E940E2E09C018
:10592000CE010E94212005C0809112378823A1F664
:10593000E3CFDF91CF911F910F91FF90EF900895EA
:10594000FC011082618172816115710521F085EE83
:1059500096E30E94A6200895DC01ED91FC91119739
:10596000E081E43278F4F0E0EE0FFF1FE257FD4FE4
:1059700025913491F901309711F0199508950E94FD
:10598000212008950E94D63508951F9380911237E3
:10599000882381F48091CE36882361F08AEC96E3E7
:1059A00060E070E00E94C120009721F00E94AC2CC2
:1059B00011E001C010E08091E936882359F085EEAE
:1059C00096E360E070E00E94C120009719F00E9409
:1059D000AC2C11E0812F1F910895809112378823FC
:1059E000C9F48091BF368823A9F48091CE368823EC
:1059F00089F48091E936882369F4809118378823E7
:105A000049F480919536882339F481E09091B53638
:105A10009F3019F080E0089580E00895FC01A08196
:105A2000B18180E18C9311964C93119712966C93EF
:105A30008BEB96E3BF010E94A62008956F927F92A0
:105A40008F929F92AF92BF92CF92DF92EF92FF928E
:105A50000F931F93CF93DF93E82EE7017E01F92E7A
:105A6000E70108811981D80111967C91119712964E
:105A7000BC91F80143815481C580D6808780908491
:105A8000A184B28473846484F584A785E684E2FCEF
:105A90000BC08091C936882321F48091CF368823AA
:105AA00019F0CE0161EE9CC08DE0F8018083F38295
:105AB0006A2F6B5FE4E9F0E0EA1BF109E00FF11FE8
:105AC000723041F46E5F8091A4369091A536929326
:105AD00082931DC07330D9F438976A2F635F809129
