:100000000C94C4010C94E5010C9469070C94E5016F
:100010000C94E5010C94E5010C94E5010C94E501C8
:100020000C94E5010C94E5010C94E5010C94E501B8
:100030000C94E5010C94E5010C94EE0B0C94E50195
:100040000C941F0C0C94E5010C94E5010C94E50153
:100050000C94E5010C94E5010C94C5350C94E50174
:100060000C94E5010C94E5010C94E5010C94E50178
:100070000C94E5010C94E5010C94E5010C94E50168
:100080000C94E5010C94E5010C94B90D0C94E50178
:100090000C94E5010C94E5010C94E5010C94E50148
:1000A0000C94E5010C94E5010C94E5010C94E50138
:1000B0000C94E5010C94E5010C94E5010C94E50128
:1000C0000C94E5010C94E5010C94E5010C94E50118
:1000D0000C94E5010C94E5010C94E5010C94E50108
:1000E0000C94E5010C94E5010C94E5010C94E501F8
:1000F0000C94E5010C94E5010C94E5010C94E501E8
:100100000C94E5010C94E5010C94E5010C94E501D7
:100110000C94E5010C94E5010C94E5010C94E501C7
:100120000C94E5010C94E5010C94E5010C94E501B7
:100130000C94E5010C94E5010C94E5010C94E501A7
:100140000C94E5010C94E5010C94E5010C94E50197
:100150000C94E5010C94E5010C94E5010C94E50187
:100160000C94E6060C94E5010C9412070C94E5013E
:100170000C94E5010C94E5010C94E5010C94E50167
:100180000C94E5010C94E5010C94E5010C94E50157
:100190000C94E5010C94E5010C94E5010C94E50147
:1001A0000C94E5010C94E5010C94E5010C94E50137
:1001B0000C94E5010C94E5010C94E5010C94E50127
:1001C0000C94E5010C94E5010C94E5010C94E50117
:1001D0000C94E5010C94E5010C94E5010C94E50107
:1001E0000C94E5010C94E5016E616E00696E660089
:1001F0000403030303020100FFFEFDFCFAF8F4EF21
:10020000DB20241B4E1C202700000000362B0000A2
:10021000000078290000F92F0000CC30A92B000045
:10022000071FB31E0000361F1E1F00000000000045
:10023000000000000000CE1F561F00000000F81F45
:10024000B81F00000F20A21F0104010101020101DB
:100250000101010101010101040108020101010183
:100260000201010201020101020102020101010178
:1002700008D63693328834A13606351C35323548D7
:100280003501010201020101010101010100407A71
:1002900010F35A00A0724E18090010A5D4E800000F
:1002A000E87648170000E40B54020000CA9A3B00AD
:1002B0000000E1F505000080969800000040420F24
:1002C000000000A08601000000102700000000E8E8
:1002D00003000000006400000000000A00000000AD
:1002E000000100000000002C76D888DC674F08234E
:1002F000DFC1DFAE59E1B1B796E5E3E453C63AE6B4
:1003000051997696E8E6C28426EB898C9B62ED4093
:100310007C6FFCEFBC9C9F40F2BAA56FA5F49005E2
:100320005A2AF75C936B6CF9676DC11BFCE0E40D16
:1003300047FEF520E6B500D0ED902E03009435770A
:10034000050080841E080000204E0A000000C80C32
:10035000333333330F986E12831141EF8D2114899B
:100360003BE65516CFFEE6DB18D1844B381BF77CF5
:100370001D901DA4BBE424203284725E228100C93A
:10038000F124ECA1E53D270011241FBECFEFDFE5EE
:10039000DEBFCDBF00E00CBF13E2A0E0B0E2E8E3B7
:1003A000F6EA00E00BBF02C007900D92AA31B10738
:1003B000D9F716E3AAE1B3E201C01D92AB34B1074D
:1003C000E1F70E944D020C941A530C94000081E056
:1003D00061E00E945E0D0895EF92FF920F931F93CC
:1003E00080E062E00E945E0D85E048E853E160E055
:1003F00070E020E00CEE11E0EE24FF240E94970A4A
:100400001F910F91FF90EF900895EF92FF920F933D
:100410001F9380912B23882379F190912C23981797
:1004200011F410922C2380912C2390E0FC01EE0F0C
:10043000FF1F23E0880F991F2A95E1F7E80FF91FA6
:10044000E75CFC4D8081918180933123909332232E
:1004500080932223909323238DE293E20E94E6343B
:100460008823B1F080912C238F5F80932C2382E02E
:1004700060E00E945E0D0CC084E040E553EC60E05B
:1004800070E020E005E012E0EE24FF240E94970ACD
:100490001F910F91FF90EF9008950E94B418882348
:1004A00011F00E9473080E94580D80E061E00E94E4
:1004B0005E0D81E061E00E945E0D82E061E00E94DD
:1004C0005E0D789480E00E943F07882311F00E941F
:1004D000730888EB95E062EE75E00E947B5080E047
:1004E00090E20E940B5181E00E94F7190E94BB1814
:1004F000FDCFEF92FF920F931F93882341F581E088
:1005000040E050E060E074E024E000E00E94431A24
:1005100000D00F9284E190E2EDB7FEB78183928321
:100520008AE190E0838394830E94F2500F900F90B1
:100530000F900F9085E048E853E160E070E020E024
:100540000CEE11E0EE24FF240E94970A03C081E024
:100550000E94F7191F910F91FF90EF900895CF928D
:10056000DF92EF920F931F93DF93CF930F920F922F
:10057000CDB7DEB720914E232F5F20934E238823E3
:1005800061F50C2D1D2D30E021C0F80183858A31E5
:10059000D1F484858823B9F481819281FAEB8E3B72
:1005A0009F0789F4F8018585968597FF0CC085E43F
:1005B00090E20E940B51F80183856485A80120E830
:1005C0000E94561928C00F5E1F4F3F5F3E15E8F28C
:1005D000233038F083E690E210C08A3EC9F423301D
:1005E00050F481E040E050E060E074E024E000E09E
:1005F0000E94431A10C083E990E20E940B511982B5
:100600001A8283E5BE016F5F7F4F0E940E1A03C0FE
:1006100081E00E94F7190F900F90CF91DF911F9109
:100620000F91EF90DF90CF900895AF92CF92EF921D
:100630000F93DF93CF930F92CDB7DEB78823E1F40A
:10064000633549F481E0898381E4BE016F5F7F4FA8
:100650000E940E1A14C0613469F48EEB9AEB6AE1C1
:1006600040E02FE00FE0EE24E394CC24AA240E9483
:10067000761A05C0623519F081E00E94F7190F90D3
:10068000CF91DF910F91EF90CF90AF900895EF92BF
:10069000FF920F931F93DF93CF930F92CDB7DEB7E7
:1006A000882309F05EC000D00F9289EB90E2EDB78D
:1006B000FEB7818392838EEB9AEB838394830E94AF
:1006C000F2500F900F900F900F9085E00E94BE099E
:1006D00080E060E00E945E0D22E020932D23E1E3A4
:1006E000F3E2109231231182128213821482158256
:1006F0001682178220932E2380914D2990914E29A6
:1007000080932F239093302310922223109223233F
:10071000109224231092252310922623109227232F
:10072000109228231092292320931F2380932023A3
:100730009093212310922C2381E0898382E5BE01CE
:100740006F5F7F4F0E940E1A84E040E553EC60E03B
:1007500070E020E005E012E0EE24FF240E94970AFA
:1007600003C081E00E94F7190F90CF91DF911F9194
:100770000F91FF90EF900895EF920F931F93A09128
:100780003923B0913A23109701F1E0913B23E2170E
:10079000E1F4E0913C23E317C1F4E0913D23E41739
:1007A000A1F4E0913E23E51781F4E0913F23E617A1
:1007B00061F4E0914023E71741F4E0914123E81709
:1007C00021F4E0914223E91749F1E0914323F091AC
:1007D0004423309701F1009145230217E1F4009181
:1007E00046230317C1F4009147230417A1F4009195
:1007F0004823051781F400914923061761F40091FD
:100800004A23071741F400914B23081721F4009164
:100810004C23091729F01097A9F418C0E0E001C093
:10082000E1E0AE2FB0E0FD01EE0FFF1F13E0AA0FD5
:10083000BB1F1A95E1F7EA0FFB1FE75CFC4D008137
:10084000118128C0309741F5E1E001C0E0E0F0E01F
:100850008F010F5F1F4FDF01AA0FBB1FEE0FFF1F9E
:10086000EE0FFF1FEE0FFF1FAE0FBF1FA75CBC4DAB
:10087000FD010193119312962C93129731834283B9
:1008800053836483758386839783E0914D23EF5F61
:10089000E0934D23EE2404C00FEF1FEFEE24E3940A
:1008A0000E94A2191F910F91EF900895442321F403
:1008B00080914D2380932B230895EF92FF920F9305
:1008C0001F93CF93DF93E9018881823559F48981A1
:1008D000843541F48A81823429F483ED90E20E94C8
:1008E0000B513CC081E060E00E945E0D88819981DF
:1008F000AA81BB814C818F3F2FEF92072FEFA20778
:100900002FEFB207D9F0CDB7DEB72897CDBFDEBF46
:10091000EDB7FEB731962CEE30E229833A8382831D
:100920009383A483B583468317820E94F2502DB728
:100930003EB7285F3F4F2DBF3EBF04C081E291E22A
:100940000E940B5185E048E853E160E070E020E050
:1009500007EE11E0EE24FF240E94970ADF91CF9169
:100960001F910F91FF90EF9008950F931F93DF93C6
:10097000CF930F92CDB7DEB78C01662301F585E0EA
:100980000E94BE0980E060E00E945E0D00D00F92E0
:1009900086E491E2EDB7FEB78183928303831483EB
:1009A0000E94F25081E089830F900F900F900F907A
:1009B00082E5BE016F5F7F4F0E940E1A03C081E087
:1009C0000E94F7190F90CF91DF911F910F91089519
:1009D0000895DF92EF92FF920F931F93CF93DF93CF
:1009E000EC0182E061E00E945E0DEA80FB800C81F8
:1009F0001D81DE808981853109F454C0863180F4FF
:100A0000813109F449C0823120F4803109F05CC0A1
:100A100017C0823109F443C0843109F055C04BC07E
:100A2000883109F445C0893120F4863109F04CC081
:100A30003CC0813E09F442C0893E09F045C041C036
:100A40008AE691E20E940B5100D000D086E791E245
:100A5000ADB7BEB711968D939C931297EDB7FEB7C5
:100A6000E382F482058316830E94F2500F900F9068
:100A7000EDB7FEB731968CE891E2ADB7BEB71196EF
:100A80008D939C931297D28213820E94F2500F9002
:100A90000F900F900F901CC089E991E217C08FEB67
:100AA00091E214C08AED91E211C084E092E20EC09E
:100AB0008BE292E20BC087E592E208C089E792E2FE
:100AC00005C080EB92E202C087EC92E20E940B51DB
:100AD0008AE090E00E9404518A819B81AC81BD81B3
:100AE00080931A2390931B23A0931C23B0931D2360
:100AF0008E8180931E2300912A230F5F00932A2367
:100B000082E06FE173E245E02AE133E2EE24E39410
:100B10000E94D31884E040E553EC60E070E020E0F0
:100B200005E012E0EE24FF240E94970ADF91CF91A6
:100B30001F910F91FF90EF90DF900895EF92FF9239
:100B40000F931F93662379F481E00E945E0D85E088
:100B500048E853E160E070E020E007EE11E0EE24A9
:100B6000FF240E94970A1F910F91FF90EF90089524
:100B70000F931F93DF93CF930F92CDB7DEB7898387
:100B80008A3071F48DE089838E010F5F1F4F80E002
:100B9000B80141E00E944B078823C9F38AE08983AA
:100BA0008E010F5F1F4F80E0B80141E00E944B07AC
:100BB0008823C9F380E090E00F90CF91DF911F91DF
:100BC0000F9108950F931F93DF93CF930F92CDB79B
:100BD000DEB78E010F5F1F4F80E0B80141E00E9439
:100BE00054078823C9F389818D3011F48AE0898301
:100BF000898190E00F90CF91DF911F910F9108951F
:100C0000DF93CF930F92CDB7DEB780E0BE016F5F69
:100C10007F4F41E00E945407813019F4298130E070
:100C200002C02FEF3FEFC9010F90CF91DF910895E0
:100C30000F931F93CF93DF938C01EB010AC080E0E9
:100C4000B8014C2F0E944B0790E0C81BD90B080F2E
:100C5000191F1C161D069CF3DF91CF911F910F9158
:100C600008959B01AC0160507E4E85489F4FF2E095
:100C7000660F771F881F991FFA95D1F7E3E0220FBF
:100C8000331F441F551FEA95D1F70E94044F21508E
:100C90003040E0E6F6E088E0818384E08283828968
:100CA0008861828BE0EAF9E0378326838CE18483D4
:100CB00083E085838CE383830895CF93DF93282F8C
:100CC0008091A309837FE0EAF9E08383E091F9282A
:100CD0003091FA283E1718F08E2F875F02C08E2FB2
:100CE0008150831B681708F4862F392FE901982F4C
:100CF00011C02091FA283991A22FB0E0AB51B74D25
:100D00003C93293019F41092FA2803C02F5F2093E6
:100D1000FA289150992369F79091FD28992349F475
:100D2000F0E0EB51F74D90819093A00991E0909302
:100D3000FD289091A3099C60E0EAF9E09383DF919C
:100D4000CF910895FC018091FE288823E9F19091CC
:100D5000A3099F7CA0EAB9E013969C9313978A306D
:100D600050F08091FC288093FB288AE08093FE2835
:100D70006A3028F405C0861718F4682F01C06AE0AD
:100D8000962F18C0A091FB28B0E0AB51B74D1A9632
:100D90008C911A9781938091FB288F5F8093FB2819
:100DA0002091FE2821502093FE2891508A3011F482
:100DB0001092FB28992331F78091A3098063E0EA20
:100DC000F9E08383862F089580E008951F920F92A3
:100DD0000FB60F920BB60F9211248F939F93EF9340
:100DE000FF938091FC289091FE289F5F9093FE28AE
:100DF0009091A009E82FF0E0EB51F74D92878930F0
:100E000019F41092FC2803C08F5F8093FC28FF9197
:100E1000EF919F918F910F900BBE0F900FBE0F908F
:100E20001F9018951F920F920FB60F920BB60F924C
:100E300011248F93EF93FF938091F928893019F44F
:100E40001092F92803C08F5F8093F928E091F92868
:100E50008091FA28E81739F0F0E0EB51F74D8081E6
:100E60008093A00902C01092FD28FF91EF918F910D
:100E70000F900BBE0F900FBE0F901F9018958823F8
:100E800041F460E076E980E090E00E94310680E085
:100E9000089585E80895882329F4CB01642F0E94E2
:100EA0005D06089580E00895882329F4CB01642F1E
:100EB0000E94A206089580E0089580934F239093A6
:100EC0005023E0E4F6E081E0828B94E0928784870F
:100ED00008951F920F920FB60F920BB60F92112426
:100EE0002F933F934F935F936F937F938F939F9332
:100EF000AF93BF93EF93FF93E0914F23F091502373
:100F00001995FF91EF91BF91AF919F918F917F9133
:100F10006F915F914F913F912F910F900BBE0F906A
:100F20000FBE0F901F901895EBECF1E021E030E040
:100F300088ED90E084BF208308958091CF0187FDE4
:100F4000FCCF08950F931F93DF93CF930F920F92CF
:100F5000CDB7DEB789839A830E949D0700EC11E02C
:100F6000F80112829A8191838981808386E0828749
:100F70000E949407F80184810F900F90CF91DF9128
:100F80001F910F9108950E945D0C0E94750C0E94A4
:100F9000E20D0E94FD080E944D0C0E94570C21E0BA
:100FA00030E088ED90E084BF2093800080E00895D9
:100FB0000E94B10B0895CF92DF92EF92FF920F93B0
:100FC0001F93CF93DF938B01EA01813031F4862F99
:100FD000642FA9010E94A90C21C08823E1F4CA0151
:100FE000860F971F40E181309407B8F4C22ED32EAC
:100FF000EE24FF240BC0C701800F911F0E94A2079F
:10100000F60181936F010894E11CF11CEC16FD06BA
:1010100090F380E003C088EE01C085E8DF91CF91B6
:101020001F910F91FF90EF90DF90CF9008955F9206
:101030006F927F928F929F92AF92BF92CF92DF92E8
:10104000EF92FF920F931F93CF93DF93EC015B011D
:10105000CB018C0F9D1F20E18130920798F5C42EA3
:10106000D52EEE24FF2400EC11E023E3722E95E34D
:10107000892E86E3982E21C0CE010E94A207F60198
:1010800061906F018615A9F05C2E0E949D078091EA
:10109000CF0181FF04C0F80192860E949407F801F5
:1010A00072865092C00111821282648282860E94EE
:1010B000940721960894E11CF11CEA14FB04E0F269
:1010C00080E001C085E8DF91CF911F910F91FF90E3
:1010D000EF90DF90CF90BF90AF909F908F907F90D8
:1010E0006F905F9008951F93CF93DF93E0E2F6E057
:1010F00014828FEF8183C0E2D6E01FEF8FEF9FEF66
:101100000E942F091F83FACF6091FF287091002958
:101110009B0140E050E0A90133272227809120085D
:1011200090912108A0E0B0E0282B392B4A2B5B2BB3
:101130008091FF28909100296817790729F7B90154
:10114000CA0108951F93CF93DF931FB7F89480913E
:1011500053238F3F09F44CC0C82FD0E0FE0133E089
:10116000EE0FFF1F3A95E1F7EC0FFD1FEF5FF64D15
:1011700080819181A281B3812091FF283091002943
:101180002A173B0769F480932808909329088091D7
:101190000C08806180930C0880910708836003C06D
:1011A000809107088C7F809307080E948408FE01C5
:1011B00023E0EE0FFF1F2A95E1F7EC0FFD1FEF5F15
:1011C000F64D2081318142815381621B730B840B68
:1011D000950B6F5F7F4F8F4F9F4F6F3F2FEF7207C2
:1011E0002FEF82072FE7920718F481E080935223B4
:1011F0001FBFDF91CF911F9108951092512310923C
:1012000052231092FF28109200298FEF80935323CE
:101210008093542380935523E5E0F9E28483108280
:101220001182399699E2EB33F907C1F70E94970CC6
:101230000895882311F488E001C08AE080930008B3
:10124000809340080895CF93DF93EC010E948408B7
:10125000688379838A839B83DF91CF9108954FB709
:10126000F8948630910518F12091200830912108DA
:10127000280F391F80912008909121088217930729
:1012800040F4809120089091210882179307C8F3B9
:101290000EC0809120089091210828173907C8F3C3
:1012A000809120089091210882179307C8F34FBFBF
:1012B000089590E0FC0143E0EE0FFF1F4A95E1F72F
:1012C000E80FF91FEF5FF64D81E02481358121158C
:1012D000310509F480E0089580915223882309F4B0
:1012E0004CC01092522320915123222309F445C06F
:1012F000809154238F3F59F4809155238F3F39F4C7
:1013000080915323809355238093542312C03091AE
:1013100053238091552390E0FC0173E0EE0FFF1FF3
:101320007A95E1F7E80FF91FEF5FF64D30873093BC
:1013300055238091532390E0FC0163E0EE0FFF1FE3
:101340006A95E1F7E80FF91FEF5FF64D808580930E
:1013500053238091552390E0FC0153E0EE0FFF1FD3
:101360005A95E1F7E80FF91FEF5FF64D8FEF808791
:101370002150209351230E94A20808950F931F9398
:10138000082F863008F0CDC01FB7F8940E946C0972
:1013900040915123442309F45BC050915323252FDE
:1013A000352F02C0232F382F031709F041C0802F9B
:1013B00090E0051781F4FC0153E0EE0FFF1F5A95F2
:1013C000E1F7E80FF91FEF5FF64D80858093532317
:1013D0000E94A20819C030E0F90143E0EE0FFF1FA0
:1013E0004A95E1F7E20FF31FEF5FF64DDC0123E0D2
:1013F000AA0FBB1F2A95E1F7A80FB91FAF5FB64D23
:1014000018968C9118978087802F90E0FC01A3E0BC
:10141000EE0FFF1FAA95E1F7E80FF91FEF5FF64DFA
:101420008FEF80878091512381508093512365C035
:10143000832F90E0FC0173E0EE0FFF1F7A95E1F738
:10144000E80FF91FEF5FF64D8085415009F0AACFF4
:1014500040915423342F242F4BC00217D9F52091EB
:1014600055230417B1F4021721F48FEF809355230D
:101470000DC0802F90E0FC0163E0EE0FFF1F6A9526
:10148000E1F7E80FF91FEF5FF64D80858093542355
:1014900034C0832F90E0FC0153E0EE0FFF1F5A95FC
:1014A000E1F7E80FF91FEF5FF64D802F90E0DC01C8
:1014B00043E0AA0FBB1F4A95E1F7A80FB91FAF5F22
:1014C000B64D18968C91189780870217B1F4309317
:1014D000552313C0822F90E0FC01B3E0EE0FFF1FF5
:1014E000BA95E1F7E80FF91FEF5FF64D322F20852F
:1014F0002F3F09F0B2CF80E00FC0802F90E0FC01B9
:10150000A3E0EE0FFF1FAA95E1F7E80FF91FEF5FC9
:10151000F64D1482158281E01FBF882321F080E000
:1015200003C08AE801C089E81F910F9108952F92A6
:101530003F924F925F926F927F928F929F92AF9263
:10154000BF92CF92DF92EF92FF920F931F93CF93B0
:10155000DF93D82E4A015B01C22E3701863008F096
:10156000CBC00115110509F4CBC0C82FD0E0FE0196
:1015700033E0EE0FFF1F3A95E1F7EC0FFD1FEF5F31
:10158000F64D84819581009709F0B8C00E948408C7
:101590009B01AC01CC2029F06C2D613009F0B0C06A
:1015A00014C0D501C40180589040A040B04080389C
:1015B0006FEF96076FEFA6076FE7B60708F0A2C0B8
:1015C000820E931EA41EB51E13C0D501C4018058FF
:1015D0009040A040B040821B930BA40BB50B803809
:1015E0002FEF92072FEFA2072FE7B20708F08AC06C
:1015F000CFB6F8940E946C09509153235F3F31F0AD
:10160000F0905123652F452F70E054C0D0925323A2
:10161000FE0123E0EE0FFF1F2A95E1F7EC0FFD1FFF
:10162000EF5FF64D508735C04F3F09F442C0242F7D
:1016300030E0F90193E0EE0FFF1F9A95E1F7E20F1A
:10164000F31FEF5FF64D80819181A281B381140178
:101650002501281A390A4A0A5B0AD201C1018F3FC3
:101660002FEF92072FEFA2072FE7B20718F4642F8E
:1016700040851FC0FE0183E0EE0FFF1F8A95E1F752
:10168000EC0FFD1FEF5FF64D4087541721F4D09209
:10169000532381E013C0862F90E0FC01B3E0EE0FEE
:1016A000FF1FBA95E1F7E80FF91FEF5FF64DD086FF
:1016B00056C07F5F7F1508F4B7CF38C0FE01A3E0A6
:1016C000EE0FFF1FAA95E1F7EC0FFD1FEF5FF64D40
:1016D00080829182A282B38204831583668277829C
:1016E000909151239F5F90935123882311F00E9482
:1016F000A208CFBE80E007C08AE805C088E803C022
:1017000088EE01C08BE8DF91CF911F910F91FF9080
:10171000EF90DF90CF90BF90AF909F908F907F9091
:101720006F905F904F903F902F900895862F90E09C
:10173000FC0173E0EE0FFF1F7A95E1F7E80FF91F48
:10174000EF5FF64DD086FE0163E0EE0FFF1F6A9556
:10175000E1F7EC0FFD1FEF5FF64D8FEF808780E024
:10176000ADCF1F931FB7F8940E946C091FBF1FEFE6
:101770002FC03FB7F8948091542390E0DC0143E000
:10178000AA0FBB1F4A95E1F7A80FB91FAF5FB64D6F
:1017900018962C9118971496ED91FC911597169622
:1017A0008D919C91179718961C93189714961D92DB
:1017B0001C92159716961D921C92179720935423EE
:1017C0002F3F11F4109355233FBF309709F019951F
:1017D000809154238F3F69F61F9108951F920F92B5
:1017E0000FB60F920BB60F9211242F933F934F9386
:1017F0005F936F937F938F939F93AF93BF93EF9379
:10180000FF938091FF289091002901968093FF28F3
:10181000909300290E94A208FF91EF91BF91AF9190
:101820009F918F917F916F915F914F913F912F91F8
:101830000F900BBE0F900FBE0F901F9018951F9228
:101840000F920FB60F9211248F938091512388230A
:1018500019F081E0809352238F910F900FBE0F906B
:101860001F901895FC012091FF283091002960916C
:1018700068087091690840E050E0A90133272227E9
:1018800080E090E0262B372B482B592B2083318387
:1018900042835383089581E0089585E88093800111
:1018A00081E68093810188E6809382010895E0EAD1
:1018B000F0E0828184608283089582E0809350000A
:1018C0008091510081FFFCCF21E030E088ED90E075
:1018D00084BF2093400082E0E0E5F0E086838091C1
:1018E00060008160809360000895E0E4F6E080810C
:1018F0008061808380818068808380818160808333
:1019000080818062808380818860808380818F7BFA
:101910008083E0E6F6E080ED818380E2828380E1EF
:10192000858380818E7F808381E0808B089588E02D
:10193000809300088093400880EF80930C0880E338
:1019400080934C0883E08093060889E280934308E3
:101950000895AF92BF92CF92DF92EF92FF920F93D2
:101960001F93DF93CF93CDB7DEB7C054D040CDBF28
:10197000DEBF9E012F5F3F4F90E0E0E4F6E0EE24F3
:10198000E394B0E1FB2E00EC18E0A3E0DA2E70EC5B
:10199000A72E78E0B72EC0904906709149067C7F4B
:1019A0007187E682F682000000000000000000005F
:1019B0000000000000000000000000000000000027
:1019C0000000000000000000000000000000000017
:1019D0000000000000000000000000000000000007
:1019E000000000000000D8011396DC92139770915C
:1019F000C20877FFFCCF792F7F77D50113967C93B0
:101A000013977091C20877FFFCCFD50113961C92F3
:101A100013977091C20877FFFCCF7091C308F582CD
:101A2000E582C186D9017D939D019F5F903409F0C5
:101A3000B2CFDE01AF5BBF4F20E030E0FE01319658
:101A400091912927022E2295207F2025032E322FC7
:101A500022952F700226269532272327220F220F48
:101A6000220F2025EA17FB0759F72115310581F4CC
:101A7000FA01DE011196A80FB11DCA01860F911D52
:101A800002C02D912193E817F907D9F780E001C032
:101A900085E8C05CDF4FCDBFDEBFCF91DF911F91E6
:101AA0000F91FF90EF90DF90CF90BF90AF9008958F
:101AB000E0E2F6E087E0818386830895833030F4A6
:101AC000E82FF0E0E252FD4D208101C020E06623C6
:101AD00019F06130B9F40BC081E090E002C0880FCA
:101AE000991F2A95E2F7E0E2F6E08583089581E008
:101AF00090E002C0880F991F2A95E2F7E0E2F6E035
:101B00008683089581E090E002C0880F991F2A958E
:101B1000E2F7E0E2F6E087830895E0E2F6E088E0AD
:101B2000828388E1838B80E49FE10197F1F7089538
:101B3000E0E2F6E0808590E023E0959587952A9590
:101B4000E1F7817008952FB7F89498E09093B00072
:101B5000E0E2F6E08BE1838B81858C7F8260818778
:101B60009287E0EAF0E082818260828378942FBFDE
:101B700008951F920F920FB60F920BB60F92112479
:101B80008F93EF93FF93E0E2F6E08285877F828771
:101B9000E8E4F0E080818E7F8083FF91EF918F9168
:101BA0000F900BBE0F900FBE0F901F9018950E94C4
:101BB000A30DE8E4F0E08081807F856080837894E5
:101BC00088950895E0ECF8E080E580838081816865
:101BD000808380E1E0E4F6E085830895E0E4F6E0C8
:101BE00020914906909149069C7F9187806C90E1F5
:101BF0009683E0ECF8E083838091C20887FFFCCFF6
:101C0000E0ECF8E063838091C20887FFFCCFE0E45A
:101C1000F6E080E1858321870895E0E4F6E02091F5
:101C20004906909149069C7F9187806890E1968350
:101C3000E0ECF8E083838091C20887FFFCCFE0EC02
:101C4000F8E013828091C20887FFFCCF8091C3081F
:101C5000E0E4F6E090E195832187089520E1E0E457
:101C6000F6E0268320E2E0ECF8E023832091C2082E
:101C700027FFFCCFE0ECF8E013826130B9F0262FAB
:101C8000FC01A0ECB8E03091C20837FFFCCF3091E6
:101C9000C30813961C92139731932150223098F762
:101CA000625070E06F5F7F4F860F971F2091C208D0
:101CB00027FFFCCF2091C308FC01208380E1E0E4F2
:101CC000F6E085830895FC0180E1A0E4B6E0169675
:101CD0008C9380E6A0ECB8E013968C9313978191D7
:101CE00061509091C20897FFFCCF13968C93139785
:101CF0006623A9F78091C20887FFFCCF80E1E0E46A
:101D0000F6E085830895DF93CF930F920F92CDB7BE
:101D1000DEB74A8369830E940D0E6981862390E0B5
:101D20004A8102C0959587954A95E2F70F900F90EA
:101D3000CF91DF9108951F93DF93CF9300D0CDB75C
:101D4000DEB7182F2B834A8369830E940D0E2B81E7
:101D500030E04A8102C0220F331F4A95E2F76981C1
:101D6000262360956823622B812F0E94EE0D239617
:101D7000CDBFDEBFCF91DF911F910895FB01A0E49D
:101D8000B6E020914906909149069C7F19969C9354
:101D9000199790E116969C9390E4A0ECB8E0139606
:101DA0009C9313979091C20897FFFCCFA0ECB8E0EA
:101DB00013968C9313978091C20887FFFCCFA0ECF9
:101DC000B8E0819113968C9313978091C20887FF96
:101DD000FCCF4150B1F7E0E4F6E080E18583218754
:101DE0000895000000000000000000000000000056
:101DF00000000000000000000000000000000000E3
:101E00000000E0E4F6E050914906909149069C7F7D
:101E1000918790E19683E0ECF8E013829091C208FC
:101E200097FFFCCFE0ECF8E083838091C20887FF46
:101E3000FCCF862F972FFC01A0ECB8E013961C92E4
:101E400013978091C20887FFFCCF8091C3088193CC
:101E50004150A1F7E0E4F6E080E1858351870895E1
:101E6000EF92FF920F931F93CF93DF9386E593E258
:101E70000E94E60F0BE513E291EAE92E98E2F92EB3
:101E8000C0E0D0E0F70100831183BE01660F771F29
:101E9000660F771F6F55774D86E593E20E94ED0F31
:101EA00021960A561F4F84E090E0E80EF91EC930D3
:101EB000D10541F7DF91CF911F910F91FF90EF90E6
:101EC000089586E593E260E070E00E9408100895AE
:101ED000BC01009721F086E593E20E94ED0F089582
:101EE0006F927F928F929F92BF92CF92DF92EF92EA
:101EF000FF920F931F93CF93DF938C014B016A01E5
:101F0000BFB6F894DC0114968C911497882309F4D9
:101F10004BC0CD91DC91119741155105C1F07E0167
:101F200013C0F601628173810190F081E02D8881F8
:101F300099811995882371F47E019A818B81692E8C
:101F4000E3013E01782EE301209759F72FC0209737
:101F500069F17E018114910449F5D8012D913C91DC
:101F600011978A819B81C217D30721F48D939C938B
:101F7000119703C0F70182839383D80112968D9144
:101F80009C911397C817D90721F41296ED92FC92F1
:101F90001397F80184818150848380819181009717
:101FA00029F41282138202C0C0E0D0E0BFBECE018D
:101FB000DF91CF911F910F91FF90EF90DF90CF9025
:101FC000BF909F908F907F906F900895FC0110823A
:101FD00011821282138214820895FC019FB7F89433
:101FE0008481882319F46083718306C0A281B38140
:101FF00012966D937C93139762837383DB01129621
:102000001D921C92139784818F5F84839FBF0895D4
:10201000AB0160E070E00E94700F0895AB0161E0D9
:1020200070E00E94700F0895CF93DF93EC010BC016
:10203000CE0160E070E00E940810009711F41C824D
:1020400005C00E94680F8C81882391F7DF91CF91A2
:102050000895AF92BF92CF92DF92EF92FF920F93CB
:102060001F93DF93CF93CDB7DEB72897CDBFDEBFE9
:1020700081E06FE140E00E94830E883009F05CC08F
:102080008FE00E940D0E8EE00E940D0EA82E8EE0B5
:1020900061E00E94EE0DD0904906809149068C7F48
:1020A000E0E4F6E0818782E069E00E94EE0D7E01C7
:1020B0000894E11CF11CC7010E9423098E010B5FEB
:1020C0001F4FBE2CCF2C25C0C8010E9423092D8193
:1020D0003E814F81588589819A81AB81BC81281BC3
:1020E000390B4A0B5B0B2B3F31054105510588F03D
:1020F0008AE10E940D0E80FF03C0682F6E7F02C030
:10210000682F61608AE10E94EE0D8B2D9C2D0E944C
:10211000230980E4E82E86E0F82E8091480682FFAD
:10212000D3CF8FE00E940D0E81E0F7018487D18626
:102130008EE06A2D0E94EE0D2896CDBFDEBFCF91B6
:10214000DF911F910F91FF90EF90DF90CF90BF90A4
:10215000AF9008951F93182F80915C298F3091F5CF
:10216000109260298DE598E10E945D07E0E4F6E0B9
:1021700081E0848780914906836081878FB7F894D6
:10218000789498E09683909160299923E1F38FBF2A
:102190008FE00E940D0E87E498E10E945D078EE0BB
:1021A00068E00E94EE0D8DE064E042E021E00E94D4
:1021B0009B0E88E080935C29183009F41BC2133011
:1021C00009F418C2183009F461C0193050F4143001
:1021D00009F4E5C0163009F4F1C0133009F000C26B
:1021E0007FC01F3069F0103120F4193009F0F8C1B8
:1021F000A1C0163109F43DC1193109F0F1C195C1F1
:1022000082E063E00E94EE0D8DE064E042E020E0B9
:102210000E949B0E8FE00E940D0E8EE06FEF40E05B
:1022200020E10E949B0E8EE06FEF40E020E10E94D3
:102230009B0E10935C2900000000000000000000CD
:10224000000000000000000000000000000000008E
:10225000000000000000000000000000000000007E
:10226000000000000000000000000000000000006E
:1022700000000000000088E0E0E4F6E0858383E2EF
:1022800090E00E942F0980915C29B5C180915C2962
:10229000883009F4A5C182E068E00E94EE0D0000DC
:1022A000000000000000000000000000000000002E
:1022B000000000000000000000000000000000001E
:1022C000000000000000000000000000000000000E
:1022D000000000000000000000000000000080C1BD
:1022E00080915C29883009F47BC182E063E00E9420
:1022F000EE0D0000000000000000000000000000E3
:1023000000000000000000000000000000000000CD
:1023100000000000000000000000000000000000BD
:1023200000000000000000000000000000000000AD
:10233000000056C180915C29883009F437C089308B
:1023400020F4863009F04CC105C0863119F089317E
:1023500009F046C182E069E00E94EE0D0000000035
:10236000000000000000000000000000000000006D
:10237000000000000000000000000000000000005D
:10238000000000000000000000000000000000004D
:1023900000000000000000000000000021C180914A
:1023A0005C29883019F0893021F41AC10E94291063
:1023B00017C182E064E00E94EE0D12C180915C2999
:1023C000893059F08A3020F4883009F009C12AC0D8
:1023D000863119F0893109F003C182E066E00E947C
:1023E000EE0D0000000000000000000000000000F2
:1023F00000000000000000000000000000000000DD
:1024000000000000000000000000000000000000CC
:1024100000000000000000000000000000000000BC
:102420000000DEC00E94291082E066E00E94EE0DEE
:10243000000000000000000000000000000000009C
:10244000000000000000000000000000000000008C
:10245000000000000000000000000000000000007C
:10246000000000000000000000000000000000006C
:10247000B7C080915C29883009F430C0893020F4DD
:10248000863009F0ADC005C0893019F0893109F0F6
:10249000A7C082E066E10E94EE0D0000000000008F
:1024A000000000000000000000000000000000002C
:1024B000000000000000000000000000000000001C
:1024C000000000000000000000000000000000000C
:1024D0000000000000000000000082C00E942910DF
:1024E00082E066E10E94EE0D0000000000000000A6
:1024F00000000000000000000000000000000000DC
:1025000000000000000000000000000000000000CB
:1025100000000000000000000000000000000000BB
:1025200000000000000000005BC080915C29883042
:1025300009F430C0893020F4863009F051C005C05C
:10254000893019F0863109F04BC082E069E10E94C0
:10255000EE0D000000000000000000000000000080
:10256000000000000000000000000000000000006B
:10257000000000000000000000000000000000005B
:10258000000000000000000000000000000000004B
:10259000000026C00E94291082E069E10E94EE0D31
:1025A000000000000000000000000000000000002B
:1025B000000000000000000000000000000000001B
:1025C000000000000000000000000000000000000B
:1025D00000000000000000000000000000000000FB
:1025E00081E06FE140E00E94830E80935C298F318F
:1025F000B9F301C088E01F9108958091372988239D
:10260000E1F0809161298823C1F48091C5289091DF
:10261000C628009739F486E90E94610F8093C52887
:102620009093C6288091C5289091C628009729F0DC
:102630001092372986E10E94AA1080913C298823B4
:1026400051F088E399E260E070E00E940810009782
:1026500011F00E94811380916129823011F40E944F
:10266000BC130895EF92FF920F931F93DF93CF93C4
:102670000F920F92CDB7DEB7E091C528F091C62832
:10268000309731F4CE01029661E00E942E0E30C0E8
:10269000E080F18080E0BE016F5F7F4F41E00E94EB
:1026A000F10E698167FD24C06D5F06E910E0061B2D
:1026B00011090E0D1F1DC8010E942E0EF701078380
:1026C00010876091C5287091C62888E399E20E941E
:1026D000ED0F86E90E94610F8093C5289093C6286C
:1026E000009731F489E00E94AA1081E08093372995
:1026F0000F900F90CF91DF911F910F91FF90EF906E
:102700000895CF93DF939C01FC01C081D181AF81FB
:10271000B885EC91E0935D29F0E03196EA0FFB1F5C
:1027200060814181403218F4442319F003C04FE125
:1027300001C041E062956695669563708FEF689F72
:10274000B001112450E0649FC001659F900D749FFB
:10275000900D11246DE570E00E94DD4E6F3F710514
:1027600011F008F06FEF608329833A83CE010E9455
:10277000C936DF91CF91089510926129E091C72861
:10278000E83028F4F0E0EF51FD4D808101C085E88C
:1027900060913D2970913E290E9417390895CF9389
:1027A000DF93EC01662331F08CE260EF44E020918E
:1027B0005B2904C08CE260EF44E020E00E949B0EA5
:1027C000C230D10528F48CE26EE041E027E005C07C
:1027D0008CE26EE041E0209153290E949B0E89E13A
:1027E0000E94AA108931D9F7809149068C7FE0E4D4
:1027F000F6E08187C130D10559F480915D2983319C
:1028000018F087E592E002C087E990E00E942F0966
:10281000C0E4D6E088E08D830000000000008E83D5
:1028200080915E2990915F29FC01608161500E9436
:10283000630E81E0809361298091490683608987D6
:10284000DF91CF910895FC01CB01209161292223D2
:1028500091F4E0933D29F0933E2927813085209320
:102860005E2930935F292115310539F0642F0E94CC
:10287000CF1380E0089586E8089588EE08958823B0
:1028800011F087E005C082E060EE45E00E94830E13
:102890008093C72882E0809361298091C528909118
:1028A000C628009739F489E00E94AA1081E080933D
:1028B0003729089586E10E94AA10089585FD03C076
:1028C000982F9F7304C0982F91959F71919520E048
:1028D00030E0822FF901E051FE4FE4919E1724F081
:1028E000E91744F4815008952F5F3F4F203131059F
:1028F00081F780E008951F93CF93DF9382E2609188
:102900004D290E94EE0D83E260914E290E94EE0D4A
:10291000CFE3D9E214E2812F69910E94EE0D1F5F8F
:102920001C32C9F780E260914B290E94EE0D81E2D2
:1029300060914C290E94EE0D88E060E645E0209110
:1029400051290E949B0E8FE26FE040E020915429B4
:102950000E949B0E8EE268E043E0209155290E9480
:102960009B0E8FE260EF44E020915A290E949B0E5B
:1029700088E06FE140E0209152290E949B0E8091F7
:1029800056290E945E14282F85E06FE040E00E94E7
:102990009B0EDF91CF911F91089585FD03C0982F65
:1029A0009F7304C0982F91959F719195E0EFF1E08E
:1029B0002491291744F4203EB4F02032B4F427FFC8
:1029C00010C0822F0BC03F96E4919E178CF4E03E1E
:1029D00054F0E03254F4E7FF0AC08E2F8F7180620A
:1029E00007C0822F05C080E203C08FE101C08E2F97
:1029F000806808951F93CF93DF93EB018E3431F0FD
:102A0000893541F4888180935B29CFC08881809388
:102A10005329CBC020915C292F3009F4C8C08B30DA
:102A200009F4BBC08C3078F4823009F480C0833064
:102A300018F48823E1F1BDC0833009F484C08430E8
:102A400009F0B7C063C0833511F1843530F48F3499
:102A500059F0803509F0ADC00CC0873509F460C06D
:102A6000803F09F0A6C076C02881209354298FE2C8
:102A700067C088819981682F80934D2990934E2952
:102A800082E20E94EE0D83E260914E290DC08881A2
:102A90009981682F80934B2990934C2980E20E9462
:102AA000EE0D81E260914C290E94EE0D7EC0809176
:102AB0006129882309F07FC080E098EFAFEFB7E08D
:102AC000088004C0B695A795979587950A94D2F784
:102AD00081709070009709F470C0283039F088E058
:102AE0000E94AA108830D9F716E101C018E02881A9
:102AF0002093522988E06FE140E00E949B0E18303D
:102B000009F453C086E10E94AA104FC08091612948
:102B1000882309F050C08881882309F44FC04DC034
:102B2000288120935A298FE260EF44E03CC08881DD
:102B30000E94CD14809356290E945E14282F85E0B0
:102B40006FE040E030C028812093512988E060E6A2
:102B500045E029C0888180933F298981809340295D
:102B60008A81809341298B81809342298C81809333
:102B700043298D81809344298E81809345298F81BB
:102B800080934629CFE3D9E214E2812F69910E9414
:102B9000EE0D1F5F1C32C9F708C02881209355290C
:102BA0008EE268E043E00E949B0E80E007C081E86F
:102BB00005C084EF03C086E801C088EEDF91CF91A5
:102BC0001F91089584E08093532923E02093542992
:102BD0008FEF9FEF80934D2990934E2980934B293F
:102BE00090934C298BE08093522980E098EFAFEFCF
:102BF000B7E08093472990934829A0934929B0933F
:102C00004A29109257298AE091E080934F299093A6
:102C100050298AE08093582982E08093592985E0E1
:102C200080935A2920935B2984E80E94CD148093D5
:102C3000562981E080935129109255290895DF93F8
:102C4000CF930F92CDB7DEB783E068E043E020E09A
:102C50000E949B0E83E067E040E021E00E949B0E13
:102C60000E94744F682F8DE299830E94EE0D8EE2D0
:102C700067E040E09981292F0E949B0E8EE260EC74
:102C800046E021E00E949B0E8EE260E245E021E0FA
:102C90000E949B0E8CE060E847E021E00E949B0EC2
:102CA0008EE068E00E94EE0D86E16FEF0E94EE0D6F
:102CB0008DE063E040E020E00E949B0E8AE06FE040
:102CC00040E023E00E949B0E8DE068E043E021E0BD
:102CD0000E949B0E8DE064E042E021E00E949B0E8A
:102CE0000F90CF91DF910895FF920F931F93CF9391
:102CF000DF9386E10E940D0E182F86E161EC0E94A1
:102D0000EE0D00914906809149068C7FE0E4F6E0E3
:102D1000818786E00E94AA108630D9F785E160E8B5
:102D200047E020E00E949B0E28E0F22EC0E0D0E0B9
:102D300086E060E645E00E94830E9E01220F331F6D
:102D4000220F331FC82FD0E0C22BD32B000000006E
:102D50000000000000000000000000000000000073
:102D60000000000000000000000000000000000063
:102D70000000000000000000000000000000000053
:102D8000000000000000000000000000FA9409F0BC
:102D9000CFCF83E00E94AA108FE00E940D0EE0E4E6
:102DA000F6E081E084870187CE010E94794F86E1B9
:102DB000612F0E94EE0DDF91CF911F910F91FF9037
:102DC0000895EF92FF920F931F93DF93CF930F928B
:102DD000CDB7DEB7F82E81E065E170E041E050E06C
:102DE0009E012F5F3F4F0E94DB0700E416E088E062
:102DF000F801868382ED90E00E942F09EE24E3948F
:102E0000F801E68281E090E00E942F09F801E58256
:102E100000E084E690E00E942F0981E06FE140E04D
:102E20000E94830E0A30C9F0883011F00F5FF1CF95
:102E300080935C2929812223C9F082E16FE040E080
:102E40000E949B0E13C00E94E2150E947B141092F8
:102E500061291092372980E001C085E80F90CF9159
:102E6000DF911F910F91FF90EF9008950E947416CB
:102E70000E941F16FF2049F3E6CF0E94E116882327
:102E800059F01CC088E399E260E070E00E940810ED
:102E9000009711F00E94680F80913C29882391F7D8
:102EA00087E498E10E945D07E0E4F6E081E0848732
:102EB000809149068360818780E0089585E80895C0
:102EC0001F93CF93DF930E94C307882309F0DAC0D2
:102ED000C0E4D6E011E01D8388E08E838AE491E0AF
:102EE0000E942F091E8381E090E00E942F091D831C
:102EF0001AE003C0115009F4C5C084E690E00E94B6
:102F00002F098CE10E940D0E8B30A1F782E068E062
:102F10000E94EE0D10E084E690E00E942F0981E00F
:102F20006FE140E00E94830E1A3009F4ABC0883094
:102F300011F01F5FF0CF80935C2981E060E070E0CA
:102F400048E050E02FE339E20E94DB0781E00E9475
:102F5000E116882351F096C0CFE3D9E20E94744F66
:102F6000899389E2C734D807C9F780913F29209116
:102F70004029509141296091422970914329E09163
:102F80004429F0914529A0914629382F315041E03C
:102F9000381708F040E0822F815091E0821708F046
:102FA00090E0480F21E0481708F020E0922B252FF1
:102FB000215081E0251708F080E0592F520F91E051
:102FC000521708F090E0892B262F215091E0261708
:102FD00008F090E0682F620F81E0621708F080E04F
:102FE000982B272F215081E0271708F080E0792FB8
:102FF000720F91E0721708F090E0892B2E2F21506C
:1030000091E02E1708F090E0E82FE20F81E0E21740
:1030100008F080E0982B2F2F215081E02F1708F027
:1030200080E0920FF1E0921708F0F0E08F2BA1956D
:10303000A81779F49F3F69F4EF3F59F47F3F49F4B3
:103040006F3F39F45F3F29F44F3F19F43E3F08F0DA
:1030500083CF87E498E10E945D07809149068360F1
:10306000E0E4F6E081870E94300F86E90E94610F5C
:103070008093C5289093C62888E399E20E94E60FC2
:1030800080E001C085E8DF91CF911F9108958FE026
:103090000E940D0E83FF10C020916129213041F460
:1030A00086FF02C081E001C080E00E943F1402C0A0
:1030B0000E9432130E947B4808958FE00E940D0EFB
:1030C00084FF03C081E080936029089580915C298A
:1030D0008F30A9F080916129882399F410923729C3
:1030E00088E00E94AA108830D9F780E00E94190970
:1030F0008FE00E94AA108F3031F480E0089581E8BB
:10310000089586E8089586E8089580915C298F30B7
:1031100051F488E00E94AA10883039F481E00E94BE
:10312000190980E0089582E8089585E8089590914E
:1031300061299923B9F4883031F40E94AA101092C1
:10314000372988E008958091C5289091C628009776
:1031500021F086E10E94AA1003C081E08093372904
:1031600086E0089586E8089582E699E20E94E60FD7
:103170000E94472908951F930E940925182F82E66F
:1031800099E260E070E00E940810009719F00E9438
:10319000F02411E00E94E9330E94FD120E94D8073A
:1031A000812F1F910895AF92BF92CF92DF92EF923D
:1031B0000F931F93DF93CF9300D0CDB7DEB7182FB7
:1031C0006B01473708F064C086E92A833B83498353
:1031D0000E94610F5C012A813B814981009709F4BB
:1031E00057C0FC01A081B18183E08C9311961C93A0
:1031F0001197F601508112965C931297818192810A
:1032000013968D939C9314975250523030F5159627
:103210001C92159716961C92169717961C92179744
:1032200018961C92189719961C9219971A961C9228
:103230001A971B961C921B971C961C921C97CD01EB
:103240000596B6016D5F7F4F58E0FB010190BF010D
:10325000FC010192CF015150C1F71D960C931D97AF
:103260001E96EC921E971F964C931F97E4E9F0E090
:10327000E41BF109EA0FFB1FCF01B90150E00E94E6
:10328000675087E799E2B5010E94ED0F81E001C028
:1032900080E02396CDBFDEBFCF91DF911F910F91CC
:1032A000EF90DF90CF90BF90AF900895EF92FF9294
:1032B0001F93DF93CF930F920F92CDB7DEB7182FE6
:1032C0007A0186E92A8369830E94610FAC012A8111
:1032D0006981009771F1FC01A081B18181E08C933B
:1032E00011961C931197F701808113968C93139775
:1032F0008181928114968D939C931597CD010696AA
:10330000E3E0F0E0EE0EFF1E38E0F70101907F01F0
:10331000FC010192CF013150C1F71E962C931E97EC
:1033200012966C9387E799E2BA010E94ED0F81E053
:1033300001C080E00F900F90CF91DF911F91FF901F
:10334000EF900895CF92DF92EF92FF920F931F9329
:10335000DF93CF93CDB7DEB72597CDBFDEBFF62E77
:103360006C0186E929833A834B835C837D830E94C9
:10337000610FFC0129813A814B815C817D8100973D
:1033800049F1A081B18182E08C9311962C93119721
:1033900012963C93129713964C93139714965C9342
:1033A00014971596FC92159716967C931697179678
:1033B000CC9217971896DC92189719960D931C9338
:1033C0001A971B96EC9287E799E2BF010E94ED0FD6
:1033D00081E001C080E02596CDBFDEBFCF91DF91B7
:1033E0001F910F91FF90EF90DF90CF9008951F9362
:1033F000182F86E90E94610FBC01009761F0DC0183
:10340000ED91FC9189E08083118387E799E20E9426
:10341000ED0F81E001C080E01F910895EF92FF92CF
:103420001F93DF93CF930F920F92CDB7DEB7182F74
:1034300086E969837A830E94610F7C010097D1F04D
:10344000812F0E94742B482FD701ED91FC9186E0CB
:10345000808311839F012E5F3F4FC90169817A816B
:1034600050E00E94675087E799E2B7010E94ED0F94
:1034700081E001C080E00F900F90CF91DF911F910C
:10348000FF90EF900895CF92DF92EF92FF920F930B
:103490001F93DF93CF930F92CDB7DEB7182F6A013A
:1034A0007B0186E929830E94610FBC012981009775
:1034B00091F0DC01ED91FC918BE080831183C2825D
:1034C000D382E482F5822683078387E799E20E940C
:1034D000ED0F81E001C080E00F90CF91DF911F914F
:1034E0000F91FF90EF90DF90CF9008958F929F9271
:1034F000AF92CF92EF920F931F93DF93CF930F92E0
:103500000F92CDB7DEB74C01162F86E92A83498387
:103510000E94610FBC012A8149810097A1F0DC0162
:10352000ED91FC918DE080838182928213832583CB
:103530000683E782C086A186448387E799E20E94DA
:10354000ED0F81E001C080E00F900F90CF91DF91EF
:103550001F910F91EF90CF90AF909F908F90089513
:10356000CF93DF93EC0186E90E94610FBC010097C5
:1035700009F1DC01ED91FC9111978EE08083888147
:10358000818389819A81828393838881823029F41F
:103590008B819C818483958307C03496239688E031
:1035A000099001928150E1F787E799E20E94ED0FBF
:1035B00081E001C080E0DF91CF910895FC01A081FE
:1035C000B18184E18C9313966C93139711964D936C
:1035D0005C93129782E699E2BF010E94ED0F089575
:1035E0000F931F93DF93CF930F920F92CDB7DEB758
:1035F00080917F29909180296BEE4FEF5FEF0E94C1
:10360000DE1A109276290FEF1FEF09831A8380E5E7
:10361000BE016F5F7F4F0E94542B0093BF29109310
:10362000C029E5EBF9E21082118212821382148222
:103630001582168217820E943C290F900F90CF911D
:10364000DF911F910F910895DF92EF92FF920F93F8
:103650001F93DF93CF93CDB7DEB72F97CDBFDEBFDC
:103660007C01DE011196FC0150814181252F342F10
:10367000F9012FE001900D922150E1F780937F290D
:10368000909380298C81823019F48F8198851AC09B
:103690008F818093B52988858093B6298985809309
:1036A000B7298A858093B8298B858093B9298C8521
:1036B0008093BA298D858093BB298E858093BC2900
:1036C0008EEF9FEF8093BF299093C02980E5BE01C4
:1036D0006B5F7F4F0E94542B0E946A29D7010D9186
:1036E0001C9181E0F8018083E182F282EE56FF4F67
:1036F00080838F858183DF01189780913F298C9388
:103700008091402911968C931197809141291296AE
:103710008C9312978091422913968C9313978091E2
:10372000432914968C9314978091442915968C9371
:1037300015978091452916968C9316978091462966
:1037400017968C93DF011A978FEF9FEF8D939C93C1
:1037500011978C81823059F43C978091BF299091C8
:10376000C0298083918383E298EC45E11CC0729765
:103770008091B52980838091B62981838091B72972
:1037800082838091B82983838091B9298483809131
:10379000BA2985838091BB2986838091BC29878340
:1037A00083E29CEC4BE1DF01129720914D2930918F
:1037B0004E292D933C93DF0113972091CB292C9315
:1037C0002F5F2093CB29DF0115978D939C9336971C
:1037D0004083D8011796ED93FC93189784E0BE01BF
:1037E0006D5F7F4F0E94542BD82E80E0BE016E5F2C
:1037F0007F4F0E94542BDD2071F4882361F4C801AF
:1038000062E070E041E00E942314882321F481E00B
:103810008093002A08C0C70161EE4FEF5FEF0E945E
:10382000DE1A0E943C292F96CDBFDEBFCF91DF91DB
:103830001F910F91FF90EF90DF900895BC01FC0164
:10384000908181812091C529222321F4CB010E94FE
:10385000680F0895E92FF82F8091EB2981838091DB
:10386000EC2982838091ED2983838091EE298483E2
:103870008091EF2985838091F02986838091F129B9
:1038800087838091F22980878091F629818783E15F
:10389000808382E699E20E94ED0F0895CF92DF9235
:1038A000EF92FF920F931F93CF93DF93BC01FC0124
:1038B000C081D181D980EA80FB800C811D815E812D
:1038C0004F81388589859A85CB842091FF292250A4
:1038D000223020F0CB010E94680F5CC022E02883D8
:1038E000DE01A057BF4FFD01219311968D939C934C
:1038F0001297C282FD01389780913F298083809181
:103900004029818380914129828380914229838348
:10391000809143298483809144298583809145291E
:1039200086838091462987833897D082E182F2820C
:1039300003831483558346833783FD0172978091F7
:103940004D2990914E2980839183FD017397809139
:10395000CB2980838F5F8093CB29FD01759783E608
:103960009CEC8083918356978BE18C93AF83B887CF
:103970001E8288E699E20E94ED0F8091BD29909108
:10398000BE298C839D8382E00E945909882311F40B
:103990000E94BE26DF91CF911F910F91FF90EF9073
:1039A000DF90CF900895FF920F931F93DF93CF93F3
:1039B0000F920F92CDB7DEB7F090F8290E94680FF2
:1039C000FF20B1F583E566EF79E20E94542B409128
:1039D000F6295091F7298091EB298093B5298091A0
:1039E000EC298093B6298091ED298093B7298091A5
:1039F000EE298093B8298091EF298093B92980918D
:103A0000F0298093BA298091F1298093BB29809174
:103A1000F2298093BC2981E08093FF2910927629B6
:103A200080917D29833009F582E080937D291DC036
:103A3000109276290FEF1FEF09831A8380E5BE01EC
:103A40006F5F7F4F0E94542B0093BF291093C029B2
:103A5000E5EBF9E21092B5291182128213821482E9
:103A60001582168217824FEF5FEF80917F29909128
:103A700080296F2D0E94DE1A0E943C290F900F9022
:103A8000CF91DF911F910F91FF900895EF92FF92D8
:103A90000F931F93CF93DF93C091C329D091C42973
:103AA00080E061E040E020E030E000E010E00E94D3
:103AB000C622882351F480917F299091802961EE5C
:103AC0004FEF5FEF0E94DE1A18C0AE0160E070E0B9
:103AD00084E0440F551F661F771F8A95D1F781E058
:103AE00020E000EF1AE1EE24FF240E94970A8823C9
:103AF00021F080E090E00E94F01ADF91CF911F91B9
:103B00000F91FF90EF9008952091CA282730E8F494
:103B1000FC01A781B08512968C91129786958695A7
:103B20008370823091F4E091C828F091C9283297CF
:103B3000E093C828F093C92816968D919C91179709
:103B4000808391832F5F2093CA2880E0089520917D
:103B5000CA282730F0F4DC011796ED91FC911897F4
:103B60008281869586958370833099F48091C828E8
:103B70009091C92808978093C8289093C928DC01A0
:103B8000369688E001900D928150E1F72F5F2093E7
:103B9000CA2880E00895BF92CF92DF92EF92FF9201
:103BA0000F931F93DF93CF93CDB7DEB72597CDBF8C
:103BB000DEBFDB01ED90FC901197F701618372830A
:103BC0008AE0808387010C561F4F4091C629442309
:103BD00071F0041B1109242F235FE1E8F9E2C80109
:103BE000BF0150E02D830E9467502D8101C02DE060
:103BF00080916C29882309F443C00093C82810934E
:103C0000C9281092CA2887EA9DE189839A8388E6A9
:103C100099E26E010894C11CD11CB6012D830E944B
:103C20000E10B090CA281092CA2884E89DE18983BA
:103C30009A8388E699E2B6010E940E103091CA2854
:103C4000A091C828B091C9281197EB2DF0E0CF01C1
:103C500024E0880F991F2A95E1F7832B8C93EE0FB0
:103C6000FF1FEE0FFF1FE30FF11DEE0FE093CA28B9
:103C70002D812E0FF0E0E095F095E00FF11F02C0CE
:103C8000F801129212928091FF29833019F08FEF80
:103C90009FE002C08FEF9FE43091C52931119068F9
:103CA000DF019E938E9380914B2990914C293FEF99
:103CB0008E3F9307E9F43A972A5F80913F298083EA
:103CC000809140298183809141298283809142297A
:103CD00083838091432984838091442985838091C3
:103CE0004529868380914629878380E090EC05C032
:103CF000FD019293829380E090E8DF01129740915A
:103D00004D2950914E294D935C93DF0113973091CB
:103D1000C7293C933F5F3093C729DF0115978D93E7
:103D20009C9336972083D7011796ED93FC931897B1
:103D3000C70162E070E040E00E94231481E08093BC
:103D4000002A2596CDBFDEBFCF91DF911F910F9145
:103D5000FF90EF90DF90CF90BF900895BC0180E07E
:103D60000E94CB1D0895CF92DF92EF920F93DF93C5
:103D7000CF93CDB7DEB76697CDBFDEBF6C01DC0158
:103D8000ED91FC9181818983828193818A839B83D8
:103D900084818C8385818D8386818E8387818F83C7
:103DA000808588878185898782858A8783858B87B7
:103DB00084858C87858596858D879E8787858F8767
:103DC0008089888B8189898B82898A8B83898B8B77
:103DD00084898C8B85898D8B86898E8B228D338D02
:103DE000CE010196BE01645F7F4F418D0789E08C53
:103DF0000E945D04C6010E94680F6696CDBFDEBFBB
:103E0000CF91DF910F91EF90DF90CF900895EF92D7
:103E1000FF92CF93DF93E82EE7017E01F92EE701B1
:103E2000E881F981818162810E949E05C7010E941B
:103E3000680FDF91CF91FF90EF900895EF92FF927E
:103E4000CF93DF93E82EE7017E01F92EE701E881A9
:103E5000F9818181928163810E94B504C7010E942A
:103E6000680FDF91CF91FF90EF900895EF92FF924E
:103E70000F93CF93DF93E82EE7017E01F92EE70140
:103E8000E881F98121813281438154816581768184
:103E90008781908501850E94BC03C7010E94680F3D
:103EA000DF91CF910F91FF90EF9008950F931F93A3
:103EB000DF93CF93CDB7DEB76697CDBFDEBF8C0162
:103EC000DC01ED91FC91818192818A839B838381C6
:103ED000898384818C8385818D8386818E8387818C
:103EE0008F83808588878185898782858A87838576
:103EF0008B87818192818D879E8784858C8785853C
:103F00008F878685888B8785898B80898A8B818935
:103F10008B8B82898C8B83898D8B84898E8BCE0150
:103F20000196BE01645F7F4F45890E945604C80117
:103F30000E94680F6696CDBFDEBFCF91DF911F91C3
:103F40000F910895EF92FF92CF93DF93E82EE70150
:103F50007E01F92EE701E881F98181810E94893B88
:103F6000C7010E94680FDF91CF91FF90EF900895F5
:103F7000EF92FF92CF93DF93E82EE7017E01F92EB7
:103F8000E701E881F98181810E947902C7010E94DD
:103F9000680FDF91CF91FF90EF900895CF92DF925D
:103FA000EF92FF920F931F93CF93DF93E82EE701D9
:103FB0007E01F92EE701E881F981048115812681CE
:103FC000378189E0C82ED12CCE0EDF1E818162811F
:103FD0004381E0840E94AF02CE010E94680FDF910E
:103FE000CF911F910F91FF90EF90DF90CF900895A8
:103FF000EF92FF92CF93DF93E82EE7017E01F92E37
:10400000E701E881F981818162810E941503C7017E
:104010000E94680FDF91CF91FF90EF900895EF928B
:10402000FF92CF93DF93E82EE7017E01F92EE7019F
:10403000E881F98181810E944703C7010E94680FCE
:10404000DF91CF91FF90EF900895FC012091D82946
:104050004091D929542F52955695569553704695AF
:104060004695437009F44FC0819191918093DE2968
:104070009093DF29423009F5A0EEB9E21092E029D1
:1040800011961C92119712961C92129713961C92DD
:10409000139714961C92149715961C9215971696C2
:1040A0001C92169717961C92179781919191809365
:1040B000E0299093E12984E029C0433031F5A0EE56
:1040C000B9E280818093E029818111968C931197C8
:1040D000828112968C931297838113968C931397F7
:1040E000848114968C931497858115968C931597DB
:1040F000868116968C931697878117968C931797BF
:1041000038968AE003C080E001C082E0552309F4BC
:1041100047C026FD08C0219131912093E9293093B1
:10412000EA298E5F08C02091DE293091DF29209393
:10413000E9293093EA295230C1F41092EB29109208
:10414000EC291092ED291092EE291092EF2910928D
:10415000F0291092F1291092F229208131812093C7
:10416000EB293093EC298E5F1BC05330C9F490814A
:104170009093EB2991819093EC2992819093ED2972
:1041800093819093EE2994819093EF299581909358
:10419000F02996819093F12997819093F229885F75
:1041A0009091DB299550981B9093F5295093E8291D
:1041B0004093DD290895EF92FF920F931F93CF93C1
:1041C000DF93E82EE7017E01F92EE701E881F9810E
:1041D000A781B0858C918093DB29A80FB11D119622
:1041E0008C918093F4290780F085E02D0181128164
:1041F0000093D8291093D92983818093DC2934E056
:10420000E32EF12CEE0EFF1EC7010E94252003FDB8
:104210003DC1F701E80FF11D802F87708093DA29E7
:10422000833039F48081A8EDB9E25B968C935B977B
:104230005FC0813009F44BC0813020F0833009F039
:1042400025C156C0808191818093F6299093F729EA
:1042500042814093F829477011F04C5F01C043E060
:10426000DF01A40FB11D8C918093F9294F5F582F66
:10427000577090E08077907024E0959587952A9507
:10428000E1F7552311F4882389F09F01240F311D94
:104290002093FA293093FB29552311F0550F450F30
:1042A000882321F0880F880F880F480F8091F52907
:1042B000481750F4841B8093FC29E40FF11DE09310
:1042C000FD29F093FE29E6C01092FC29E3C08091FD
:1042D000F529882351F0863718F086E78093F52971
:1042E000E093F629F093F729D5C01092F529D2C0B2
:1042F0008091F329843009F4CDC0853030F48130C9
:1043000059F0823009F0C2C00BC0873009F4C2C036
:10431000883009F0BBC00EC081818093F629BAC0F5
:10432000818192818093F6299093F72983818093EC
:10433000F829B0C0818192818093F6299093F72962
:10434000838194818093F8299093F92985818093C2
:10435000FA29868197818093FB299093FC2914FF89
:1043600099C080858093FD2995C08091DA2983309A
:1043700061F48091F329843011F0873031F481EDBC
:1043800099E2BE010E94ED0F8BC0809176298130A9
:1043900009F467C0813020F0843008F077C03AC05B
:1043A00080917C29882341F58091FF29833090F00A
:1043B000833009F06BC08091DA29813009F462C042
:1043C000833009F063C08091F3298430B9F18730DC
:1043D00079F543C09091DA29913009F453C09330B4
:1043E00009F054C09091F329943041F1973099F13C
:1043F000913009F04BC01EC0823019F0843009F0B2
:1044000045C08091DA29882309F040C0CE010E947E
:104410003B2C46C00E941A2C8091DA29813091F100
:104420008330A1F58091F329843041F0873089F001
:10443000813061F5CE010E941E1C32C080916C2932
:10444000882321F0CE010E9482242AC00E94CD231D
:104450001DC08091FF298230C9F4CE010E94AE1E9A
:104460001FC08091DA29833059F48091F32982307A
:1044700069F481E00E94BE09CE010E94D31C10C0E5
:10448000813021F4CE010E947B250AC0CE010E941A
:10449000680F06C08091002A882309F066CF75CF87
:1044A000DF91CF911F910F91FF90EF900895FC0144
:1044B0001082618172816115710521F081ED99E2AF
:1044C0000E94ED0F0895FC018681882399F40780EE
:1044D000F085E02D8281869586958370823061F427
:1044E00081E0DB014D915C91119726813781421764
:1044F000530719F080E0089580E00895FB01DC0186
:1045000016968C9116978823E9F517960D90BC9115
:10451000A02D12968C911297869586958370833084
:1045200099F581E0208116969C911697291751F5EF
:10453000218117969C911797291721F522811896AA
:104540009C9118972917F1F4238119969C9119973A
:104550002917C1F424811A969C911A97291791F46E
:1045600025811B969C911B97291761F426811C9627
:104570009C911C97291731F427811D969C911D97BA
:10458000291719F080E0089580E008958F929F9296
:10459000AF92BF92DF92EF92FF920F931F93DF9340
:1045A000CF930F920F92CDB7DEB7D82E790186E95F
:1045B0004A8369830E94610F4C014A816981009797
:1045C00009F4DCC0FC01A080B180DD2011F084E0A2
:1045D00001C08BE0F5018083F50181829282D501D3
:1045E000AD56BF4F84E08C9380914B2990914C291C
:1045F0009C012E5F3F4F2230310510F0662359F1A8
:10460000189780913F298C938091402911968C9323
:1046100011978091412912968C931297809142298B
:1046200013968C9313978091432914968C93149727
:104630008091442915968C9315978091452916965B
:104640008C9316978091462917968C93179783E23F
:1046500090EC52E105C09E938E9383E290E85CE07B
:10466000442361F020914D2930914E290217130700
:1046700029F05E5F3E932E9360E002C0806461E0AB
:10468000423029F49860F7012081318119C043300C
:1046900071F49C6018975A5F9D0148E0F701019002
:1046A0007F01F90101929F014150C1F735C020916E
:1046B000BF293091C029FFEF2E3F3F0721F09860BE
:1046C0003E932E9329C09C6018975A5F2091B5297C
:1046D0002C932091B62911962C9311972091B729EC
:1046E00012962C9312972091B82913962C93139716
:1046F0002091B92914962C9314972091BA291596D4
:104700002C9315972091BB2916962C9316972091E0
:10471000BC2917962C9317971297662341F0209186
:104720004D2930914E292D933C93119703C00D9341
:104730001C9311979D01215030404091CB29F901E4
:1047400040834F5F4093CB299D0123503040F901B6
:104750008083918314975C93F501A783B087C5018B
:1047600062E070E041E00E942314882321F481E09C
:104770008093002A04C0C4010E94680F80E00F905B
:104780000F90CF91DF911F910F91FF90EF90DF90ED
:10479000BF90AF909F908F9008950F931F93CF93EA
:1047A000DF9386E90E94610FEC01009709F4A5C030
:1047B000088119818CE0D8018C931196CD93DC93FC
:1047C000129716961C921697F801EC56FF4F80919F
:1047D0004B2990914C299C012E5F3F4F223031058F
:1047E000E8F4389780913F29808380914029818324
:1047F000809141298283809142298383809143293A
:104800008483809144298583809145298683809182
:104810004629878380E090EC61E105C09293829302
:1048200080E090E86BE020914D2930914E29409135
:10483000E9295091EA292417350711F4806403C04F
:104840006E5F329322932091E8292330E9F4389760
:104850006A5F2091EB2920832091EC29218320910C
:10486000ED2922832091EE2923832091EF292483AF
:104870002091F02925832091F12926832091F22986
:10488000278381609C6008C02091EB293091EC293E
:1048900032932293816098609F0122503040409172
:1048A000E9295091EA29D9014D935C939F01235046
:1048B00030404091CB29D9014C934F5F4093CB2995
:1048C0009F0125503040D9018D939C93369760838A
:1048D000D8011796ED93FC9318978881998161E030
:1048E00070E040E00E942314882321F481E080934B
:1048F000002A03C0CE010E94680FDF91CF911F9163
:104900000F910895EF92FF920F931F93DF93CF9330
:1049100000D00F92CDB7DEB70E94680F8091FF29BB
:10492000823008F453C08091E829823019F483E67C
:1049300092E205C0833009F049C08EE792E2898394
:104940009A838BEE99E28B839C8388E699E27E01C1
:104950000894E11CF11CB7010E940E10009789F029
:10496000DC010D911C91D8011796ED91FC911897DF
:104970004091E9295091EA29248135814217530752
:1049800019F00E94CD2322C021E0F8012683818303
:10499000928388E699E2B7010E940E10009741F0D9
:1049A000D8011796ED91FC911897818180618183E0
:1049B000C80161E070E040E00E942314882321F4E4
:1049C00081E08093002A02C0F80116822496CDBFB0
:1049D000DEBFCF91DF911F910F91FF90EF9008956F
:1049E000DC01ED91FC911197E081E43278F4F0E084
:1049F000EE0FFF1FE050FE4F25913491F9013097E3
:104A000011F0199508950E94680F08950E945E356F
:104A100008951F938091002A882381F480917B2937
:104A2000882361F087E799E260E070E00E94081057
:104A3000009721F00E94F02411E001C010E0809165
:104A4000D529882359F081ED99E260E070E00E9459
:104A50000810009719F00E94F02411E0812F1F9197
:104A600008958091002A8823C9F4809166298823BB
:104A7000A9F480917B29882389F48091D529882302
:104A800069F48091062A882349F480913C2988237F
:104A900039F481E090915C299F3019F080E008950D
:104AA00080E00895FC018681882329F48481958122
:104AB00001978483958380E00895FC018681882393
:104AC00041F481E0248135812115310519F080E020
:104AD000089580E00895FC01A081B18180E18C936C
:104AE00011964C93119712966C9382E699E2BF014E
:104AF0000E94ED0F08950F931F93DF93CF93CDB7CF
:104B0000DEB72897CDBFDEBFBC01FC01908181815B
:104B10002091F529222321F4CB010E94680F24C1A2
:104B2000E92FF82F8091DC29808F2091E8292183BB
:104B30008091E9299091EA2982839383822F825080
:104B4000823050F5148215821682178210861186E3
:104B500012861386223039F48091EB299091EC294A
:104B60008483958323C08091EB2984838091EC29F1
:104B700085838091ED2986838091EE2987838091BA
:104B8000EF2980878091F02981878091F1298287A0
:104B90008091F22983870AC01282138214821582BF
:104BA000168217821086118612861386808D909148
:104BB0006729891761F5248190916D29291739F5A5
:104BC000258190916E29291711F5268190916F29E1
:104BD0002917E9F42781909170292917C1F42085BC
:104BE00090917129291799F421859091722929179B
:104BF00071F4228590917329291749F423859091A6
:104C00007429291721F4CB010E94680F63C0809397
:104C10006729848180936D29858180936E2986819F
:104C200080936F2987818093702980858093712973
:104C300081858093722982858093732983858093EF
:104C400074292091DD2924871786108A118A128AF7
:104C5000138A148A158A168A8091DE299091DF2999
:104C6000858796872330C9F48091E02987878091D2
:104C7000E129808B8091E229818B8091E329828BCD
:104C80008091E429838B8091E529848B8091E629AA
:104C9000858B8091E729868B0BC0223039F4809177
:104CA000E0299091E1298787908B02C015861686AE
:104CB0008091F429878B8091F529818F8091F62945
:104CC0009091F729828F938F81E1808382E699E228
:104CD0000E94ED0F8091D82984FF46C08091FF2962
:104CE000833009F443C08091E829823071F48091C7
:104CF000EB299091EC2989839A830091E9291091FD
:104D0000EA2980E060E042E021C0833019F580911B
:104D1000EB2989838091EC298A838091ED298B830B
:104D20008091EE298C838091EF298D838091F029E9
:104D30008E838091F1298F838091F2298887009159
:104D4000E9291091EA2980E060E043E09E012F5FAD
:104D50003F4F07C080E060E040E020E030E000E04E
:104D600010E00E94C62202C00E943C292896CDBFB6
:104D7000DEBFCF91DF911F910F910895EF92FF92C7
:104D80000F931F9382E040E050EE61E070E020E07E
:104D900009ED16E2EE24FF240E94970A882321F0F1
:104DA00080E090E00E94D9261F910F91FF90EF9034
:104DB0000895FF920F931F93DF93CF9300D00F922C
:104DC000CDB7DEB782E595E289839A8388E699E2DA
:104DD0008E010F5F1F4FB8010E940E108DE595E206
:104DE00089839A83F02E012F88E699E26F2D702F28
:104DF0000E940810BC010097A1F0DC01ED91FC912C
:104E000011978081823019F08D3071F704C080EFE6
:104E10000E94C928E9CFCB0160EF43810E946B2536
:104E2000E3CF80916C29882311F00E94BE2624963E
:104E3000CDBFDEBFCF91DF911F910F91FF900895FD
:104E40002F923F924F925F926F927F928F929F929A
:104E5000AF92BF92CF92DF92EF92FF920F931F9388
:104E6000DF93CF9300D0CDB7DEB78C01DC012D905E
:104E70003C90F1016180E28043815481C580D680FD
:104E8000A780B084F185FB83D1011A969C901A9774
:104E90001B968C901B971C967C901C971D96FC90E3
:104EA0001D971F96BC91BA83F101268530E084E0FE
:104EB000482E512C4222532222FD0BC0809176298C
:104EC000882321F480917C29882319F0C80161EEA0
:104ED000A0C08DE0D1018C931396FC921397169687
:104EE0001C926A816B5FE4E9F0E0BA81EB1BF10987
:104EF000E20DF31D762D723049F46B2F695F8091BE
:104F00004B2990914C29929382931EC0862D833019
:104F1000D9F438976A81635F80913F2980838091BB
:104F20004029818380914129828380914229838312
:104F300080914329848380914429858380914529E8
:104F4000868380914629878380914D2990914E29AF
:104F50008417950729F4662041F0EE2059F402C029
:104F6000662019F06E5F92938293EE20F1F080E05C
:104F700090E002C080E490E0AE2DA23029F46E5F94
:104F80006983D292C2920CC03897685F6983C082ED
:104F9000D182A282B382BB81B483958286827782DA
:104FA00069816E5F5293429302C080E090E040912D
:104FB000CB2942934F5F4093CB29AC01416020FF46
:104FC00002C0AC0141627A81773608F050619E2DB3
:104FD000990F990F80E0362D3295330F330F307CC7
:104FE00020E0822B932BDF011297842B952B8D933E
:104FF0009C93119767FD0BC033976083D10117967F
:10500000ED93FC9318974114510439F41FC0C80163
:1050100065EE4F2D0E946B2533C08091FF29825091
:105020008230A0F488E699E2B8010E94ED0F8091E9
:10503000BD299091BE29F1018483958382E00E946D
:1050400059098823E9F40E94BE261AC00E946A29E1
:10505000D10111960D931C931297C10162E070E08B
:1050600041E00E942314882321F481E08093002AE8
:1050700007C0C80161EE4F2D0E946B250E943C299C
:105080002396CDBFDEBFCF91DF911F910F91FF908F
:10509000EF90DF90CF90BF90AF909F908F907F90D8
:1050A0006F905F904F903F902F9008950F931F93B4
:1050B000CF93DF93182F1092002A1092FF2910929D
:1050C000012A10927C2910927D2910927629109243
:1050D00067298FEF80936D2980936E2980936F29C4
:1050E000809370298093712980937229809373290A
:1050F000809374291092CE2988E00E9497180FB7E8
:10510000F89481E00E94BE0982E00E94BE0983E01B
:105110000E94BE090FBF1123B9F11092C82982EC79
:1051200097E08093C1299093C22980E098E780930B
:10513000C3299093C4291092CD291092C5291092A9
:10514000C6290E94744F8093C72984EF91E0809311
:10515000BD299093BE2981E08093C92986E0809380
:10516000CA29C5EBD9E21092B52919821A821B828D
:105170001C821D821E821F828FEF9FEF8A879B8772
:105180000E94744F8E8B1F8ADF91CF911F910F91D8
:105190000895CF92DF92EF92FF920F931F93DB015E
:1051A000ED91FC91A781B0851696CC901697179635
:1051B000DC9017971896EC9018971996FC90199711
:1051C0001A960C911A971B961C911B971C965C9132
:1051D0001C971D964C919CE1908320914D29309114
:1051E0004E292183328393E09383AFE3B9E22C917C
:1051F000248311962C911197258312962C91129746
:10520000268313962C911397278314962C91149729
:10521000208715962C911597218716962C91169715
:10522000228717962C9123879487C586D686E78692
:10523000F08A018B128B538B448B858B82E699E22B
:105240000E94ED0F1F910F91FF90EF90DF90CF9094
:1052500008958091012A882371F40E94190980E041
:105260000E946618882321F481E08093012A089522
:1052700081E00E94190908958091CC29882331F496
:105280008091CE29882311F40E94292908950E9433
:1052900060178823D9F40E945B348031B9F40E94EE
:1052A0004B0C8823A9F081E00E9456280E943C29DB
:1052B00087E799E20E94E60F81ED99E20E94E60FEE
:1052C00088E699E20E94E60F80E0089585E8089557
:1052D00085E808958091012A813049F40E9485185B
:1052E000853829F081E00E9419091092012A089559
:1052F000EF92FF920F931F93CF93DF93E82EE70176
:105300007E01F92EE701088119810E946A29F801BE
:10531000118180E00E94190981E0112309F480E0E5
:105320000E943D17082F81E00E941909812F0E94D9
:1053300056280E943C2987E799E20E94141081EDCB
:1053400099E20E94141082E699E20E94141088E605
:1053500099E20E941410E881F981018380E2808340
:1053600082E699E2BE010E94ED0FDF91CF911F917D
:105370000F91FF90EF900895DF93CF9300D00F929D
:10538000CDB7DEB70E946A298FEF9FEF89839A839A
:105390008B839C8383E5BE016F5F7F4F0E94542BFC
:1053A00080E5BE016D5F7F4F0E94542B81E00E941B
:1053B00056280E943C292496CDBFDEBFCF91DF91B5
:1053C0000895CF92DF92EF92FF920F931F93DF9396
:1053D000CF930F92CDB7DEB7082F6B01142F8B340C
:1053E00009F4ACC08C3458F5833409F4C7C0843454
:1053F00080F4853038F4823008F0C0C0882309F486
:10540000BDC018C1813409F45FC0823409F012C1F3
:105410003EC0863409F466C0873438F4843409F415
:105420004EC0853409F006C154C0893409F45FC008
:105430008A3408F069C0873409F0FCC09FC0853504
:1054400009F45AC0863580F4813538F48E3408F07A
:1054500095C08C3409F0EEC079C0823509F47BC068
:10546000823508F4E7C08AC08835C1F0893530F448
:10547000863579F0873509F0DDC080C08A35B9F00E
:105480008A3508F47BC0803F09F0D4C077C098EE1D
:10549000D2C0FB0180818093C82907C0FB018081B5
:1054A00091818093C1299093C22990E0C4C0FB01EF
:1054B000808191818093C3299093C429F6CFFB0109
:1054C00080818093CA29F1CFFB0180818093C52917
:1054D000ECCF21E839E24091C629C90150E00E9491
:1054E0006750E3CFFB0180818093C629DECFFB01AB
:1054F00080818093C729D9CFFB01808191818093DE
:10550000BD299093BE29D1CFFB0180818093B5291D
:1055100081818093B62982818093B729838180938A
:10552000B82984818093B92985818093BA2986819D
:105530008093BB2987818093BC29B7CFFB018081F1
:1055400091818093BF299093C029AFCFFB018081C7
:105550008093CB29AACF81E0FB019081992309F4A4
:1055600080E08093CC29882331F00E946A2986E06C
:105570000E9497189ACF0E943C2997CF802FB6019E
:105580000E94FA14982F813871F40E948518802F98
:10559000B6010E94FA14982F882309F04CC081E0CC
:1055A0008093CB2803C0882309F045C090915A29E5
:1055B000292F30E08091542960915329462F50E0E3
:1055C000281B31092417350714F4692F681B70E074
:1055D000FA01E61BF70B21E030E002C0220F331F77
:1055E0009A95E2F721503040E29FA001E39F500DD1
:1055F000F29F500D112490E0680F791F21E030E0F8
:105600000AC0F901082E02C0EE0FFF1F0A94E2F74C
:105610004E0F5F1F01968617970799F724E130E038
:10562000429FC001439F900D529F900D1124865FB1
:105630009E4F37CF94EF112371F08091CB288823B0
:1056400051F08091CC29882331F499830E94661807
:105650001092CB289981892F0F90CF91DF911F91C4
:105660000F91FF90EF90DF90CF9008950F931F93CD
:10567000CF93DF938C01FC01C081D181BE016E5FAD
:105680007F4F898141E00E94E12999819A839FE1BE
:105690009883898382E699E2B8010E94ED0FDF9139
:1056A000CF911F910F910895DF93CF9300D0CDB785
:1056B000DEB79091012A913079F469837A838B83E4
:1056C0000E946A298B8169817A810E94FA148B83F6
:1056D0000E943C298B8102C00E94FA142396CDBF00
:1056E000DEBFCF91DF910895853419F48091C629EA
:1056F0000895883030F4E82FF0E0E85BFD4F8491A6
:105700000895982F9054903230F4E82FF0E0E05F45
:10571000FD4F84910895803F30F0E82FF0E0E0588D
:10572000FE4F8491089580E00895CF93DF93EC01BC
:10573000E881F98183E280836183662311F00E940E
:105740003C2982E699E2BE010E94ED0FDF91CF91E4
:105750000895DF92EF92FF920F931F93DF93CF9301
:10576000CDB7DEB72997CDBFDEBFD82E8091762981
:10577000882309F040C08091FF298330E1F18091B6
:105780007C298823C1F599870E946A29ED2C998587
:10579000F92ED701ED91FC9111978181823031F47E
:1057A0002481358129833A8342E011C08481898331
:1057B00085818A8386818B8387818C8380858D8395
:1057C00081858E8382858F838385888743E00281EC
:1057D000138181E060E09E012F5F3F4F99870E9417
:1057E000C6229985882329F0D0927F299093802919
:1057F00006C0C70101C08D2D61EE0E94952B299630
:10580000CDBFDEBFCF91DF911F910F91FF90EF9041
:10581000DF90089580917629823039F480917F2934
:10582000909180296BEE0E94952B10927629109210
:10583000002A08958091DA298823E1F081E00E940E
:10584000BE098091DA29813021F48091F5298823DD
:1058500011F46BEE01C060E080917629823031F462
:1058600080917F29909180290E94952B1092002A87
:105870001092762908952F923F924F925F926F92E5
:105880007F928F929F92AF92BF92CF92DF92EF92D0
:10589000FF920F931F93DF93CF93CDB7DEB764973B
:1058A000CDBFDEBF60917C29623011F0643079F4A5
:1058B0002091C929222359F0E0917F29F091802974
:1058C000208131812B8B3C8BF901399604C01B8AD6
:1058D0001C8AE0E0F0E01091E8292091E92930915C
:1058E000EA29123069F41E821F82188619861A86E8
:1058F0001B864091EB295091EC294C835D8318C0A5
:105900004091EB294C834091EC294D834091ED2946
:105910004E834091EE294F834091EF294887409173
:10592000F02949874091F1294A874091F2294B8714
:10593000E0905229D09057292090F6293090F729ED
:10594000C090F8294091F4294A8B623019F06430F4
:1059500009F069C04091C929442309F464C0AB89A6
:10596000BC891896FC9018974C815D814C805D80B5
:105970006E807F8088849984AA84BB8400E030C0D4
:10598000618172812617370749F56081161731F555
:105990006385E61619F56485D61601F5123031F4E3
:1059A0006381748146175707C9F43DC0638164154C
:1059B000A9F46481651591F46581661579F46681B1
:1059C000671561F46781681549F46085691531F4DC
:1059D00061856A1519F462856B1529F10F5F71965F
:1059E0000F1570F238C0BF01AE014F5F5F4F01E18C
:1059F000DA010D90AD01DB010D92BD010150C1F73F
:105A0000108321833283E386D486258636862C2D27
:105A1000221F2227221F2787BA89B08BEB89FC8996
:105A200020852F5F20870E94680F6496CDBFDEBF60
:105A3000CF91DF911F910F91FF90EF90DF90CF906A
:105A4000BF90AF909F908F907F906F905F904F909E
:105A50003F902F9008954F2D453028F2E4CF41E03C
:105A6000FB01208131812817390709F040E0842F9C
:105A70000895DF93CF9300D00F92CDB7DEB72FE21A
:105A80003DE229833A838B839C8388E699E2BE01B9
:105A90006F5F7F4F0E9408102496CDBFDEBFCF916D
:105AA000DF910895EF92FF920F931F93CF93DF93AF
:105AB000182FEB011092002A80917C29823021F46A
:105AC0008881873051F405C0833039F4888186306D
:105AD00021F4812F0E94A02FC2C08881883009F450
